:020000040800F2
:10000000A8070020F1240008DD030008DF03000832
:10001000E1030008E3030008E50300080000000016
:10002000000000000000000000000000E7030008DE
:10003000E903000800000000EB030008ED030008DE
:100040000B2500080B2500080B2500080B250008D0
:100050000B2500080B2500086F0400088704000822
:100060009F040008B7040008CF0400080B2500080F
:100070000B2500080B2500080B2500080B250008A0
:100080000B2500080B2500080B2500080B25000890
:100090000B2500080B2500080B250008E7040008C5
:1000A0000B2500080B2500080B2500080B25000870
:1000B000910500080B2500080B2500080B250008FA
:1000C0000B2500080B2500080B2500080B25000850
:1000D0000B2500080B2500080B2500080B25000840
:1000E0003F0500080B2500080B25000800F002F86A
:1000F00000F03CF80AA090E8000C82448344AAF186
:100100000107DA4501D100F031F8AFF2090EBAE883
:100110000F0013F0010F18BFFB1A43F0010318473B
:10012000CC240000EC240000103A24BF78C878C129
:10013000FAD8520724BF30C830C144BF04680C60ED
:10014000704700000023002400250026103A28BF35
:1001500078C1FBD8520728BF30C148BF0B60704739
:100160001FB502F033FA1FBD10B510BD02F0E3F960
:100170001146FFF7F5FF00F0E1F802F001FA03B4D1
:10018000FFF7F2FF03BC02F00BFA00004FF4E0604F
:1001900000F0D2BF38B540F6C210ADF8000002241E
:1001A0008DF8024048258DF8035069461E4800F03E
:1001B000E6FE4CF6D370ADF800008DF802408DF8E5
:1001C00003506946194800F0DAFE4FF46140ADF87B
:1001D00000008DF802408DF803506946144800F085
:1001E000CEFE0121084600F01DFE0121114800F05D
:1001F00051FF38BD10B54FF4E06000F09DFF00F0F6
:1002000014FA00F031FA00F049FC00F099FC00F01B
:10021000D5FCFFF7BFFF00F079FA00F01FFCBDE846
:10022000104000F0E9BB000000080140000C014054
:10023000001001400002300010B500F099FC00F001
:10024000A8FC6148614942780A7102784A71C27813
:100250008A718078C87110BD70B55D4D0024285D2D
:1002600002F0A6F90028FAD0641C24B2042CF6DBB4
:1002700070BD70B5564D00242D1D285D02F098F913
:100280000028FAD0641C24B2042CF6DB70BD70B5D3
:100290004E4D0024285D02F08BF90028FAD0641C32
:1002A00024B2092CF6DB70BD70B5494D0024083529
:1002B000285D02F07DF90028FAD0641C24B2042CD9
:1002C000F6DB70BD70B5424D00240C35285D02F0A0
:1002D0006FF90028FAD0641C24B2042CF6DB70BD40
:1002E00010B5FFF7A9FFFFF7B7FFFFF7C2FFFFF752
:1002F000CEFFFFF7A1FFFFF7CAFFFFF79DFFFFF754
:10030000C6FFFFF799FFFFF7B4FFFFF7C0FFFFF746
:1003100093FFFFF7BCFFFFF78FFFFFF7B8FFFFF773
:100320008BFFFFF7B4FFFFF787FFFFF795FFFFF79E
:10033000AEFFFFF781FFBDE81040A8E71FB5FFF74C
:1003400059FFFA2102A800F02DFB4FF4FA7168461C
:1003500000F028FB1F4E01251F4CFFF7C1FF00F0E6
:100360003AFCD0B1012821D002A800F029FB38B115
:10037000684600F021FB02A800F01EFB00F08FF998
:100380003078A8B1C4F8945100F04BF90128E4D1B9
:1003900000F043F9FFF796FFDFE7C4F8B451684671
:1003A00000F00AFB02A800F007FBE9E76846DCE77B
:1003B0000020C4F8940100F034F90128CDD100F0F8
:1003C0002CF9FFF771FFC8E71C0000200000002097
:1003D000DA25000812000020008021427047FEE765
:1003E000FEE7FEE7FEE770477047704770B500F024
:1003F000F7F87448B0F80018734C8A06734B4FF046
:10040000000109D5B0F80408724A714DC0B21678DF
:10041000AA28A85505D007E0188830B3401E1880D8
:1004200070BD1170AA2028701078401CC0B21070E6
:10043000042803D04028F3D1117070BD2878AA2871
:1004400008D16878012805D1A878112802D1E87868
:10045000552804D01888042807D3001FDFE701209F
:1004600020704FF448701880E6E7217070BD10B519
:10047000012000F01CFF002804D0BDE8104001203E
:1004800000F022BF10BD10B5022000F010FF0028C0
:1004900004D0BDE81040022000F016BF10BD10B51A
:1004A000042000F004FF002804D0BDE81040042020
:1004B00000F00ABF10BD10B5082000F0F8FE0028BB
:1004C00004D0BDE81040082000F0FEBE10BD10B5FD
:1004D000102000F0ECFE002804D0BDE810401020F1
:1004E00000F0F2BE10BD10B5202000F0E0FE10B10B
:1004F000202000F0E9FE402000F0D9FE10B140209D
:1005000000F0E2FE802000F0D2FE10B1802000F06A
:10051000DBFE4FF48074204600F0C9FE10B1204687
:1005200000F0D2FE4FF40074204600F0C0FE002818
:1005300004D02046BDE8104000F0C6BE10BD10B586
:100540004FF48064204600F0B2FE10B1204600F067
:10055000BBFE4FF40064204600F0A9FE10B1204617
:1005600000F0B2FE4FF48054204600F0A0FE10B11F
:10057000204600F0A9FE4FF40054204600F097FEFC
:10058000002804D02046BDE8104000F09DBE10BDFC
:1005900010B501218C07204601F0FBFE012810D187
:1005A0000121204601F001FF0B480168491C016050
:1005B0000A490888B0F57A7F01D2401C00E000208B
:1005C000088010BD00300140120000200A00002009
:1005D0004800002013000020180000201400002014
:1005E0001E4803681E4A012BB2F90010B2F902003E
:1005F00005D0C82910DB642809DA401C0BE0C829A3
:100600000ADA491C1180002806DD401E03E00120A3
:100610009080002010805080704711490020888011
:1006200070470F48B0F90400704710B50121082049
:1006300000F0F8FB0B4C482302220821204600F072
:100640003FF80121082000F0EDFB2046282302227C
:10065000BDE81040D10200F033B800000C81214207
:100660000C000020000C014010B50121082000F012
:10067000D9FB104C102302222021204600F020F844
:100680000121082000F0CEFB022210231103204696
:1006900000F016F8084800210160016210BD07490A
:1006A000D1F8B40118B10020C1F8B401704701209D
:1006B000FAE70000000C01409481214200802142B1
:1006C00008B5ADF800108DF802208DF803306946AA
:1006D00000F055FC08BD1CB5009000208DF804000A
:1006E0008DF805108DF80620684600F088FD1CBDC9
:1006F00008B58DF800008DF801108DF802208DF8F6
:100700000330684600F01DFD08BD000010B586B03E
:10071000012144F2050000F085FB4FF40070ADF8B4
:10072000100018208DF813000220954C8DF812004F
:1007300004A9204600F023FC2115ADF81010482133
:100740008DF8131004A9204600F019FC4FF4165040
:1007500000900020ADF80400ADF80600ADF80800E8
:10076000ADF80C000C20874CADF80A006946204615
:1007700000F0E6FD002240F22771204600F062FE04
:10078000002240F22551204600F05CFE0121204667
:1007900000F04EFE06B010BD10B5012186B08804F1
:1007A00000F049FB0121092000F03CFB4FF4806080
:1007B000ADF8100018208DF813000220724C8DF84F
:1007C000120004A9204600F0DAFBE114ADF8101085
:1007D00048218DF8131004A9204600F0D0FB4FF4F7
:1007E000165000900020ADF80400ADF80600ADF8FA
:1007F0000800ADF80C000C20644CADF80A00694606
:10080000204600F09DFD002240F22771204600F0B6
:1008100019FE002240F22551204600F013FE01216E
:10082000204600F005FEB5E70020594A0146115464
:10083000401CC0B24028FAD370470020544A0146F9
:1008400040321154401CC0B24028FAD370470020F7
:100850004F4A014680321154401CC0B24028FAD39E
:10086000704710B5012186B0C80400F0E4FA0121F8
:10087000112000F0D7FA4FF48060ADF81000182076
:100880008DF813000220434C8DF8120004A9204675
:1008900000F075FBE114ADF8101048218DF813102D
:1008A00004A9204600F06BFB4FF416500090002086
:1008B000ADF80400ADF80600ADF80800ADF80C0086
:1008C0000C20354CADF80A006946204600F038FD92
:1008D000002240F22771204600F0B4FD002240F2D1
:1008E0002551204600F0AEFD0121204600F0A0FD7C
:1008F00050E710B5012186B0080500F09CFA0121EF
:10090000312000F08FFA4FF48050ADF8100018201D
:100910008DF8130002208DF8120004A91D4800F084
:100920002EFB0420ADF8100048208DF8130004A918
:100930001A4800F024FB4FF4165000900020ADF848
:100940000400ADF80600ADF80800ADF80C000C206E
:10095000134CADF80A006946204600F0F1FC002275
:1009600040F22771204600F06DFD002240F2255133
:10097000204600F067FD0121204600F059FD09E7FF
:100980000008014000380140000C014000480040D0
:100990008800002000100140004C0040001401407D
:1009A0000050004041603A49096801607047D0E951
:1009B00000121144016070473549096801607047B1
:1009C00033490268406809688A4201D8891A01E0FF
:1009D000D2431144814201D3012070470020704767
:1009E0002B4A01681268914201D8511A01E0C943AB
:1009F00011444068401A70473EB50121084600F096
:100A00001AFA4FF08044204600F098FF214842F245
:100A100010710068B0FBF1F1ADF804100920ADF8D9
:100A200000000021ADF80610ADF80210694620461E
:100A300001F01CF80121204601F05AFB0122114669
:100A4000204601F0BFFA01230F2200211C20FFF7EE
:100A50004FFE0121204601F0A0FA3EBD0D484FF4A3
:100A60007A610068B0FBF1F0B0F1807F0ED220F027
:100A70007F414FF0E020491E4161074AF02111708B
:100A80004FF0000181614FF00701016170470000E4
:100A9000180000203400002023ED00E010B50121F3
:100AA00086B0480200F0BEF94FF4004000F04FF964
:100AB00000214FF46020CDE902018DF804100120DF
:100AC0001E4C00918DF805108DF8100069462046E7
:100AD00000F0BAFD00224FF4FC61204600F0F0FD6A
:100AE0000121204600F0D8FD204600F0F2FD20460E
:100AF00000F0F4FD0028FAD1204600F0F6FD204673
:100B000000F0F8FD0028FAD106B010BD10B50B4C6E
:100B1000014605230122204600F016FE0121204651
:100B200000F0EFFD0221204600F0DCFE0028F9D0A5
:100B30002046BDE8104000F04BBE000000240140FC
:100B400010B50121042000F06DF91A4C0023022297
:100B500008212046FFF7B4FD0121042000F062F9CE
:100B6000204600230222BDE810401021FFF7A8BD57
:100B700070B500252C460320FFF7C8FF641C24B283
:100B80000544FF2CF7DBFF20B5FBF0F00A49088095
:100B900070BD70B500252C460420FFF7B7FF641C1C
:100BA00024B20544FF2CF7DBFF20B5FBF0F002492F
:100BB000488070BD000801401C00002010B50121D4
:100BC000042000F02FF900230222BDE8104001218B
:100BD0000F48FFF775BD70B500252C460020FFF7C4
:100BE00095FF641C24B20544FF2CF7DBFF20B5FB06
:100BF000F0F000B240F60D51884201DB002070BDDC
:100C000040F68F31884201DB012070BD022070BDAB
:100C100000080140A248016841F0010101604168FB
:100C2000A04A1140416001689F4A1140016001687B
:100C300021F480210160416821F4FE0141604FF4FC
:100C40001F018160704796490A6822F480320A6069
:100C50000A6822F480220A60B0F5803F07D0B0F520
:100C6000802F03D1086840F4A0200860704708680E
:100C700040F48030F9E7034600205909884A0129E9
:100C80000AD002290AD0516A03F01F0201239340BF
:100C90000B4200D0012070471168F5E7116AF3E7B5
:100CA00030B500244FF4A0653120FFF7E4FF641C49
:100CB000AC4201D00028F7D03120FFF7DCFF00283C
:100CC00000D0012030BD764A116821F0F80141EAD8
:100CD000C00010607047754908607047704B5A68D3
:100CE000084322F47C121043586070476F4908662D
:100CF00070476B4A516821F003010143516070470E
:100D00006748406800F00C007047654A516821F060
:100D1000F001014351607047614A516821F4E0617C
:100D20000143516070475E4A516821F4605141EAC5
:100D3000C000506070475A4A0029517A01D00143DF
:100D400000E0814351727047594908607047544A26
:100D5000516821F4404101435160704755490022D8
:100D60000A7001F82029012802D0042802D10520A8
:100D700081F82000704750490860704748490A6A66
:100D800002430A6270474D4908607047444A10B5F3
:100D900051684B4B11F00C0103D0042901D00829F4
:100DA00001D0036012E05168536801F470114FF0F4
:100DB000020413F4803F04EB914102D053689B037B
:100DC00001D5404B00E03E4B5943016051683E4B1A
:100DD00001F0F00109095C5C0168E1404160546880
:100DE00004F4E064240A1C5D21FA04F4846054686D
:100DF00004F46054E40A1B5DD940C1605268324B70
:100E000002F44042920B1B1F9A5CB1FBF2F10161AC
:100E100010BD234A0029516901D0014300E08143FC
:100E2000516170471E4A0029916901D0014300E0D9
:100E30008143916170471A4A0029D16901D0014369
:100E400000E08143D1617047154A0029D16801D083
:100E5000014300E08143D1607047114A00291169C4
:100E600001D0014300E081431161704717490860D8
:100E700070470E49C86470470949C87170470848EF
:100E8000416A41F0807141627047054A0146002085
:100E900092680A4200D00120704701498872704769
:100EA000001002400000FFF8FFFFF6FE0000424283
:100EB000D800424220100240800442423C04424298
:100EC00000127A0000093D00240000204004424244
:100ED0008F4910B5884206D101210420FFF7B4FFE5
:100EE000002104203BE08B49884206D101210820E3
:100EF000FFF7AAFF0021082031E08749884206D188
:100F000001211020FFF7A0FF0021102027E08349D6
:100F1000884206D101212020FFF796FF00212020E2
:100F20001DE07F49884206D101214020FFF78CFF58
:100F30000021402013E07B49884206D10121802016
:100F4000FFF782FF0021802009E0774988420AD11B
:100F5000841501212046FFF777FF00212046BDE8D8
:100F60001040FFF771BF10BD10B501210846FFF713
:100F70006BFF0021BDE810400120FFF765BFF0B511
:100F8000CC78002204F00F03E40601D58C782343CB
:100F90000C884FF00F0C14F0FF0F4FF0010E1AD019
:100FA00005680E880EFA02F42640A6420FD196007C
:100FB0000CFA06F7BD4303FA06F63543CE78282E21
:100FC00002D0482E02D002E0446100E00461521CCD
:100FD000082AE6D305600A88FF2A1DD94568002241
:100FE00002F108060EFA06F40E882640A6420FD13A
:100FF00096000CFA06F725EA070703FA06F5CE78FD
:101000003D43282E00D14461CE78482E00D10461A2
:10101000521C082AE4D34560F0BD4FF6FF710180F1
:10102000022181700421C17070470246002092683D
:101030000A4200D001207047806880B270470246A3
:101040000020D2680A4200D001207047C06880B2F8
:10105000704701617047416170470AB10161704793
:1010600041617047C160704741F4803282618161A3
:1010700082618169806970472C4B10B51A684FF600
:101080008074224042EA00100843186010BD2849CD
:10109000C8617047F0B5254C002801DAE36900E02B
:1010A0006368420D120185B2C0F301579540C0F349
:1010B0000346032F05D0C2020AD50322B240934350
:1010C00007E023F07062636823F07063636002E0FE
:1010D000AB4343F0706201B12A43002801DAE261B8
:1010E000F0BD6260F0BD10B58A0721F003040F491E
:1010F000120F21440F238C6893409C438C608B68B3
:10110000904003438B6010BD0A490860704700009F
:1011100000080140000C0140001001400014014093
:1011200000180140001C0140002001400000014067
:1011300000002042DC00204228490843284908607A
:10114000704770B50F24C27801784FF0E023012674
:10115000E2B1D3F80C2D194402F4E062C2F5E0626A
:10116000120AC2F10405D4404278AA40857825408D
:1011700015432A0181F80024007800F01F018E40F9
:10118000400903EB8000C0F8006170BD01F01F0052
:101190008640480903EB8000C0F8806170BD114AA9
:1011A000114001431048016070474FF0E0220029D0
:1011B000D2F8101D01D0014300E08143C2F8101D98
:1011C00070474FF0E0210428086903D020F00400A4
:1011D0000861704740F00400FAE700000000FA05DB
:1011E0000CED00E080FFFF1F08ED00E03848002113
:1011F000016041608160C16036494161704730B52E
:10120000334A8179036899B311460C6824EA0304D0
:101210000C604B68046823EA04034B60047904EB18
:1012200002031C68056844EA05041C608B680468B6
:1012300023EA04038B60CB68046823EA0403CB60D1
:101240004379A1F58061102B05D099180A680068D0
:1012500002430A6030BD01F581610A68036842EA11
:1012600003020A604A68006842EA00024A6030BD30
:10127000FFE700791044016899430160F7E7002116
:10128000016001710C2242718171704712490A6834
:1012900042EA00020A607047104A014600201268C4
:1012A0000A4200D0012070470C4908607047084B83
:1012B000014600201A685B6902EA01020B4202D073
:1012C000002A00D0012070470449086070470000E0
:1012D00000040140FFFF0F0010040140140401400E
:1012E000C64910B588420AD101218C032046FFF778
:1012F000ABFD2046BDE810400021FFF7A5BDC04969
:10130000884202D101214C0410E0BE49884202D13A
:1013100001218C040AE0BC49884202D10121CC049D
:1013200004E0BA4988420AD101210C052046FFF7A2
:1013300094FD2046BDE810400021FFF78EBD10BD92
:1013400030B50D46018A85B004464CF6FF70014069
:10135000E88808432082A0894EF6F3110840A98846
:101360002A8911436A8902431143A181A18A4FF658
:10137000FF400140A8890843A0826846FFF706FDA8
:101380009E48844201D1039800E00298A189090493
:10139000002900EBC00101EB0010296802DA4FEAD6
:1013A000410101E04FEA8101B0FBF1F06422B0FBA2
:1013B000F2F14FEA01114FEA11136FF018056B4378
:1013C00000EB8300A3891D044FF0320306D503EB25
:1013D000C000B0FBF2F000F0070005E003EB0010E6
:1013E000B0FBF2F000F00F000843208105B030BDE3
:1013F0004FF41651016000218180C18001810C22CF
:1014000042818181704710B5028A4FF2FF031A4072
:101410000B884C8823438C88C9880C43234313438F
:10142000038210BD0021018041808180C18070470E
:101430000029818902D041F4005101E021F40051DA
:101440008181704710B5C1F3421301F01F040121DF
:10145000A140012B07D0022B07D01430002A0268CC
:1014600005D00A4304E00C30F8E71030F6E78A4371
:10147000026010BD002A828A01D00A4300E08A433C
:1014800082827047028A22F00F020282028A0A4395
:1014900002827047828922F40062828182890A4333
:1014A000828170470029818902D041F0020101E068
:1014B00021F0020181817047028A22F0200202821B
:1014C000028A0A43028270470029018A02D041F44D
:1014D000804101E021F4804101827047C1F308019D
:1014E000818070478088C0F308007047818941F08F
:1014F000010181817047028BD2B20283028B42EAE2
:10150000012101837047028B02F47F420283028B28
:101510000A43028370470029818A02D041F02001EA
:1015200001E021F02001818270470029818A02D0E8
:1015300041F0100101E021F0100181827047002983
:10154000818A02D041F0080101E021F00801818286
:1015500070470029818902D041F4004101E0C1F3C4
:101560000E01818170470029818A02D041F4006117
:1015700001E021F4006181827047828A22F0040236
:101580008282828A0A43828270470029818A02D03D
:1015900041F0020101E021F0020181827047024620
:1015A000002012880A4200D001207047C943018000
:1015B000704770B501F01F0601250024C1F34213E6
:1015C00005FA06F2012B0FD0022B0FD0838A4FEAC7
:1015D00011210088134205FA01F500EA050001D047
:1015E00000B10124204670BD8389F0E7038AEEE74D
:1015F0000A0A01219140C943018070470038014027
:101600000044004000480040004C004000500040B2
:10161000C24910B5884202D1012144150AE0C049EF
:10162000884202D10121041504E0BE4988420AD152
:101630000121CC032046FFF707FC2046BDE81040FF
:101640000021FFF701BC10BD10B54268B64B0C7904
:101650001A400B6842EA0422134343608268B34B8A
:101660001A40D1E9024323434C7942EA440213432E
:101670008360C26A097C22F47002491EC9B242EA40
:101680000151C16210BD0021016001714171816091
:10169000C1600121017470470029816802D041F0C6
:1016A000010101E021F0010181607047002981689A
:1016B00002D041F4807101E021F4807181607047B3
:1016C000002A4268C9B201D00A4300E08A4342605E
:1016D0007047816841F00801816070470146002031
:1016E0008968090700D501207047816841F004012D
:1016F00081607047014600208968490700D50120B4
:1017000070470029816802D041F4A00101E021F472
:10171000A00181607047014600208968490200D518
:10172000012070474268491E22F4604242EA41317A
:10173000416070470029416802D041F4006101E036
:1017400021F400614160704770B5072609290AD964
:10175000C568A1F10A0404EB4404A640B543A340C4
:101760001D43C56007E0056901EB4104A640B54390
:10177000A3401D4305611F23072A09D2446B521E53
:1017800002EB820293409C4391400C43446370BD42
:101790000D2A09D2046BD21F02EB820293409C43B4
:1017A00091400C43046370BDC46A0D3A02EB82029F
:1017B00093409C4391400C43C46270BD00298168F2
:1017C00002D041F4801101E021F480118160704762
:1017D000C06C80B270475648006870470029416865
:1017E00002D041F4806101E021F4806141607047E2
:1017F0000029416802D041F4805101E021F4805178
:1018000041607047826822F4E0420A438260704778
:101810000029816802D041F4004101E021F4004137
:10182000816070470029816802D041F4021101E013
:1018300021F4021181607047014600208968890205
:1018400000D50120704770B5072609290AD9C56857
:10185000A1F10A0404EB4404A640B543A3401D4390
:10186000C56007E0056901EB4104A640B543A3400C
:101870001D430561836BC3F30154121B921C02EBE1
:1018800082021F249440A34391400B43836370BDA5
:10189000826B491E22F4401242EA01518163704773
:1018A000425070470844806A80B270474268214BBA
:1018B0001A400A4342607047416282627047426840
:1018C00022F01F020A43426070471B490028D1F8EA
:1018D000080402D040F4000001E020F40000C1F848
:1018E000080470470246002012680A4200D0012016
:1018F0007047C9430160704710B502460020546824
:101900000B0AC9B20C401168194202D0002C00D059
:10191000012010BD6FEA11210160704700240140D1
:1019200000280140003C0140FFFEF0FFFDF7F1FF01
:101930004C240140FFFD3FFF00200140FA4910B553
:10194000884202D10121C41486E0B0F1804F09D051
:10195000F64988420DD101210220FFF77EFA0021CD
:10196000022064E001210846FFF777FA00210120F8
:101970005DE0EF49884206D101210420FFF76DFAAE
:101980000021042053E0EB49884206D101210820C0
:10199000FFF763FA0021082049E0E749884206D1B1
:1019A00001211020FFF759FA002110203FE0E34900
:1019B000884206D101212020FFF74FFA0021202084
:1019C00035E0DF49884202D10121441444E0DD4979
:1019D000884202D10121CC043EE0DB49884202D199
:1019E00001210C0538E0D949884202D101214C057A
:1019F00032E0D749884206D101214020FFF72DFA75
:101A00000021402013E0D349884206D101218020E3
:101A1000FFF723FA0021802009E0CF4988420AD14C
:101A2000841501212046FFF718FA00212046BDE861
:101A30001040FFF712BAC949884202D101210C04B3
:101A40000AE0C749884202D101214C0404E0C5499B
:101A500088420AD101218C042046FFF7F5F920467F
:101A6000BDE810400021FFF7EFB910BD30B5028886
:101A7000AD4CB34DA0420DD0A8420BD0B0F1804F79
:101A800008D0AA4B984205D0A94B984202D0A94B46
:101A9000984203D122F070034A881A43A64B984219
:101AA00006D0A64B984203D022F44073CA881A434A
:101AB00002808A8882850A880285A0420AD0A842CC
:101AC00008D0A64A904205D0A54A904202D0A54A25
:101AD000904201D1097A01860121818230BD30B561
:101AE000028C22F001020284028C8388048B22F093
:101AF000020224F073050C882C430D8915434A8893
:101B00002A43894DA8420BD08D4DA84208D0934D51
:101B1000A84205D0924DA84202D0924DA8420DD1C4
:101B200022F008054A8923F440732A4322F0040571
:101B30008A882A438D891D43CB892B438380048364
:101B4000C9888186028430BD30B5028C22F0100233
:101B50000284028C8388048B22F0200224F4E64560
:101B60000C88240645EA14440D892D0542EA1545E2
:101B70004A88120545EA12426B4DA84202D0704DC8
:101B8000A84215D122F080054A8923F4406312054A
:101B900045EA124222F040058A88120545EA1242BF
:101BA0008D89AD0443EA1545CB899B0445EA13436F
:101BB00083800483C9880187028430BD30B5028CDC
:101BC00022F480720284028C8388848B22F4007257
:101BD00024F073050C882C430D892D0642EA154527
:101BE0004A88120645EA12424F4DA84202D0544D8F
:101BF000A84215D122F400654A8923F44053120605
:101C000045EA124222F480658A88120645EA1242A9
:101C10008D892D0543EA1545CB891B0545EA1343FC
:101C200083808483C9888187028430BD30B5028C6B
:101C300022F480520284048C8288838B23F4E6454C
:101C40000B881B0645EA134324F400550C8924072E
:101C500045EA14444D882D0744EA1545324CA0420C
:101C600002D0374CA04205D122F480448A899205E3
:101C700044EA124282808383C988A0F84010058418
:101C800030BD828B22F440628283828B42EA012241
:101C900082837047828B22F00C028283828B0A43FC
:101CA00082837047028B22F440620283028B42EAF5
:101CB00001220283704770B5048C24F01004048460
:101CC000068B048C26F473461B0746EA1343120660
:101CD00043EA12420D05144B2D0C98420ED0184BBE
:101CE00098420BD0B0F1804F08D0104B984205D0ED
:101CF0000F4B984202D00F4B984205D124F020019F
:101D0000294341F0100104E024F0A0030B4343F009
:101D100010010283018470BD028B22F00C02028349
:101D2000028B0A4302837047002C014000040040EC
:101D300000080040000C004000100040001400406B
:101D400000340140004C014000500140005401406B
:101D500000180040001C00400020004000400140EE
:101D6000004401400048014030B5048C24F00104D7
:101D70000484058B048C1B0542EA134325F0F3050C
:101D8000F94A2B4390420ED0F84A90420BD0B0F162
:101D9000804F08D0F64A904205D0F64A904202D0D1
:101DA000F54A904202D124F0020201E024F00A0236
:101DB0000A4342F001010383018430BD2DE9F05F45
:101DC0000D4604460888E84EE84FDFF8A483DFF8A4
:101DD000A4934988AA882B894FF0804A28B1042807
:101DE0000BD00828934610D03DE02046FFF7BCFFFB
:101DF000E9882046BDE8F05F8EE72046FFF75BFFED
:101E0000E9882046BDE8F05F4CE7208C20F4807024
:101E10002084A28B208C1B0522F0F3024BEA134393
:101E20004FEA016C13434FEA1C4EB4420AD0BC4245
:101E300008D0544506D0444504D04C4502D0CE4A83
:101E4000944204D120F4007040EA0E0002E020F435
:101E50002060084340F48070A3832084E9882046F2
:101E6000BDE8F05F16E7208C20F480502084B4F8A1
:101E70001CC0208C0A074FEA124E2CF4734C4FEA18
:101E80000B621B074CEA124242EA1343B4420AD0E7
:101E9000BC4208D0544506D0444504D04C4502D03D
:101EA000B54A944204D120F4005040EA0E0002E00A
:101EB00020F40240084340F48050A3832084E98842
:101EC0002046BDE8F05FDCE62DE9F0410C46002538
:101ED00049880746012601B90225A288012A00D1B6
:101EE0000226208823890028384610D0FFF7E3FE19
:101EF000E1883846FFF7D6FE238932462946384620
:101F0000FFF732FFE1883846BDE8F04104E7FFF70C
:101F10002BFFE1883846FFF7FFFE2389324629462A
:101F20003846FFF7C8FEE1883846BDE8F041B9E61B
:101F300010B50A884B88CC881A438B8823431A43F0
:101F40000B891A434B8989891A430A43A0F8442014
:101F500010BD4FF6FF71818000210180C18041805A
:101F60000172E0E60021018041808180C180018111
:101F700041818181C181D6E6002101804180012219
:101F80008280C1800181CEE6002101804180818074
:101F9000C180018141818181C5E60029018802D08B
:101FA00041F0010101E021F001010180BBE60029BF
:101FB00030F8441F02D041F4004101E0C1F30E01AA
:101FC0000180B0E6002A828901D00A4300E08A43FA
:101FD0008281A8E68182A6E61143A0F84810A2E615
:101FE000002A828901D00A4300E08A4382819AE66E
:101FF000018921F00701018195E6028922F0700232
:102000000A4302818FE6028922F070020A430281AC
:10201000018941F00701018185E670B50D46114641
:102020000446602D4FF001020BD0FFF79DFE208982
:1020300020F0700028432081208940F00700208193
:1020400070BDFFF738FEF2E710B5048942EA0323BA
:10205000E4B20B432343038110BD10B50446FFF7E0
:10206000F3FF208940F07700208110BD10B50446B1
:10207000FFF7EAFF208940F48040208110BD0185F0
:10208000828250E6028822F070020A4302804AE609
:1020900070B50589048B068C25F007050D434FF6B6
:1020A000FC410C4040F201110C4326F0220642EAAA
:1020B0000311314305810483018470BD028B22F03A
:1020C00070020A4302832EE6028B22F4E04242EAC7
:1020D0000121018327E6828B22F070020A4382836A
:1020E00021E6828B22F4E04242EA012181831AE652
:1020F0000029018802D041F0800101E021F0800137
:10210000018010E60029818802D041F0040101E03D
:1021100021F00401818006E60029818802D041F087
:10212000080101E021F008018180FCE50029818897
:1021300002D041F0010101E021F001018180F2E5CE
:10214000028B22F008020A430283ECE5028B22F4A0
:10215000006242EA01210183E5E5828B22F0080258
:102160000A438283DFE50000002C01400034014077
:102170000004004000080040000C0040828B22F464
:10218000006242EA01218183CDE5028B22F0040244
:102190000A430283C7E5028B22F4806242EA0121EE
:1021A0000183C0E5828B22F004020A438283BAE5F0
:1021B000828B22F4806242EA01218183B3E5028BA3
:1021C00022F080020A430283ADE5028BC2F30E02C5
:1021D00042EA01210183A6E5828B22F080020A43B4
:1021E0008283A0E5828BC2F30E0242EA0121818341
:1021F00099E5028C22F002020A43028493E5028CE4
:1022000022F008020A4302848DE5028C22F02002AB
:1022100042EA0111018486E5028C22F0800242EA42
:10222000011101847FE5028C22F4007242EA01214F
:10223000018478E5028C22F4006242EA01210184E3
:1022400071E5028C22F4005242EA013101846AE510
:1022500010B50123048C8B409C430484038C8A407A
:102260001343038410BD10B50423048C8B409C439E
:102270000484038C8A401343038410BD30B50124C9
:10228000058C00F118038C40A543058479B1082919
:102290000DD0091F88B203EB5000016821F4E04122
:1022A000016001681206120C1143016030BD03EB9E
:1022B0005100016821F0700101600168F4E7002914
:1022C000018802D041F0020101E021F00201018009
:1022D00029E50029018802D041F0040101E021F044
:1022E000040101801FE50029818802D041F08001AE
:1022F00001E021F08001818015E5028822F00802CA
:10230000028002880A4302800DE5828822F0700272
:10231000828082880A43828005E5028922F00702D2
:10232000028102890A430281FDE4028922F08002CF
:10233000028102890A430281F5E48184F3E4818504
:10234000F1E48186EFE40187EDE48187EBE4A0F816
:102350004010E8E4028822F44072028002880A43B6
:102360000280E0E4808EDEE4008FDCE4808FDAE43B
:10237000B0F84000D7E4808CD5E4008DD3E4024669
:102380000020128A0A4200D00120CCE4C943018215
:10239000C9E402460020138A92890B4202EA010234
:1023A00002D0002A00D00120BDE4C9430182BAE472
:1023B000474810B5016841F0010101604168454A94
:1023C000114041600168444A11400160016821F4F4
:1023D00080210160416821F4FE0141604FF41F013A
:1023E000816000F030F83D494FF00060086010BD9A
:1023F000374A10B550683A4B10F00C01394803D0F9
:10240000042901D0082901D0036012E05168536803
:1024100001F470114FF0020413F4803F04EB91417A
:1024200002D053689B0301D52F4B00E02C4B59433E
:10243000016051682B4AC1F30311121D515C0268FF
:10244000CA40026010BD224900200A6842F480326E
:102450000A604FF4A0630A6800F1010012F4003F23
:1024600001D19842F7D10868800330D51F4802682F
:1024700042F010020260026822F003020260026869
:1024800042F0020202604868486048684860486854
:1024900040F480604860486820F47C1048604868D8
:1024A00040F4E8104860086840F0807008600868F0
:1024B0008001FCD5486820F003004860486840F07F
:1024C000020048604868C0F381000228FAD17047D2
:1024D000001002400000FFF8FFFFF6FE08ED00E0EC
:1024E00000127A003400002000093D000020024064
:1024F0000948804709480047FEE7FEE7FEE7FEE798
:10250000FEE7FEE7FEE7FEE7FEE7FEE704480549D3
:10251000054A064B70470000B1230008ED00000893
:10252000A8010020A8070020A8030020A80300207D
:10253000704770477047754600F028F8AE460500B2
:102540006946534620F00700854618B020B5FFF7CE
:10255000DDFFBDE820404FF000064FF000074FF0D0
:1025600000084FF0000B21F00701AC46ACE8C009B1
:10257000ACE8C009ACE8C009ACE8C0098D467047BA
:102580000446AFF300802046FDF7F9FD0048704790
:102590004801002001487047704700BF4C010020EF
:1025A00001491820ABBEFEE726000200704700007C
:1025B0000549B1F80028120603D5A1F80408012046
:1025C00070470020704700000030014010B5FFF751
:1025D000E1FF4FF00001016010BDAA010055AA0102
:1025E0001055AA011155AA01125500000C26000829
:1025F00000000020480000002801000854260008C0
:10260000480000206007000044010008AA0607FBFC
:102610000000000055000000000000000000000065
:102620000000000000000000000000000204060896
:102630000000000001020304010203040607080968
:1026400000A24A0400000000000000000102030490
:042650000607080968
:04000005080000ED02
:00000001FF
