:020000040800F2
:10000000E83C00208DC80008A5060008A7060008E7
:10001000A9060008AB060008AD06000800000000B5
:10002000000000000000000000000000AF06000813
:10003000B106000800000000B3060008B50600087D
:10004000A7C80008A7C80008A7C80008A7C80008D4
:10005000A7C80008A7C8000887090008B909000850
:10006000EB0900081D0A00084F0A0008A7C800088D
:10007000A7C80008A7C80008A7C80008A7C80008A4
:10008000A7C80008A7C80008A7C80008A7C8000894
:10009000A7C80008A7C80008A7C80008810A000868
:1000A000A7C80008A7C80008A7C80008A7C8000874
:1000B000A7C80008A7C80008A7C80008A7C8000864
:1000C000A7C80008A7C80008A7C80008A7C8000854
:1000D000A7C80008A7C80008A7C80008A7C8000844
:1000E000DF0B0008A7C80008A7C800080000000030
:1000F0000000000000000000000000000000000000
:100100000000000000000000830C0008A7C80008E1
:10011000A7C80008A7C80008590D00089F0D0008CF
:10012000A7C80008A7C80008A7C80008A7C80008F3
:10013000A7C80008A7C80008A7C80008A7C80008E3
:10014000A7C80008A7C80008A7C80008A7C80008D3
:1001500000F002F800F0B2F80AA090E8000C824427
:100160008344AAF10107DA4501D100F0A7F8AFF204
:10017000090EBAE80F0013F0010F18BFFB1A43F085
:100180000103184760EF000080EF00000A444FF0C1
:10019000000C10F8013B13F0070408BF10F8014BE6
:1001A0001D1108BF10F8015B641E05D010F8016B2B
:1001B000641E01F8016BF9D113F0080F1EBF10F88F
:1001C000014BAD1C0C1B09D16D1E58BF01F801CBB2
:1001D000FAD505E014F8016B01F8016B6D1EF9D535
:1001E0009142D6D37047000000230024002500264A
:1001F000103A28BF78C1FBD8520728BF30C148BF8A
:100200000B6070476E290CF0CA8570290DF03081A3
:1002100066290EF0988265290EF0958267290EF006
:1002200092826129AFF3008003681B0A28BF41F066
:10023000800169290CF0C48364290CF0C1837529FD
:100240000CF0BE836F290DF0BB8078290DF0FC8087
:10025000E9290DF05380E4290DF05080F5290DF0C7
:100260004D80EF290DF0B880F8290DF0FB80036870
:10027000DB0928BF41F0800163290CF0D487732982
:100280000CF0D987E3290DF09B81F3290DF0A081B3
:10029000002070471FB50EF04AFA0DF0FDF804007B
:1002A000002000210DF0ACFE401C60600020002109
:1002B0000DF090FEE0601FBD10B510BD0DF026FAE8
:1002C0001146FFF7E7FF00F06BF80DF04DFA03B4AD
:1002D000FFF7F2FF03BC0DF093FA000072B670470F
:1002E00062B670474FF4E0600AF0FCBD10B5012122
:1002F00008460AF05BFC012127480AF0A1FD012114
:1003000026480AF09DFD012108030AF099FD4FF4EB
:10031000E0600AF0E7FD09F081FB09F077F909F0E8
:100320009DF901F00AF800F07FFD08F0E3FF09F005
:1003300083FD09F0CFFD09F049F909F04FFB09F001
:100340005DFB09F053F900F0A6FF01F051F909F047
:1003500081FB09F0C5FB09F028FC09F06EFC09F0EF
:10036000C5FC09F00DFD09F0DAF809F093F809F081
:10037000D1FD09F0DCFD09F0E7FD09F0F2FD08F020
:1003800030FD08F05FFD08F08FFD09F06FFFBDE85C
:10039000104009F074BF000000043000000C1A0087
:1003A0001FB50024FFF7A2FF9E4801F051F900207D
:1003B00001F075F99C4D0026AE6001F06FFC08B1AC
:1003C00001F04BFC99480068401C04D19848C66174
:1003D000012005F025FBDFF85C82974F4FF47A7916
:1003E000C7F89C61C8F8BC6100210122084609F0E9
:1003F000A0F9E86880B30024CDE9004428238022D6
:100400000D21012001F05CFFE868E040C00704D145
:10041000641CE4B21F2CF7D9002400F01DFD012854
:1004200002D0022814D01EE01F2C02D2641CE4B2B9
:1004300009E00024E96821FA04F0C00713D1641C24
:10044000E4B2202C02D0202CF4D30CE00024F2E7FC
:100450001CB1641EE4B201E017E01F24E96821FA30
:1004600004F0C0070BD075A0E96802F024FAE86830
:10047000E040C007C8D0204605F085F9C4E714B1B4
:10048000641EE4B2EBE71F24E9E7A888102812D124
:10049000494602A808F038FB03E001F034F90228CD
:1004A00035D002A808F03EFB0028F6D0012C97D0EA
:1004B000012001F0F4F8A88801280FD1494602A8CC
:1004C00008F022FB03E001F01EF902281FD002A869
:1004D00008F028FB0028F6D0012C81D0A868C105BF
:1004E00001D4810515D559A002F01BFA58A002F0DD
:1004F0004FFA56A002F08DFA54A002F0CBFA58A0A1
:1005000002F0D9F900F0A8FC0428FBD172E0012424
:1005100066E7410601D4010613D54CA002F001FAAA
:1005200052A002F035FA49A002F073FA47A002F097
:10053000B1FA4BA002F0BFF900F08EFC0428FBD109
:1005400058E0C10601D4810613D540A002F0E9F9B4
:1005500049A002F01DFA3DA002F05BFA3BA002F0B8
:1005600099FA3FA002F0A7F900F076FC0428FBD12D
:1005700040E0410413D535A002F0D3F940A002F0C9
:1005800007FA32A002F045FA30A002F083FA34A054
:1005900002F091F900F060FC0428FBD12AE0C103CD
:1005A00013D52AA002F0BDF937A002F0F1F927A077
:1005B00002F02FFA25A002F06DFA29A002F07BF9D3
:1005C00000F04AFC0428FBD114E0400512D51FA01E
:1005D00002F0A7F92FA002F0DBF91CA002F019FA33
:1005E0001AA002F057FA1EA002F065F900F034FCE0
:1005F0000428FBD1AE6068880F2809D010280DD0E0
:10060000202885D10120C7F89C0105F091F8E7E684
:1006100008F0DCF9202001F03FF8E1E609F0B3FF33
:10062000DEE6000080969800140500205C0E002095
:100630006826002000002342000022424661696CC7
:1006400075726520466C61673D25780000000000EA
:10065000456D657267656E63792053746F70000035
:100660007072657373204F4B000000004F76657207
:100670005475726E000000004C6966740000000042
:100680006F757473696465006E6F207369676E615E
:100690006C0000004F7665722043757272656E744F
:1006A000000000007047FEE7FEE7FEE7FEE7704748
:1006B000704770472DE9F04FFF4ADFF800C411780A
:1006C000FF4D032300204FF0140A4FF0060E4FF0A9
:1006D00005094FF040244FF0040B042902D00129F2
:1006E00025D043E0B4F800188E06F54909780BD5FB
:1006F000B4F80468F34F7E54491CC9B2ACF800A0AA
:100700002970402908D031E0BCF8006046B1A6F15C
:100710000106ACF8006029E0287082F800E025E0CE
:1007200019B1287082F8009020E013701EE0DFF805
:100730009C83E54A98F80010575CB4F80028160628
:10074000E34A07D5A4F804781678761E1670491C7B
:1007500088F80010117849B9B4F80418D64A4FF453
:10076000C87182F800B0ACF800102870D94EDA4A8F
:10077000DA493578042D02D0012D22D043E0B4F8B7
:10078000005CAF06D54D2D780BD5B4F8044CD44F92
:100790007C55A2F800A06D1CEAB20A70402A05D070
:1007A00031E0148834B1641E14802CE0087086F89F
:1007B00000E028E01DB1087086F8009023E0337057
:1007C00021E0DFF82483C74EB4F8007C98F800508D
:1007D000765DDFF818C33F0609D5A4F8046C9CF8D1
:1007E0000060761E8CF800606D1C88F800509CF844
:1007F000005045B9B4F8044CB64D4FF4C87485F8B0
:1008000000B014800870BA4EBA4CBB493578BB4A68
:10081000042D03D0B146012D20D03DE01588AF0650
:10082000B54D2D780AD59288B54F7A556D1CEAB230
:10083000A4F800A00A70402A05D02DE0228832B129
:10084000521E228028E0087086F800E024E01DB1E6
:10085000087086F800901FE033701DE0DFF8A88272
:10086000A84E178898F80050765DDFF8A0C23F06C2
:1008700008D596809CF80060761E8CF800606D1C90
:1008800088F800509CF8005035B9928889F800B07B
:100890004FF4C872228008709D4DD5F820619D4CA0
:1008A000022701222178012E03D0D5F8206156B10C
:1008B00015E021B1012904D002290FD10FE02270E7
:1008C0000DE027700BE0022902D0032902D005E0D9
:1008D000237004E090490E68761C0E602070DFF8EB
:1008E0003CC2DCF818618E4C012E217803D0DCF874
:1008F000186156B115E021B1012904D002290FD1A8
:100900000FE022700DE027700BE0022902D00329CE
:1009100002D005E0237004E082490B685B1C0B6089
:100920002070814ED6F83041804B012C197803D0CD
:10093000D6F830413CB108E019B1012905D0187052
:1009400003E01A7001E0012910D0D5F80041784B7E
:10095000012C19780FD0D5F80021002A0FD10129D8
:100960000DD174490A68521C0A6007E072490C688C
:10097000641C0C60E3E721B1012900D01870BDE8C8
:10098000F08F1A70FBE710B501200AF066FB002813
:1009900011D06A48006848B96949002008600DF024
:1009A000F1FA6848816841F001018160BDE81040BA
:1009B00001200AF05FBB10BD10B502200AF04DFB0C
:1009C000002811D06048006848B95D4900200860DF
:1009D0000DF0D8FA5B48816841F002018160BDE802
:1009E000104002200AF046BB10BD10B504200AF0EA
:1009F00034FB002811D05548006848B95049002000
:100A000008600DF0BFFA4F48816841F00401816031
:100A1000BDE8104004200AF02DBB10BD10B5082021
:100A20000AF01BFB002811D04948006848B9444926
:100A3000002008600DF0A6FA4248816841F00801E4
:100A40008160BDE8104008200AF014BB10BD10B54D
:100A500010200AF002FB002811D03E48006848B977
:100A60003749002008600DF08DFA3648816841F062
:100A700040018160BDE8104010200AF0FBBA10BDB3
:100A800070B520200AF0E9FA2E4C334D70B133488E
:100A9000006840B90020C5F8BC010DF073FAA068E9
:100AA00040F08000A06020200AF0E4FA40200AF024
:100AB000D4FA174E54E00000290E0020260E002024
:100AC000250E0020E7240020A7250020240E00206A
:100AD000280E00202F0E00202C0E00202B0E0020B0
:100AE00027250020E72500202A0E00202E0E0020BA
:100AF000350E0020320E0020310E00200050004044
:100B00006725002027260020300E0020340E00200C
:100B100000002142500E0020400E00200000224222
:100B2000510E0020440E002000802242520E002070
:100B3000530E00204C0E0020480E002000012242DF
:100B4000BC01234214050020040121420801214276
:100B50000C012142100122420000234214012242D2
:100B600078B1D6F8180148B9D6F8180130B9D6F8D6
:100B70001C0118B9A06840F03000A06040200AF0C5
:100B800079FA80200AF069FA78B1D6F81C0148B9E0
:100B9000D6F8180130B9D6F81C0118B9A06840F091
:100BA0003000A06080200AF065FA4FF4807420467F
:100BB0000AF053FA20B1D5F8200120460AF05AFA7B
:100BC0004FF4007420460AF048FA002806D0D5F801
:100BD00024012046BDE870400AF04CBA70BD2DE9F2
:100BE000F0414FF4806528460AF037FA7B4C20B17B
:100BF000D4F8280128460AF03DFA4FF40068404630
:100C00000AF02BFA764F774D002668B1D7F82C0101
:100C100038B9C4F8BC610DF0B5F9A86840F480702B
:100C2000A86040460AF026FA4FF4805840460AF081
:100C300014FA68B1D7F8300138B9C4F8BC610DF0C6
:100C4000A1F9A86840F40070A86040460AF012FAC2
:100C50004FF4005738460AF000FA00280FD06248D7
:100C6000006838B9C4F8BC610DF08CF9A86840F48C
:100C70000050A8603846BDE8F0410AF0FBB9BDE875
:100C8000F0812DE9F041594E012130460BF0DDFA9B
:100C90000128F4D100F0CDFB002130460BF0D9F84B
:100CA000012130460BF0DDFA514C524D2078401CAA
:100CB000C0B22070296851F82000642806D14E4A3D
:100CC0001068401E106040D000202070207851F83D
:100CD0002000A8B1494FDFF82881B7FBF0F081B2BE
:100CE00040460BF088FA2178286850F82100B7FBBD
:100CF000F0F000EB4000C0F38F0140460BF081FAAA
:100D00002078401CC0B22070296851F8200042F2BF
:100D1000107148430DF017FB3A4A3B4B0DF026FB90
:100D20000DF0E4FA81B2002230460BF004F9002104
:100D300030460BF05EFA012130460BF092FA304655
:100D4000BDE8F04101210BF084B809F0F0F8BDE8EE
:100D5000F04100F0F2BA92E710B52C4C0121204688
:100D60000BF073FA01280ED1012120460BF079FA1D
:100D700027480168491C016026490888B0F57A7F38
:100D800002D2401C088010BD0020088007F0FEFE43
:100D90002149C8680028F6DD401EC86010BD70B546
:100DA0001E4D012128460BF050FA012815D11C4C8C
:100DB0002178491C217000F037FC20780C2806D9D6
:100DC000184800212170016028460BF042F828469F
:100DD000BDE8704001210BF044BA70BD0000234211
:100DE000000021421405002034812242000C004002
:100DF00010000020180000201400002000590001FD
:100E0000000400409A9999999999993F00100040DF
:100E1000EC0D0020F80D0020682600200014004092
:100E200000000020A401224210B50121042009F095
:100E3000BDFE0121202009F0B9FE482302224FF413
:100E40006041744808F046FB48230222BDE8104088
:100E50000B21714808F03EBB2DE9F05F6D4809F0A9
:100E6000C1FF00F460446C4809F0BCFF00F00B00C7
:100E700004434EF20B052C40684800F0E9FB684E35
:100E80000127707828B9777047F23051301D07F08C
:100E90003BFEAC4208D0072000F0D8FA6048001DA5
:100EA00007F03CFE092500E000255E48DFF878A148
:100EB0004FF0000BB0F8720028B15948001D07F040
:100EC00031FE70B909E0564886F800B0001D07F001
:100ED00029FE38B10A20BDE8F09FBAF800001028BA
:100EE00000D13770514FA4F540404FF47A780B3859
:100EF00002D1D7F8340150B13178DFF834914EF295
:100F0000090001290CD00FE0404600F0A1FBD7F802
:100F100034110029F8D0002000F098FA0620DAE712
:100F2000BAF80010202907D0A4F5604103392ED16A
:100F3000D9F80C0128B36BE0844215D1D9F804012B
:100F400018B111E0404600F083FBD9F804010028F5
:100F5000F8D03348001D07F0F5FD46F678118842B9
:100F600002DAD7F8340108B10720B4E786F800B0F8
:100F7000D7F834010028FBD00820ACE7404600F049
:100F800067FBD9F80C110029F8D0012540E0844214
:100F90000CD1D9F8040118B13AE0404600F058FBF2
:100FA000D9F804110029F8D0022531E0A4F56040F9
:100FB0000A380CD1D9F8000118B129E0404600F0F8
:100FC00047FBD9F800110029F8D0032520E0A4F54B
:100FD000C0400B380CD1D7F83C0118B118E040469E
:100FE00000F036FBD7F83C110029F8D004250FE0BB
:100FF000A4F520400B380BD1D7F8380118B107E021
:10100000404600F025FBD7F838110029F8D0052517
:10101000284660E70008014000140140F049020042
:1010200004000020CC1E00201405002000002142F6
:101030000080224210B5102302220321AB4808F0A1
:1010400049FA1023BDE8104002224FF47C71A848F1
:1010500008F040BAA74910B5002008604FF014000E
:1010600000F0F6FA002010BD70B50446FFF7F2FF5D
:10107000002823D19F4D012068604FF00006AE602C
:1010800028609D484FEAD41101604FEA94114160F5
:101090004FEA541181604FEA1411C1604FEAD40144
:1010A00001614FEA9401416194484FEA54010160A3
:1010B00044604FF0140000F0CBFA2E6070BD70B5A4
:1010C0000446FFF7C7FF002823D18A4D00266E6033
:1010D000AE604FF00100286087484FEAD4110160EC
:1010E0004FEA941141604FEA541181604FEA1411A4
:1010F000C1604FEAD40101614FEA940141617F4828
:101100004FEA5401016044604FF0140000F0A0FA6F
:101110002E6070BD00F0070040F0B800CFE700F08F
:101120003F0040F04000CAE700F03F0040F0C00040
:10113000C5E740F03E00C2E710B501240021704A27
:10114000704B012808D002280BD0032803D1C2F825
:101150008C11C3F89C1110BDC2F88C11C3F89C41CE
:1011600010BDC3F89C11C2F88C4110BD70B5FFF7DB
:10117000E3FF00252846FFF7CDFF00240020FFF7FE
:1011800073FF0020FFF770FF641CE4B2402CF5D31E
:101190006D1CEDB2082DEDD370BD70B5002501209A
:1011A000FFF7CAFF2846FFF7B5FF0020FFF7B7FF9C
:1011B00000240020FFF758FF641CE4B2402CF8D351
:1011C0000220FFF7B9FF2846FFF7A4FF0020FFF732
:1011D000A6FF00240020FFF747FF641CE4B2402C68
:1011E000F8D36D1CEDB2082DD9D370BD2DE9F047B1
:1011F000454F10B1012800D1444F0125002445F08E
:10120000B80601E0402C0DD20120FFF795FF04F154
:101210004001304601F0FF0904EBC518FFF74FFF0E
:10122000484608E00220FFF787FF304604EBC51868
:10123000FFF745FF2046FFF742FF17F80800FFF7CA
:1012400013FF641CE4B2802CDCD36D1CEDB2072DBF
:10125000D4D3BDE8F08710B50120FFF76DFF012062
:10126000FFF767FF142000F0F3F90020FFF75CFFA1
:101270000220FFF761FF0120FFF75BFF142000F061
:10128000E7F90020FFF750FFFFF787FFBDE81040A8
:10129000142000F0DDB910B50121082009F086FC0A
:1012A0000121102009F082FC0121202009F07EFCA0
:1012B0000121402009F07AFC10230222F021144879
:1012C00008F008F9102302220821094808F002F961
:1012D0001023022280210F4808F0FCF8FFF7AAFE35
:1012E0000448002101608160416010BD0018014088
:1012F000000C0140908122429081214280012342D2
:1013000000802142008022423E07002088200020E9
:10131000001401400010014010B50121112009F016
:1013200045FC0121022009F04AFC18230222BDE8F5
:101330001040D101A04808F0CDB810B5012110200F
:1013400009F034FC02221023D1019B4808F0C2F8B6
:101350009A490020086010BD3EB50121082009F01F
:101360002EFC974C20460AF045FA964842F210713E
:101370000068B0FBF1F1ADF8041040F2CF70ADF8A9
:1013800000000021ADF80610ADF8021069462046B5
:101390000AF0C8FA012120460AF006FE0122114691
:1013A00020460AF06BFD012120460AF05AFF012376
:1013B0000F220021322008F0A5F83EBD30B587B0DD
:1013C000FFF7AAFF804D28460AF014FA41F2707028
:1013D000ADF814007B487D4900240068ADF8164044
:1013E000B0FBF1F1491EADF81010ADF8124004A9A0
:1013F00028460AF097FA6020ADF800000120ADF809
:101400000200ADF80640ADF80840694628460AF0EB
:1014100031FB082128460AF0FCFD012128460AF08C
:10142000C3FD012128460AF014FDFFF795FF07B020
:1014300030BD10B5644C41F2707120460AF0DBFEFD
:101440002046BDE8104000210AF0DBBE2DE9F04146
:1014500005465F48B0F86E00012819D05D4C15B103
:101460006068012814D8FFF7A9FFFFF7E2FF544F87
:10147000002138460AF0EDFC002625B1C5F30F2007
:10148000606038B108E008F052FDFFF756FF666073
:10149000BDE8F081012060604E49E8B284312670D9
:1014A0001D2823D2DFE800F0220F1216191C1F227C
:1014B000222261646722226A6D6F72222275787B14
:1014C000227E8083850043480C3001E04148203073
:1014D000A0600DE03F483430FAE73E484830F7E777
:1014E0003C485C30F4E73B487030F1E70846A160C7
:1014F0000068A0B1384D344EB5FBF0F081B23046F3
:101500000AF079FE2178A06850F82100B5FBF0F0D0
:1015100000EB4000C0F38F0130460AF072FE2078E5
:10152000401CC0B22070A16851F8200042F2107136
:1015300048430CF008FF294A294B0CF017FF0CF028
:10154000D5FE0446002138460AF053FE0022A1B21F
:1015500038460AF0F0FC012138460AF082FE38468F
:10156000BDE8F04101210AF074BC1A489830AFE799
:101570001848B430ACE71748D030A9E71548EC302C
:10158000A6E71848A4E717482430A1E715484830D3
:101590009EE714486C309BE71248A83098E7114842
:1015A000EC3095E7104893E70F48843090E70F48F8
:1015B0008EE70E48F4308BE700100140A001224274
:1015C000000C0040681E00200004004000366E0140
:1015D000CC1E002010000020005900019A99999912
:1015E0009999993F2001002050020020B00300206B
:1015F00010B50121102009F0D9FA0222102311029E
:101600000E4807F067FF0121202009F0CFFA0222DF
:101610001023D1010A4807F05DFF0A490020086045
:101620000949C1F8A00110BD0849D1F8A40118B1B9
:101630000020C1F8A40170470120FAE70010014022
:1016400000140140A40122420080224200002242F4
:1016500000E0401E0028FCD170471CB501466846DA
:1016600007F052FA684607F05DFA0028FAD01CBD70
:10167000FF4910F02F0F0880FE4903D00120C1F868
:101680009001704710F0500FFBD00020C1F890017E
:101690000122014608F04DB8F5494880704710B561
:1016A0000446FEF71BFEF249F34B00228888C880EF
:1016B0008C80F04974B10120012C21D0022C1FD064
:1016C000042C0CD0082C11D0102C19D0B4F5004FDC
:1016D00002D011E0C1F88C21C1F8BC210AE0C1F8A8
:1016E0008C01C1F8BC21C3F8840105E0C1F88C016C
:1016F000C1F8BC01C3F88421BDE81040FEF7F0BD7D
:10170000C1F88C01E8E701207047D94810B58088FE
:1017100002280ED004280CD008280ED11020FFF784
:10172000BEFFD348BDE810404FF47A71083807F087
:10173000EBB9BDE810400120B1E710BD2DE9FC5F19
:10174000CB4900263746888834463546012807D0DD
:1017500002280FD08A46042817D008287ED011E02E
:101760000220FFF79CFFC24840F6B831083807F066
:10177000CBF907E0BE48083807F0D4F910B10420CF
:10178000FFF78DFF0020BDE8FC9FBC494FF0000B28
:10179000C1F800B04FF001025946584607F0C9FFA2
:1017A0006421684607F0B0F90820FFF778FFDFF8FA
:1017B000D082684607F0B6F990B3684607F0AEF9F4
:1017C00008F0EAFB814608F0EEFBA9EB0601C21B1C
:1017D00089B2A8F8101092B20746A8F812204E4617
:1017E000A8A001F09EF82146ABA001F0D1F829464F
:1017F000ACA001F00EF9AEA001F04CF9B8F8100061
:10180000032803D3B8F81210032902D26D1C6DB25D
:1018100007E00F2805D90F2903D9641E64B20025FB
:1018200017E04B2D15DD641C002564B20A2C12DC78
:101830000120FFF734FF9FA001F03DF804F092F97A
:10184000A048401EFDD19AA001F035F80820FFF70E
:1018500026FF0A2C0DDDDAF8081000E014E041F450
:101860008061CAF808108549C1F800B04FF0020045
:1018700089E714F10F0F07DBDAF8080010F4407F56
:1018800097D07E49C1F800B001207CE71CB57848AC
:101890008068E8B310F4407F0ED000210122084692
:1018A00007F047FF6421684607F02EF9684607F005
:1018B00039F90028FAD010E010F0C00F0FD0002145
:1018C0000122084607F035FF6421684607F01CF93D
:1018D000684607F027F90028FAD005201CBD10F053
:1018E000300F20D06548002101604FF0010208460A
:1018F00007F01FFFC821684607F006F972A000F044
:10190000DAFF684607F00EF90028FAD0704800E0C8
:1019100009E0D0F8181111B9D0F81C0108B1022063
:101920001CBD01201CBD00201CBD70B56949544D73
:10193000404201EBC0241A350020A8670AF0ADFC34
:10194000B4F900002880A96F0844A86761886980FD
:101950000844A867A18829810844A867E1886981AB
:101960000844A8672189A5F86C100144A96760891B
:10197000A5F86E000844A867A189A5F87010014475
:10198000A967E089A5F872000144A967228AAA81A3
:1019900011441220A967002105EB4103225ADA8184
:1019A000AB6F491C801C1A44C9B2AA670729F3D33C
:1019B000002105EB4103225A9A83AB6F491C801C1E
:1019C0001A44C9B2AA670729F3D321586960001DD8
:1019D0001144A9672258001D11446A66A96722585C
:1019E000AA661144001DA967002105EB8103225856
:1019F000DA62AB6F491C001D1A44C9B2AA670729F5
:101A0000F3D3002105EB810322589A64AB6F491C84
:101A1000001D1A44C9B2AA670729F3D32158001D33
:101A20000A44C5E91D122058904202D041F00044FA
:101A300001E021F000440AF03CFC204670BD2DE995
:101A4000F04124490E4D404201EBC0241A350020DC
:101A5000A8670AF022FC20460AF059FC2988204693
:101A60000AF013FDB5F90010A86F0844A86733E029
:101A7000140500200000234200802142BC012342C3
:101A8000B21E00207370656564313D25642073705B
:101A9000656564323D2564006F632074696D65730C
:101AA0003D2564006F6320636F756E743D2564008F
:101AB000000000006F7665722063757272656E7447
:101AC0000000000080F0FA026C69667400000000FB
:101AD00000002142000004086988A01C0AF0D5FC1F
:101AE0006988A86F0844A8672989201D0AF0CDFCE1
:101AF0002989A86F0844A8676989A01D0AF0C5FC58
:101B00006989A86F0844A867B5F86C1004F108004B
:101B10000AF0BBFCB5F86C10A86F0844A867B5F8CC
:101B20006E1004F10A000AF0B0FCB5F86E10A86F50
:101B30000844A867B5F8701004F10C000AF0A5FC81
:101B4000B5F87010A86F0844A867B5F8721004F1D2
:101B50000E000AF09AFCB5F87210A86F0844A86746
:101B6000A98904F110000AF090FCA989A86F122637
:101B700008440027A86705EB4708A019B8F80E101D
:101B80000AF083FCB8F80E00A96F7F1CB61C08444D
:101B9000FFB2A867072FEED3002705EB4708A0196F
:101BA000B8F81C100AF071FCB8F81C00A96F7F1C73
:101BB000B61C0844FFB2A867072FEED3A0196968C6
:101BC0000AF043FC6968A86F361D0844A867A0198D
:101BD000696E0AF03AFC696EA86F361D0844A86762
:101BE000A019A96E0AF031FCA96EA86F361D084431
:101BF0000027A86705EB8708A019D8F82C100AF071
:101C000024FCA96FD8F82C007F1C361D0844FFB2B5
:101C1000A867072FEED3002705EB8708A019D8F88F
:101C200048100AF012FCA96FD8F848007F1C361D36
:101C30000844FFB2A867072FEED3A019696F0AF016
:101C400004FCD5E91D100144361DA019A9670AF04E
:101C5000FCFBBDE8F0410AF02CBB10B50021FF48A9
:101C6000192241800281418101228181C2818283C6
:101C7000D304C36283644366F94B8366A0F86C2087
:101C8000A0F86E10A0F87020A0F8721041671046FE
:101C9000FFF7D5FEBDE810400220D0E670B5002465
:101CA0000120FFF742FE05460220FFF73EFE55EAFF
:101CB000000107D425F0004120F00040814205D802
:101CC00016D326E0002D11DB002822DA0120FFF7D1
:101CD0002CFE0220FFF7B3FE0220FFF726FE0028AD
:101CE00017DA0120FFF721FE022412E000280FDBA3
:101CF0000220FFF71AFE0120FFF7A1FE0120FFF7E7
:101D000014FE002805DA0220FFF70FFE012400E090
:101D10000324204670BDD14910B5D24A486F904285
:101D200001D2401C00E0002048670120FFF787FE39
:101D30000220FFF784FEBDE81040AFE710B5CA4CA3
:101D4000217800290DD10246C84B3221012008F02C
:101D50002EFBC74900200870C649082008700120E2
:101D6000207010BD70B5C04C00252178032903D028
:101D7000052905D0002070BDBFA000F09CFD10E03B
:101D80000246C24B3221012008F024FB20B107F0AB
:101D9000EFFE2570012070BDBDA000F08CFD07F0A6
:101DA000E7FE2570022070BD10B5AF4C21780029E8
:101DB0000DD10246AD4B3B21012008F0F8FAAC49A9
:101DC00000200870AB49082008700120207010BD69
:101DD00070B5A54C00252178032903D0052905D02D
:101DE000002070BDB0A000F066FD10E00246A74BD9
:101DF0003B21012008F0EEFA20B107F0B9FE257072
:101E0000012070BDADA000F056FD07F0B1FE2570B9
:101E1000022070BD10B5944C207800280DD1934B52
:101E20000A223321012008F08EFA9149002008701F
:101E30009049082008700120207010BD70B58A4DAF
:101E400000242878032803D0052804D0002070BD82
:101E50002C70022070BD8D4A0A21012008F085FAFD
:101E6000F0B38A49B1F80300020A42EA00227B4833
:101E700050384280B1F80520130A43EA0222028456
:101E8000B1F807204FEA122343EA02228285B1F813
:101E900009204FEA122343EA0222C284B1F80B2040
:101EA0004FEA122343EA02228284B1F80D204FEA5E
:101EB000122343EA02224284B1F80F204FEA122390
:101EC00043EA022212B20285130404D5C2F30E02C1
:101ED000C2F100020285B1F811204FEA122300E09E
:101EE00012E043EA022212B24285130403D5C2F380
:101EF0000E0252424285897D01F00101C18507F041
:101F000037FE2C70012070BD07F032FEA0E710B53F
:101F1000704C207800280DD16F4B07221A21012028
:101F200008F011FA6D49002008706D49082008700A
:101F30000120207010BD70B5664D0024287803285C
:101F400003D0052804D0002070BD2C70022070BD85
:101F5000644A0721012008F008FAC0B36149B1F8CA
:101F60000300020A42EA00223C4850388280B1F85D
:101F70000520130A43EA02220281B1F80720130A5E
:101F800043EA02224281B1F80920130A43EA0222FD
:101F90008281B1F80B20130A43EA0222C281B1F810
:101FA0000D20130A43EA02220282097CC1F3400297
:101FB000C274C1F380028274C1F3C002027501F0E1
:101FC0000101417507F0DDFD2C70012070BDFFE7B8
:101FD00007F0D7FDB9E710B5434C207800280DD1A4
:101FE000424B07220121022008F0ADF940490020B0
:101FF00008704049082008700120207010BD70B59D
:10200000394D00242878032803D0052804D0002067
:10201000DCE72C700220D9E7374A0721022008F0BC
:10202000A4F9D0B134480123B0F803100A0A42EAF7
:1020300001220A495039CA80B0F80720160A46EA38
:102040000222322A00D20023B0F80520160A46EAFE
:10205000022203EB4202CA8250E06AE0CC1E00205A
:102060000000090140420F00290E0020A725002092
:10207000240E0020280E00206865617274204163E0
:102080006B2054696D65204F75740000E7240020B3
:1020900068656172742041636B20636865636B20BF
:1020A0006661696C65640000436861726765204120
:1020B000636B2054696D65204F75740043686172CD
:1020C00067652041636B20636865636B20666169A7
:1020D0006C6564002F0E0020E72500202A0E0020EA
:1020E0002E0E002027250020350E00202726002058
:1020F000300E0020340E002067250020B0F80920A3
:10210000130A43EA02220A83B0F80B20130A43EAB7
:1021100002224A83B0F80D20130A43EA02228A837E
:10212000007C00F00100887707F035FD2C7001205D
:102130004CE707F030FD6CE72DE9F041494D0646CC
:102140000F0004D0FFF747FFFFF7E1FE02E0022097
:1021500028806880FFF75EFE0024FFB1FFF74FFF85
:10216000E880022802D0012802D007E06C8005E058
:10217000B5F90200022801DA401C6880FFF7DBFE97
:10218000E880022802D0012802D007E02C8005E078
:10219000B5F90000022801DA401C2880FFF74EFE46
:1021A000E88028B1B5F90810062901DA491C29810F
:1021B000022802D0012802D007E0AC8005E0B5F982
:1021C0000400022801DA401CA8806888022805D192
:1021D0002888022802D1A888022803D02889062846
:1021E00007D02EE02C806C80AC802C810120BDE8D3
:1021F000F081304606F096FC18B31A48B5F9001085
:102200001430022903DAC16841F40021C160B5F934
:102210000210022903DAC16841F48021C160B5F9D6
:102220000410022903DAC16841F40031C1602C8036
:102230006C80AC802C814FF40040FFF730FA022014
:10224000D5E70020D3E7401A00B2B0F5B47F02DB37
:10225000A0F5347000B210F5B47F02DC00F53470E4
:1022600000B27047000500207CB5F9A4D4E9005401
:10227000CDE90054441E7F2C21D800291FD04029CD
:102280001DD8401EC5B2481EC61700EB567626F074
:102290000706801BC6B2881B401EC11700EB517099
:1022A000C0106C4605EBC010C6F10701002A1A5C8D
:1022B000615C02EA010201D062EA01021A547CBDAB
:1022C0002DE9F04F8146DDE909B0DFF88C830F4638
:1022D00092469C4618B1012801D1DFF88083002581
:1022E00010E0002409EB050608E03819C1B2F0B28D
:1022F00043465A46FFF7B8FF641CE4B26445F4D382
:102300006D1CEDB25545ECD3BDE8F08F1CB5D0A3E4
:10231000401ED3E90043CDE900437F2817D80029A8
:1023200015D0402913D8C3B2491EC81701EB50700D
:1023300020F00704091BC9B2C010C1F1070103EB6B
:10234000C0101DF80110135CC9434B4013541CBD51
:102350002DE9F0478146DFF8008308980F46924642
:102360009C4618B1012801D1DFF8F08200250FE06A
:10237000002409EB050607E03819C1B2F0B2424665
:10238000FFF7C4FF641CE4B26445F5D36D1CEDB2E5
:102390005545EDD3BDE8F0872DE9FF4F8A46ACA146
:1023A00082B0D1E900410F98CDE90041DFF8A8B231
:1023B00018B1012801D1DFF8A4B2002B21D1203AB5
:1023C000DFF89C8202EB82090025EC46029800248B
:1023D00009EB05064719C4F1070018F806201CF898
:1023E00000005B4682430AEB0400C1B2F8B2FFF77B
:1023F0003BFF641CE4B2082CEDD36D1CEDB2052D3F
:10240000E4D306B080E72DE9FC47824690A08C46D5
:10241000D0E90010CDE90010DFF83C9290461BB1E6
:10242000012B01D1DFF8349200256F4600240AEB1E
:102430000506C4F1070018F80520385C4B468243B6
:102440000CEB0400C1B2F0B2FFF70EFF641CE4B263
:10245000082CEED36D1CEDB2082DE7D3BDE8FC8748
:102460002DE9F8470546DDE9098A894616461F46E3
:10247000B8F1000F10D100240CE004EB8400CDF87B
:1024800000A02844325DC0B243464946FFF784FFAE
:10249000641CE4B2BC42F0D3BDE8F8872DE9F047F4
:1024A0006D4D012807D0022828D0032825D1002609
:1024B0003446B82747E000263446B82701E0402CD0
:1024C00007D20120FEF738FE04F14001F8B2C9B28C
:1024D00004E00220FEF730FEF8B2E1B2884604EBD9
:1024E000C619FEF7ECFD4046FEF7E9FD15F80900B8
:1024F000FEF7BAFD641C802CE1D34BE707260024CD
:10250000BF2701E0402C07D20120FEF715FE04F1A1
:102510004001F8B2C9B204E00220FEF70DFEF8B2A5
:10252000E1B2884604EBC619FEF7C9FD4046FEF746
:10253000C6FD15F80900FEF797FD641C802CE1D359
:1025400028E7402C07D20120FEF7F6FD04F14001F8
:10255000F8B2C9B204E00220FEF7EEFDF8B2E1B233
:10256000884604EBC619FEF7AAFD4046FEF7A7FD14
:1025700015F80900FEF778FD641C802CE1D30726CE
:102580000024BF2701E0402C11D20120FEF7D4FD2A
:1025900004F14001F8B201F0FF0904EBC618FEF7A0
:1025A0008EFD4846FEF78BFD15F808000EE0022070
:1025B000FEF7C2FDF8B204F0FF0804EBC619FEF7FF
:1025C0007EFD4046FEF77BFD15F80900FEF74CFD49
:1025D000641C802CD7D3DDE610B522A198B091E819
:1025E0001C00C968CDE90023CDE9024121A10528DD
:1025F00091E81C00C968CDE90423CDE9064121A179
:1026000091E81C00C968CDE90823CDE90A4121A160
:1026100091E81C00C968CDE90C23CDE90E4121A148
:1026200091E81C00C968CDE91023CDE9124121A130
:1026300091E81C00C968CDE91423CDE9164157D2B1
:10264000DFE800F003405052540004AA3BE00000D1
:102650007FBFDFEFF7FBFDFE3E0700208820002054
:102660005E050020FF818181C3A59999A5C3818161
:102670008181E73CFF8181818181818181818181AB
:102680008181E73CFF81BDBD818181818181818123
:102690008181E73CFF81BDBD81BDBD81818181819B
:1026A0008181E73CFF81BDBD81BDBD81BDBD818113
:1026B0008181E73CFF81BDBD81BDBD81BDBD81BDC7
:1026C000BD81E73C08AA02F10804002301210C2087
:1026D000FFF799FE0023224601211420FFF793FE05
:1026E00018B010BD0CAAEEE710AAECE714AAEAE7AE
:1026F0006A46E8E70FB5FCA14FF00003D1E90021DD
:10270000CDE90021FAA1D1E90021CDE9022128B1CA
:1027100002AA01211F20FFF776FE0FBD6A46F8E7E7
:102720000CB5F5A14FF00003D1E90021CDE900215E
:1027300008B16A4600E0F24A01212920FFF763FE52
:102740000CBD0CB5EFA14FF00003D1E90021CDE99C
:10275000002108B16A4600E0E94A01213320FFF771
:1027600052FE0CBD0FB5E9A14FF00003D1E90021E5
:10277000CDE90021E7A1D1E90021CDE9022108B18D
:102780006A4600E002AA01213D20FFF73CFE0FBD92
:102790000FB5E2A14FF00003D1E90021CDE90021FE
:1027A000E0A1D1E90021CDE9022108B16A4600E0AB
:1027B00002AA01214720FFF726FE0FBD10B58AB0FF
:1027C000044608A902A806F04DFAD8489DF80B3037
:1027D0009DF80A200078CDE900239DF809309DF886
:1027E0000820C00701D0D2A100E0D4A104A80AF0BB
:1027F0007FF804A80AF0ECF90023CDE90033C1B258
:102800000B4604AA01215C20FFF72AFE40F6B831EE
:1028100006A806F079F9012106A8FFF78DFC012C26
:1028200006D0042C02D10120FFF738FE0AB010BDFB
:10283000C54C208C28B148F2D041884203D20020F8
:1028400014E0FF2012E048F6A041884201D20120A6
:102850000CE049F27041884201D2022006E049F6BC
:102860004041884201D2032000E00420FFF7B4FE7B
:10287000607DFFF73FFF06F00AFDB4480068401C8A
:1028800003D1B3480068401C00D00120FFF748FF87
:10289000B0480078012800D00020FFF752FFAE4C6E
:1028A0002088C0B2FFF75EFF6188012001B10020DF
:1028B000FFF76EFFB7E70FB4A8481CB505AA049947
:1028C0000AF004F8A5480AF083F90023CDE90033A3
:1028D0001A4604461A23A2A239210120FFF7C0FD9F
:1028E0004FF00003192C1A4606D9CDE9002319230D
:1028F00039219A4A01200CE0C4F1190000EB800054
:10290000012101EB5000CDE90023C0B2E3B2934AAC
:102910003921FFF7A5FD0220FFF7C0FD1CBC5DF8C3
:1029200014FB0FB48D481CB505AA4030049909F07A
:10293000CDFF8A4840300AF04BF90023CDE900333F
:1029400004460A2380220D210120FFF7B9FC4FF035
:102950000003192C1A4607D9CDE900237F4A192311
:1029600040320E2101200DE0C4F1190000EB80007F
:102970000121CDE9002301EB5000784AC0B2E3B257
:1029800040320E21FFF76CFD0020FEF72FFCC5E75B
:102990000FB472481CB505AA8030049909F096FF5F
:1029A0006E4880300AF014F90023CDE90033044664
:1029B0000A23802217210120FFF782FC0023CDE9A2
:1029C00000331A461A2366A218210120FFF748FD9A
:1029D0004FF00003192C1A4607D9CDE900235F4AAE
:1029E00019238032182101200DE0C4F1190000EBF9
:1029F00080000121CDE9002301EB5000574AC0B20D
:102A0000E3B280321821FFF72BFD0020FEF7EEFB2A
:102A100084E70FB451481CB505AAC030049909F0E9
:102A200055FF4E48C0300AF0D3F80023CDE90033FB
:102A300004460A23802221210120FFF741FC0023C4
:102A4000CDE900331A461A2345A222210120FFF7BF
:102A500007FD4FF00003192C1A4607D9CDE90023D2
:102A60003E4A1923C032222101200DE0C4F1190091
:102A700000EB80000121CDE9002301EB5000374A33
:102A8000C0B2E3B2C0322221FFF7EAFC0020FEF719
:102A9000ADFB43E70FB439481CB505AA049909F00A
:102AA00015FF36480AF094F80023CDE900330446B8
:102AB0000A2380222B210120FFF702FC0023CDE90D
:102AC00000331A461A2326A22C210120FFF7C8FC46
:102AD0004FF00003192C1A4652D9CDE900231923CF
:102AE0002C21264A012058E08142249898244281D2
:102AF000020A2AAAAA2A0A023B47829A9292473BD2
:102B00005605002000F88EA9898EF800000091007B
:102B1000910091000040A510A508A5023C24244284
:102B200081FF2A2ABC64245289FF0201F00D002093
:102B3000256425643A256425640000002564256425
:102B400020256425640000007C1E0020000E00206B
:102B5000040E002004000020381F0020481F002021
:102B60002020202020202020202020202020202065
:102B7000202020202020202020200000482000208D
:102B8000C4F1190000EB8000012101EB5000CDE9F8
:102B90000023C0B2E3B2F84A2C21FFF761FC002009
:102BA000FEF724FBBAE600B59FB04822F34902A81D
:102BB0000AF02DF814A91CA806F054F89DF851301D
:102BC0009DF85020CDE900239DF854009DF8551044
:102BD00000EB800001EB40039DF852009DF853107C
:102BE00000EB800001EB400000EB400002A901EB8C
:102BF0004002921FE2A116A809F07AFE16A9E3A0EE
:102C0000FFF759FE1FB000BD2DE9FF47E24801273D
:102C1000B0F8701009B9A0F87070B0F870104EF6E6
:102C20006020414302A805F06FFFDC4DDFF8709390
:102C3000DFF870A34FF0050800260120FFF7BEFD66
:102C40000023CDE90033282380220D210120FFF746
:102C500037FB287830B1012843D002287DD00328E3
:102C60007CD1E9E06F71D04809F0B2FF0023CDE9D3
:102C700000331A46C0B20346CB4A0E210820FFF7A4
:102C8000EFFB0023009328780A2300EBC00101EB3F
:102C900000100830C0B219220D21FFF759FBC248BD
:102CA000183009F095FF00231A46CDE90033C0B271
:102CB000BD4A0346183218210820FFF7D1FBBA4855
:102CC0003030044609F084FF0023CDE90033C0B260
:102CD0000346224622210820FFF7C2FBB2481830E3
:102CE00041E002206871B04809F072FF0023CDE98D
:102CF00000331A46C0B20346AB4A0E210820FFF744
:102D0000AFFB0023009328780A2300EBC00101EBFE
:102D100000100830C0B219220D21FFF719FBA2489C
:102D2000603009F055FF00231A46CDE90033C0B2E8
:102D30009D4A0346603218210820FFF791FB9A480C
:102D40007830044609F044FF0023CDE90033C0B2D7
:102D5000034622212246082001E02DE011E0FFF782
:102D60007FFB914860303030044609F031FF00238A
:102D7000CDE90033C0B2034622462C210820FFF7DC
:102D80006FFB0020FEF732FAFEF766F8040006D06B
:102D9000072C04D00A2C02D002A805F0BFFE02A81E
:102DA00005F0C0FE00B10624082C7ED2DFE804F056
:102DB000948C8F838A838583032068717A4809F015
:102DC00007FF0023CDE900331A46C0B20346764A16
:102DD0000E210820FFF744FB0023009328780A23E4
:102DE00000EBC00101EB00100830C0B21E220D2123
:102DF000FFF7AEFA6C48C03009F0EAFE00231A462D
:102E0000CDE90033C0B2684A0346C0321821082019
:102E1000FFF726FB6448D830044609F0D9FE0023AA
:102E2000CDE90033C0B20346224622210820FFF735
:102E300017FB5D48C03096E7042068715A4809F0D6
:102E4000C7FE0023CDE900331A46C0B20346564AF6
:102E50000E210820FFF704FB0023009328780A23A3
:102E600000EBC00101EB00100D30C0B219220D21A2
:102E7000FFF76EFA4D4809F0ABFE0023CDE90033B1
:102E80001A46C0B20346494A18210820FFF7E8FA5B
:102E900046481830044609F09BFE0023CDE9003374
:102EA000C0B203462246222100E015E00820FFF7C9
:102EB000D7FA3E4857E72E700EE085F805801020BF
:102EC000FEF7EAFBBDE8FF872878C01C01E0287800
:102ED000401C00F003002870FEF715FC02280BD000
:102EE000072C0CD0D9F80800C2070AD020F0010046
:102EF000C9F808002EA00BE085F80580E2E730A0B5
:102F000006E0820707D520F00200C9F8080030A0CB
:102F1000FFF7D1FC91E6420705D520F00400C9F87F
:102F200008002FA0F4E7020705D520F00800C9F833
:102F300008002FA0ECE7C20605D520F01000C9F864
:102F400008002FA0E4E7820605D520F02000C9F88C
:102F5000080030A0DCE7420605D520F04000C9F8A3
:102F6000080031A0D4E702066ED520F08000C9F831
:102F7000080031A0CCE767E04820002040E80008C6
:102F8000257325642C323025642564005941542072
:102F90002020202573000000CC1E002050050020BA
:102FA00014050020682600203E0B00205E0C002047
:102FB0005359535F4556454E545F46435F4E4F004D
:102FC0006B6579626F617264206C6F636B6564001E
:102FD0005359535F4556454E545F46435F4E430039
:102FE0005359535F4556454E545F42435F4E4F0021
:102FF0005359535F4556454E545F42435F4E43001D
:103000005359535F4556454E545F4C4946545F4EA5
:103010004F0000005359535F4556454E545F4C498D
:1030200046545F4E430000005359535F4556454E8A
:10303000545F4F545F4E4F005359535F4556454EB2
:10304000545F4F545F4E4300C20505D520F4807095
:10305000C9F80800FAA05BE7820505D520F40070E6
:10306000C9F80800FAA053E7420505D520F48060AE
:10307000C9F80800FAA04BE7020505D520F4006066
:10308000C9F80800FAA043E7C20405D520F480502F
:10309000C9F80800FAA03BE7820405D520F40050E7
:1030A000C9F80800FAA033E7DAF81C0080B101285B
:1030B00008D0022808D0032808D004287FF42AAFBB
:1030C000F9A025E7FCA023E7FDA021E7FFA01FE76B
:1030D000FFF769FDB1E52DE9F04F89B01822FF49EE
:1030E00002A809F094FDDFF8F8A34FF003084FF0B1
:1030F000170B4FF00009AAF206670120FFF75EFBED
:1031000079780023B1FBF8F5CDE90033282380223C
:103110000D210120FFF7D4F802A809F059FD002382
:10312000CDE90033C0B2034602AA0E210320FFF707
:1031300097F905EBC5010AEBC104204609F048FDEB
:103140000023CDE90033C0B20346224618210820EF
:10315000FFF786F905EB4506701C03280ED204F133
:103160001805284609F034FD0023CDE90033C0B22C
:1031700003462A4622210820FFF772F9B61C032EC7
:103180000DD23034204609F023FD0023CDE9003371
:10319000C0B2034622462C210820FFF761F9797856
:1031A0000023B1FBF8F208FB121000EB8001009342
:1031B0000BEB41010A2380220120FFF7C9F8002010
:1031C000FEF714F8FDF748FE0B2832D2DFE800F0D6
:1031D00031232934062C31343131340078780521FB
:1031E00040B101280CD0022801D10620787109B025
:1031F000BDE8F08F797102F03EFC0021012004E06F
:10320000797102F038FC0021022005F051FB0F20FB
:10321000FEF742FAEBE7787808B1401E08E002209A
:1032200006E07878022802D387F8019001E0401C7C
:103230007870FEF768FA60E787F80590D7E72DE920
:10324000FC47002402F024FCA64E054606F29E78B8
:103250004FF017094FF0010A0120FFF7AFFA0023E2
:10326000CDE90033282380220D210120FFF728F823
:1032700005EB450108EBC107384609F0A9FC00231E
:10328000CDE90033C0B203463A460E210320FFF7D2
:10329000E7F80023CDE900331A460D2392A2182146
:1032A0000820FFF7DDF80023CDE900331A460D238F
:1032B00091A222210820FFF7D3F804EB8401002318
:1032C00009EB4100C1B200930A2380220120FFF7DD
:1032D0003FF80020FDF78AFFFDF7BEFD0B2827D23F
:1032E000DFE800F0261E221A0623261A26261A00D8
:1032F000012C06D08448006838B184A0FFF7DBFABF
:1033000016E0002502F0B7FB12E08DB105207071C8
:10331000BDE8FC4707F088B886F805A0BDE8FC8743
:103320002CB1641EE4B203E00CB1002400E00124DF
:10333000FEF7E9F990E72DE9F04F834679A089B0CF
:10334000D0E9001280680291CDE903207848002579
:10335000784910F80B9078480BEB8B0800EB4B0288
:1033600000EB8B00CDE90520744A01EB0B102F46D2
:103370002E46AA4608EB020407900420FFF71EFA27
:103380000023CDE90033282380220D210120FEF700
:1033900097FF079809F01CFC0023CDE900331A467B
:1033A000C0B203460E210320079AFFF759F8002305
:1033B000CDE900331A46082361A218211846FFF709
:1033C0004FF84FF00003CDE90033B9F1000F1A4672
:1033D00035D002235DA218215020FFF741F80023C9
:1033E000CDE900331A460A2359A222210820FFF70B
:1033F00037F80023CDE900335048012310F80810B6
:1034000002A80A1822215020FFF72AF80023CDE94C
:103410000033617802A80A18012322215720FFF700
:103420001FF80023CDE900331A4601234BA22221C5
:103430005E20FFF715F80023CDE9003390E0ADE002
:103440005359535F4556454E545F454D5F4E4F00AF
:103450005359535F4556454E545F454D5F4E4300AB
:103460005359535F4556454E545F4F435F4D4D0092
:103470005359535F4556454E545F4F435F4C4D0083
:103480005359535F4556454E545F4F435F524D006D
:10349000205359535F4556454E545F4F4E5F53542A
:1034A0004154494F4E000000426F617264205465E0
:1034B0006D204F75740000005261696E00000000BD
:1034C000566F6C74616765204C6F7700426174744D
:1034D0006572792054656D204F75740088E8000886
:1034E000560B0020500500203120526573756D6524
:1034F000205461736B000000322044656C65746574
:10350000205461736B000000348122424F75747344
:10351000696465207468652053746174696F6E21F5
:10352000000000003031323334353637383900008E
:10353000120E0020660D0020CC1E0020C4240020A6
:103540005363686564756C65000000004F4E0000B1
:1035500053746172742054696D6500003A00000074
:10356000A17802A80A18012322216520FEF778FF1E
:103570000023CDE90033E17802A80A1801232221B3
:103580006C20FEF76DFF5FB35DB14FF00003022EBC
:10359000C6EBC60000930BD24F300AE00323FCA217
:1035A00019E7002300930A23142218214B2004E07A
:1035B0005630C0B20A2307222221FEF7C9FE00209E
:1035C000FDF714FEFDF748FC0B28BFF4D6AEDFE88C
:1035D00000F006478F431A1306CC0606CC00CCE653
:1035E000002305EB8500172101EB40000093C1B2D9
:1035F0000A2341220120E0E71FB1012DEFD100266F
:10360000BBE60025B9E63FB145B1012DE7D1032E58
:1036100012D2761CF6B2B0E60127AEE6DD490027ED
:10362000484601F80B90DC4909780129059901D039
:10363000C881A2E68883A0E600263746204605F02A
:10364000EBFAD54909780129069903D0C86205F03B
:1036500088FC92E68864FAE7012F73D100278CE694
:1036600077B19DB1012DBAD1B6B1012E28D0022E6D
:1036700033D0032EB3D1E078092836D2401C72E053
:1036800015B16D1EEDB278E6012576E6B9F1000FB1
:1036900041D00020814670E6C04911F80800022898
:1036A0000BD2401CC0B201F80800022897D1607804
:1036B000032894D984F801A05FE601F808A05CE62D
:1036C000B64810F808000228607802D0092802D312
:1036D000F0E70328EED2401C3BE0A078052801D299
:1036E000401C3BE084F802A047E684F803A044E6CF
:1036F00077B1002DCAD0012D84D176B1012E18D01A
:10370000022E28D0032E86D1E07858B3401E2AE03E
:10371000002DB9D075E70120BCE7A04911F80800D9
:1037200018B1401E01F8080027E6022201F808201F
:10373000BDE79A4810F808000228607805D010B15B
:10374000401E06E011E0092003E0401E022800D9D7
:103750000320607011E6A07810B1401EA0700CE646
:103760000520FBE70920E07007E640E52DE9FC5F56
:103770008346002405F0F5FB864F4FF0030A012035
:10378000FFF71CF8B4FBFAF50023CDE90033A94696
:10379000282380220D210120FEF792FD4FF0000327
:1037A000CDE900331A46BBF1000F4FF011037DD075
:1037B0007BA20E210320FEF753FE7E4805EB450554
:1037C00000EB0516304609F003FA0023CDE900337B
:1037D000C0B20346324618210820FEF741FE4FF0E2
:1037E0000003785DCDE900331A46F0B30223AFF24F
:1037F000A42218215020FEF733FE681C07281DD292
:1038000006F11000804609F0E3F90023CDE900330A
:10381000C0B20346424622210820FEF721FEE819E5
:103820004FF000034078CDE900331A46E8B3022395
:10383000AFF2E82222215020FEF712FEA81C072832
:103840001ED22036304609F0C3F90023CDE90033FB
:10385000C0B2034632462C210820FEF701FEE819CB
:103860004FF0000380781A4600E02DE0CDE90033E8
:1038700080B30223AFF22C322C215020FEF7F0FD52
:103880000AFB194000EB80011720002300EB4101E7
:1038900000930A2332220120FEF75AFD0020FDF793
:1038A000A5FCFDF7D9FA0B2801E010E00AE0BFF40F
:1038B00066AFDFE800F006191E231513062306067F
:1038C00023005CE73CA274E7032331A291E70323C2
:1038D0002FA2AFE7FFE703232DA2CDE700244EE799
:1038E0002046FFF728FD4AE70CB1641E04E00624D9
:1038F00045E7062CF2D2641CE4B240E7BDE8FC9F29
:103900007CB5002405F02DFB234D17260120FEF782
:1039100055FF0023CDE90033282380220D2101200B
:10392000FEF7CEFC0023CDE900331A460F2327A271
:103930000E210320FEF794FD0023CDE900331A4643
:103940000A2326A218210820FEF78AFD0023CDE9CC
:1039500000331A460A2324A222210820FEF780FD04
:10396000287810B1012845D05AE00023CDE9003372
:103970001A460223AFF22C4218215020FEF770FDA8
:103980000023CDE900331A46032301A244E00000DE
:103990004F464600120E0020FC0D0020C4240020DB
:1039A0005363686564756C6520437573746F6D202F
:1039B00042000000660D00205363686564756C6505
:1039C00020437573746F6D20410000005363686578
:1039D00064756C6520437573746F6D003120437599
:1039E00073746F6D204100003220437573746F6DE6
:1039F000204200000023CDE900331A460323AFF232
:103A0000700218215020FEF72BFD0023CDE9003372
:103A10001A460223AFF2CC4222215020FEF720FDAD
:103A200004EB8400002306EB4000C1B200930A239C
:103A300080220120FEF78CFC0020FDF7D7FBFDF76C
:103A40000BFA0B28BFF462AFDFE800F0061016197E
:103A5000090706190606190058E7002456E720460C
:103A60002C70FF498C81FFF781FE4FE714B1641E73
:103A7000E4B24BE7012449E7002CFBD0EDE77CBD25
:103A80002DE9F04F002489B0264625461822F54935
:103A900003A809F0BCF805F031FAF44FF449F248F4
:103AA000C7E9000183468A46A0460420FEF786FE49
:103AB0000023CDE90033282380220D210120FEF7C9
:103AC000FFFB03A809F084F80023CDE90033C0B25E
:103AD000034603AA0E210320FEF7C2FC0023CDE912
:103AE00000331A460A23E3A218210820FEF7B8FC87
:103AF0009BF800000023CDE9003330308DF808003A
:103B0000D946012302AA18215020FEF7A9FC99F8F2
:103B100001000023CDE9003330308DF80800012387
:103B200002AA18215720FEF79BFC0023CDE90033A1
:103B30001A460123AFF2DC5218215E20FEF790FCFA
:103B400099F802000023CDE9003330308DF80800E9
:103B5000012302AA18216520FEF782FC99F80300D0
:103B60000023CDE9003330308DF80800012302AA8C
:103B700018216C20FEF774FC0023CDE900331A46AF
:103B80000823BFA222211846FEF76AFC9AF800001B
:103B90000023CDE9003330308DF80800D1460123F1
:103BA00002AA22215020FEF75BFC99F801000023B5
:103BB000CDE9003330308DF80800012302AA22211C
:103BC0005720FEF74DFC0023CDE900331A460123B0
:103BD000ADA222215E20FEF743FC99F802000023EB
:103BE000CDE9003330308DF80800012302AA2221EC
:103BF0006520FEF735FC99F803000023CDE900337A
:103C000030308DF80800012302AA22216C20FEF733
:103C100027FC9EB314B1012C0FD01EE04FF000031F
:103C2000022DC5EBC500009301D24F3000E05630A5
:103C30000A230722C0B218210DE04FF00003022D25
:103C4000C5EBC500009301D24F3000E05630C0B242
:103C50000A2307222221FEF77BFB0020FDF7C6FA8C
:103C6000FDF7FAF80B28BFF420AFDFE800F0066696
:103C7000AB62191406620606620016E7FFE700232E
:103C800004EB8400172101EB40000093C1B20A232A
:103C900041220120DFE70EB9002406E7002504E7F2
:103CA00026B1032D04D26D1CEDB2FEE60126F5E728
:103CB00000252E466CB16E4804F0AEFF6849886658
:103CC0006B49694804F0B4FF0228D6D105F0DBF94E
:103CD000EBE6654804F0A0FFDFF884916449C9F879
:103CE0006400614804F0A4FF0228C6D1DBF800108C
:103CF000CAF800109BF804008AF804009AF8000043
:103D00009AF8011000EB800001EB40000830C0B2CF
:103D10005246172800D917200A23B0FBF3F103FB02
:103D2000110011705070524804F076FFC9F8680015
:103D3000BBE6012E6FD10026B7E66EB19DB1012D15
:103D400026D0022D31D0032D97D157F82400C17809
:103D5000092934D2491C6FE0002514B1641EE4B275
:103D6000A3E60124A1E657F82400017802290CD229
:103D7000491CC9B2017057F8240002298DD141783D
:103D800003298AD980F801808FE680F800808CE6CC
:103D900057F8240001780229417802D0092902D37A
:103DA000F0E70329EED2491C3AE057F82400817865
:103DB000052901D2491C3AE080F8028075E680F8B6
:103DC000038072E666B17DB1012D19D0022D29D094
:103DD000032DADD157F82400C17861B3491E2BE003
:103DE0000025002CBDD057E757F82400017811B109
:103DF000491E017059E60221017057F82400BEE700
:103E000057F8240001780229417805D009B1491EEC
:103E100006E0092104E011E0491E022900D903212E
:103E2000417042E657F82400817811B1491E817033
:103E30003BE60521FBE70921C17036E695E430B584
:103E4000084989B01822183902A808F0E0FE044D8C
:103E50006889C4B20120FEF7B1FC002316E000001F
:103E6000CC1E0020E8E80008080E00201C0E0020F0
:103E70000D0E002053746172742054696D653A0010
:103E8000456E642054696D653A000000CDE9003349
:103E9000282380220D210120FEF712FA02A808F043
:103EA00097FE0023CDE90033C0B2034602AA0E21DB
:103EB0000320FEF7D5FA4FF00003CDE900331A4690
:103EC000012C4FF003031DD0AFF23C5222213220CF
:103ED000FEF7C6FA002300930A2311222221312083
:103EE000FEF736FA0020FDF781F9FCF7B5FF0B2845
:103EF000B0D2DFE800F00610100A0906060A06062E
:103F00000A00A7E7FFA2E1E76C8109B030BD0124F8
:103F1000A0E700249EE7002CFBD1F8E72DE9F04153
:103F20008AB000261822F84902A808F070FEF74F60
:103F30000A220DF120083889B0FBF2F102FB1105CD
:103F4000CCB20120FEF73AFC04F1300000238DF8DA
:103F50002000CDE9003305F130008DF82100282341
:103F600080220D210120FEF7ABF902A808F030FEF7
:103F70000023CDE90033C0B2034602AA0E2103207C
:103F8000FEF76EFA0023CDE90033012308AA2221AF
:103F90003220FEF765FA0023CDE90033012308F152
:103FA000010222213920FEF75BFA0023CDE900331C
:103FB0001A460223D6A222214620FEF751FA4FF0DC
:103FC000000300934FF00A034FF007024FF0220165
:103FD00096B13820FEF7BCF90020FDF707F9FCF791
:103FE0003BFF0B28ADD2DFE800F006162A110B09C3
:103FF000061106061100A4E73120EBE70026A0E732
:104000003EB104EB840005EB400038810AB0BDE806
:10401000F081012695E716B1052C08D305E0052CA3
:1040200001D2641CE4B2052C8BD1002589E7052D53
:1040300002D26D1DEDB284E7641CE4B2F5E726B14F
:10404000052D09D36D1FEDB202E01CB1641EE4B270
:10405000002CD0D1052574E7002CFBD06D1DEDB2EE
:10406000F4E72DE9F04FA84989B01822183902A8C1
:1040700008F0CDFDDFF89CA24FF0170B4FF00308BE
:104080004FF00009AAF24E660120FEF797FBB178C7
:104090000023B1FBF8F5CDE90033282380220D2160
:1040A0000120FEF70DF902A808F092FD0023CDE9EA
:1040B0000033C0B2034602AA0E210320FEF7D0F956
:1040C00005EBC5010AEBC104204608F081FD002381
:1040D000CDE90033C0B20346224618210820FEF77E
:1040E000BFF905EB4507781C04280ED204F118052A
:1040F000284608F06DFD0023CDE90033C0B2034629
:104100002A4622210820FEF7ABF9BF1C042F0DD24E
:104110003034204608F05CFD0023CDE90033C0B206
:10412000034622462C210820FEF79AF9B078002396
:10413000B0FBF8F108FB110000EB8001009344464E
:104140000BEB41010A2380220120FEF701F9002038
:10415000FDF74CF8FCF780FE0B282AD2DFE800F0D0
:10416000291B212C0624292C29292C00B07830B1B8
:10417000012807D0022808D0032809D019E0FFF74A
:10418000CDFE16E0FFF75BFE13E0FFF779FC10E0D1
:10419000FFF7B6FB0DE0B07808B1401E08E0B47040
:1041A00007E0B078032802D386F8029001E0401CB3
:1041B000B070FDF7A8FA67E786F80590FCF74CFEAB
:1041C0000446AFF60850FEF7ACFB53A0FEF7E0FB49
:1041D000AFF61850FEF71DFC53A0FEF75BFC042C55
:1041E00002D0032CEAD129E6FDF795FD26E630B58D
:1041F000454989B01822483102A808F008FD434D0E
:10420000B5F86C0010F0FF0400D001240120FEF787
:10421000D5FA0023CDE90033282380220D21012087
:10422000FEF74EF802A808F0D3FC0023CDE90033D6
:10423000C0B2034602AA0E210320FEF711F94FF087
:104240000003CDE900331A46012C4FF007031CD0C0
:104250003AA222213220FEF703F9002300930A2319
:10426000252222213120FEF773F80020FCF7BEFF43
:10427000FCF7F2FD0B28C9D2DFE800F0060E0E0BAA
:104280000906060B06060B00C0E72EA2E1E7A5F81B
:104290006C403AE60024B9E7002CFBD1B5E730B515
:1042A000194989B01822603102A808F0B0FC174DF6
:1042B000B5F86E0010F0FF0400D001240120FEF7D5
:1042C0007DFA0023CDE90033282380220D2101202F
:1042D000FDF7F6FF02A808F07BFC0023CDE90033D0
:1042E000C0B2034602AA0E210320FEF7B9F84FF030
:1042F0000003CDE900331A46012C4FF0030343D0ED
:1043000024E000004F4E2000B8E80008CC1E00203A
:10431000636D00009E0B0020536176652050617232
:10432000616D657465723F005945532F4F4B2020D6
:1043300020204E4F2F4261636B000000446973617F
:10434000626C6500456E61626C652000AFF6C0125C
:1043500022213220FEF784F8002300930A23112241
:1043600022213120FDF7F4FF0020FCF73FFFFCF78E
:1043700073FD0B28A2D2DFE800F0060F0F0C0A062F
:10438000060C06060C0099E7AFF28802E0E7A5F8F4
:104390006E40BAE5002491E7002CFBD18DE77CB597
:1043A000FF49012008604FF06401684604F0ACFB4F
:1043B000FC4D08E00120FDF7F7FCA868800502D558
:1043C0000020A86004E00120FDF702FD0128F1D1E2
:1043D000AFF61870FEF76FFA02E06420FDF7AEFC4E
:1043E0006420FDF7BFFC0128F7D1684604F096FB76
:1043F000FDF710FDFDF78BFDFDF7EDFDA8688005CD
:104400001FD5A86820F40070A8607CBDFDF716FDDC
:10441000FDF791FDFDF7F3FDE34CE4A06188FEF7A5
:1044200080FA218CE4A0FEF7B3FAA18DE5A0FEF797
:10443000F0FAE38DB4F92A20B4F92810E6A0FEF7CB
:1044400029FB684604F06EFB0028C1D1DEE73EB5CB
:10445000D349012008604FF0640101A804F054FB27
:10446000D04D01A804F05AFBFDF7D4FCFDF74FFD39
:10447000FDF7B1FDA868800522D5A86820F400707A
:10448000A8603EBDFDF7DAFCFDF755FDFDF7B7FD71
:10449000C54CD6A0A188FEF744FA62892189D6A02E
:1044A000FEF776FA238AE289A189D7A0FEF7B1FA4E
:1044B000637D0093237DA27CE17CD8A0FEF7EAFA1D
:1044C00001A804F02FFB0028CBD1DBE77CB5B44971
:1044D000012008604FF06401684604F015FBB14DFF
:1044E000684604F01BFBFDF795FCFDF710FDFDF79A
:1044F00072FDA868800521D5A86820F40070A86026
:104500007CBDFDF79BFCFDF716FDFDF778FDA64C85
:10451000E08A09F018FF4FF0FF320AF048F902462E
:104520000B46C5A0FEF734FAA38B628B218BC6A085
:10453000FEF76FFAA17FC8A0FEF7ACFA684604F058
:10454000F1FA0028CCD1DCE710B58EB01822C649AC
:1045500008A808F05CFB182102A808F08AFB924C1E
:104560000120FEF72BF905F0CEFB228EBFA102A899
:1045700008F0BEF90023CDE90033282380220D2165
:104580000120FDF79DFE08A808F022FB0023CDE9DD
:104590000033C0B2034608AA0E210320FDF760FFD6
:1045A00002A808F015FB0023CDE90033C0B2034692
:1045B00002AA22213220FDF753FF0020FCF716FE4D
:1045C000FCF74AFC032803D0072801D00A28C7D1EA
:1045D0000EB010BD2DE9F04FA3498FB04FF0450A42
:1045E0004FF0240B1822183908A808F010FB1821E6
:1045F00002A808F03EFBAAF1030000F0FF08ABF1AF
:10460000010000F0FF09AAF10200C4B20BF10100A1
:10461000C5B2AAF10100C6B2ABF10200C7B20120D7
:10462000FEF7CCF805F0C3FB5F4892A1B0F9322049
:1046300002A808F05DF90023CDE900332823802289
:104640000D210120FDF73CFE08A808F0C1FA002367
:10465000CDE90033C0B2034608AA0E210320FDF7BE
:10466000FFFE02A808F0B4FA0023CDE90033C0B27F
:10467000034602AA22213220FDF7F2FE0023CDE9F3
:1046800000331A4601237CA222214620FDF7E8FED2
:104690007A4B012259465046FDF7E6FD774B012241
:1046A00049465046FDF7E0FD744B0122394630463D
:1046B000FDF7DAFD714B012239463046FDF7D4FD96
:1046C0006E4B012229463046FDF7CEFD6B4B012291
:1046D00029463046FDF7C8FD684B01223946204681
:1046E000FDF7C2FD654B012239462046FDF7BCFDB2
:1046F000624B012229462046FDF7B6FD5F4B0122A1
:1047000029462046FDF7B0FD5C4B01225946404644
:10471000FDF7AAFD594B012249464046FDF7A4FD8D
:104720000020FCF763FDFCF797FB032804D0072863
:1047300002D00A287FF473AF0FB0BDE8F08F2DE9E7
:10474000F04F49498FB04FF0450A4FF0240B182223
:10475000303908A808F05BFA182102A808F089FA95
:10476000AAF1030000F0FF08ABF1010000F0FF091F
:10477000AAF10200C4B20BF10100C5B2AAF1010016
:10478000C6B2ABF10200C7B20120FEF717F805F080
:104790002BFB054837A1B0F9342002A870E00000D7
:1047A00090012342140500207C1E00206865617280
:1047B000743A253564000000566F6C746167653D7E
:1047C000253564004368617267655F637572726561
:1047D0006E743D2535640000583D25346420593DF4
:1047E00025346420533D2564000000006865617233
:1047F000743A256400000000483A4C3D256420527C
:104800003D25642000000000563A4C3D25642052AE
:104810003D256420423D2564000000004C3D256498
:1048200020523D256420423D2564205369676E6116
:104830006C3D256400000000646972656374696FF3
:104840006E3D25342E316600583D256420593D25A6
:1048500064205A3D256400004F54205369676E61FF
:104860006C3D25640000000090E9000825326420BA
:10487000206D6D0025326400430000003E070020DB
:1048800008F036F80023CDE90033282380220D21DB
:104890000120FDF715FD08A808F09AF90023CDE9DD
:1048A0000033C0B2034608AA0E210320FDF7D8FD4D
:1048B00002A808F08DF90023CDE90033C0B2034609
:1048C00002AA22213220FDF7CBFD0023CDE90033DF
:1048D0001A460123AFF2600222214620FDF7C0FDF7
:1048E000FF4B012259465046FDF7BEFCFC4B01220E
:1048F00049465046FDF7B8FCF94B0122394630468F
:10490000FDF7B2FCF64B012239463046FDF7ACFC10
:10491000F34B012229463046FDF7A6FCF04B01225D
:1049200029463046FDF7A0FCED4B012239462046D2
:10493000FDF79AFCEA4B012239462046FDF794FC2C
:10494000E74B012229462046FDF78EFCE44B01226D
:1049500029462046FDF788FCE14B01225946404696
:10496000FDF782FCDE4B012249464046FDF77CFC08
:104970000020FCF73BFCFCF76FFA032804D0072863
:1049800002D00A287FF400AFD6E630B58FB01822E7
:10499000D44908A808F03BF9182102A808F069F9E1
:1049A000D14CD24D0120FDF709FFFDF733FAFDF799
:1049B00045FA208C09F0C7FC00222B4609F03EFB8B
:1049C00002460B46CAA102A807F092FF0023CDE9D8
:1049D0000033282380220D210120FDF771FC08A857
:1049E00008F0F6F80023CDE90033C0B2034608AA68
:1049F0000E210320FDF734FD02A808F0E9F800239A
:104A0000CDE90033C0B2034602AA22213220FDF7CD
:104A100027FD0020FCF7EAFBFCF71EFA032803D071
:104A2000072801D00A28BDD10FB030BD2DE9F04FC5
:104A3000AC4989B01822183902A808F0E8F8DFF864
:104A4000BCB2DFF8BC924FF003084FF0000AABF2A3
:104A5000AE660120FDF7B2FEF1780023B1FBF8F558
:104A6000CDE90033282380220D210120FDF728FC09
:104A700002A808F0ADF80023CDE90033C0B2034628
:104A800002AA0E210320FDF7EBFC05EBC5010BEBA1
:104A9000C104204608F09CF80023CDE90033C0B2E1
:104AA0000346224618210820FDF7DAFC05EB4507EE
:104AB000781C04280ED204F11805284608F088F85E
:104AC0000023CDE90033C0B203462A462221082044
:104AD000FDF7C6FCBF1C042F0DD23034204608F071
:104AE00077F80023CDE90033C0B2034622462C21DB
:104AF0000820FDF7B5FCF0780023B0FBF8F108FBC7
:104B0000110000EB8001172000EB410100934446A7
:104B10000A2380220120FDF71BFC0020FCF766FB26
:104B2000FCF79AF90B283CD2DFE800F03B2D333E2E
:104B300006363B3E3B3B3E00F07830B101280DD0BD
:104B4000022814D003281BD02BE0D9F8081021F438
:104B50000071C9F80810FFF718FF22E0D9F8081013
:104B600021F40071C9F80810FFF7E9FD19E0D9F840
:104B7000081021F40071C9F80810FFF72BFD10E0B0
:104B8000FFF7E2FC0DE0F07808B1401E08E0F47099
:104B900007E0F078032802D386F803A001E0401C68
:104BA000F070FCF7B0FD54E786F805A009B0C4E545
:104BB0001CB50023CDE90033282380220D210120DC
:104BC000FDF77EFB0023CDE900331A4612234DA2E8
:104BD00022210A20FDF744FC0020FCF707FBFDF72B
:104BE0003CF8BDE81C404C48FCF732BD30B53D49AF
:104BF00089B01822C03102A808F009F8474DB5F86D
:104C0000720010F0FF0400D001240120FDF7D6FD52
:104C10000023CDE90033282380220D210120FDF758
:104C20004FFB02A807F0D4FF0023CDE90033C0B248
:104C3000034602AA0E210320FDF712FC4FF00003E9
:104C4000CDE900331A46012C4FF007031DD0AFF613
:104C5000141222213220FDF703FC002300930A23C3
:104C6000252222213120FDF773FB0020FCF7BEFA3C
:104C7000FCF7F2F80B28C8D2DFE800F00610100CA1
:104C80000A06060C06060C00BFE7AFF64812E0E77E
:104C9000A5F8724009B030BD0024B6E7002CFBD166
:104CA000B2E72DE9F0410F498AB000261822A83159
:104CB00002A807F0ACFF194F0A220DF12008B7F83F
:104CC0007000B0FBF2F102FB1105CCB20120FDF740
:104CD00075FD04F130008DF8200005F130001FE073
:104CE0003E07002048E900087C1E002000408F405D
:104CF00025322E316620205600000000FE0B0020D9
:104D00001405002044656661756C742053657474E5
:104D1000696E672E2E2E0000808D5B00CC1E002059
:104D20000023CDE900338DF82100282380220D21B6
:104D30000120FDF7C5FA02A807F04AFF0023CDE9DC
:104D40000033C0B2034602AA0E210320FDF788FB00
:104D50000023CDE90033012308AA22213220FDF7E8
:104D60007FFB0023CDE90033012308F1010222215A
:104D70003920FDF775FB0023CDE900331A460723E0
:104D8000FEA222214620FDF76BFB4FF000030093AB
:104D90004FF00A034FF007024FF0220196B138207E
:104DA000FDF7D6FA0020FCF721FAFCF755F80B289E
:104DB0008CD2DFE800F006172A120B09061206064D
:104DC000120083E73120EBE700267FE746B104EBD2
:104DD000840005EB4000A7F870000AB0BDE8F08140
:104DE000012673E716B1032C08D305E0032C01D28A
:104DF000641CE4B2032CE4D1002567E7092D01D23D
:104E00006D1C05E0641CE4B2F6E71EB13DB16D1EF9
:104E1000EDB25BE7002CD4D0641EE4B256E7002C60
:104E2000CFD00925F8E72DE9F0418EB005460524DD
:104E30001822D44908A807F0EAFE29788DF808104E
:104E400068788DF80900AA788DF80A20EB788DF83B
:104E50000B30CDE9002303460A46CBA103A807F097
:104E600047FD03274FF006080A260120FDF7A6FCA0
:104E70000023CDE90033282380220D210120FDF7F6
:104E80001FFA08A807F0A4FE0023CDE90033C0B242
:104E9000034608AA0E210320FDF7E2FA03A807F053
:104EA00097FE0023CDE90033C0B2034603AA2221B6
:104EB0002320FDF7D5FA002304EB84002230009371
:104EC000C0B20A2307222121FDF742FA0020FCF795
:104ED0008DF9FBF7C1FF0B28C7D2DFE800F0063CD5
:104EE0007E3A0907063A06063A00BEE70524BCE703
:104EF000092C1AD39DF808009DF8092000EB8001C9
:104F000002EB4101182924D29DF80A109DF80B30BC
:104F100001EB810403EB44043C2C1AD228706A7024
:104F2000A970EB7001200EB058E79DF80B309DF88A
:104F30000A20CDE900239DF809309DF8082092A1B0
:104F400003A807F0D5FC641CE4B2072C8DD108241B
:104F50008BE70020E7E7052C09D0062C25D0082C8C
:104F600037D0092C81D19DF80B00401C40E09DF802
:104F70000800401CB0FBF7F107FB11008DF808009A
:104F80009DF8091000EB800201EB4201172902D9BC
:104F900000218DF809109DF80B309DF80A20CDE90D
:104FA00000239DF80930024630E09DF808109DF876
:104FB0000900022900F1010044D03DE08DF809000C
:104FC0009DF80B309DF80A20CDE9002303460A46E0
:104FD0001CE09DF80A00401C3AE0052C1BD0062C72
:104FE00023D0082C31D0092CB2D19DF80B00093008
:104FF000B0FBF6F106FB11038DF80B309DF80A208B
:10500000CDE900239DF809309DF808205EA103A892
:1050100007F06EFC29E79DF80800801CB0FBF7F153
:1050200007FB11008DF80800B5E79DF808109DF802
:105030000900022905D00930B0FBF6F206FB120088
:10504000BCE7C01C00F00300B8E79DF80A00401D53
:10505000B0FBF8F208FB12028DF80A209DF80B3025
:10506000CEE72DE9F0470D460446C178807802F07E
:10507000010600EB800001EB4000C1B220786278AD
:1050800000EB800002EB400003F068FD02460023C5
:1050900009274FF0040C4FF0030901214FF0050AD6
:1050A00004F10D0086B11C2A67D01D2A74D01E2A77
:1050B00073D01F2A2FD10D2D70D00E2D2BD120791A
:1050C000032873D0A8BB97E04FF00A0804F10E063E
:1050D0001C2A0DD01D2A2DD01E2A39D01F2A1AD1E4
:1050E0000D2D5DD00E2D16D1207903285ED036E02F
:1050F0000D2D12D00E2D0ED122796079022A00F1E9
:1051000001000FD0B0FBF8F308FB130006F8090C00
:10511000002A00D178B3BDE8F08784F805C0217972
:10512000491C4DE0B0FBF7F107FB110006F8090C34
:10513000F1E764E00D2DF0D00E2DECD16079401C2C
:10514000B0FBF8F208FB120006F8090C2279DFE741
:105150000D2D25D00E2DDED1207903285BD062796C
:10516000521CB2FBF8F308FB132206F8092C0028A6
:10517000D1D1002ACFD16171CDE71AE04D696E75AA
:1051800074657300D8E900082020202020256425BC
:10519000643A25642564000023E035E03DE005E045
:1051A0002179491C3BE084F805A0B4E7607981438C
:1051B000E1E70D2D1BD00E2DADD122793AB109E0DA
:1051C000B1FBF9F309FB131100F8091CA3E760799F
:1051D0000028D0D06079012828D8022A12D10820CE
:1051E00025E00D2D03D00E2D95D120796AE784F8A6
:1051F00005C02179891CE3E760790028BBD060797C
:10520000012813D8677186E70D2D06D00E2D82D1A7
:1052100020790328EAD163717DE72179C91C01F067
:10522000030100F8091C0329F5D0BCE7401E60719A
:1052300071E72DE9F04391B0054607241822FF4994
:105240000BA807F0E4FC2E788DF810606F788DF8CD
:105250001170A8788DF81200E9788DF813102A796A
:105260008DF814206B798DF815308DE80F003B46D2
:105270003246F3A106A807F03BFB0A274FF00309CB
:105280004FF0000801260120FDF798FA0023CDE930
:105290000033282380220D210120FDF711F80BA8EF
:1052A00007F096FC0023CDE90033C0B203460BAAF9
:1052B0000E210320FDF7D4F806A807F089FC00238F
:1052C000CDE90033C0B2034606AA22211920FDF71A
:1052D000C7F8002304EB840018300093C0B20A23FF
:1052E00007222121FDF734F80020FBF77FFFFBF7B1
:1052F000B3FD0B28C7D2DFE800F0063FA63D090743
:10530000063D06063D00BEE70724BCE70E2C15D37C
:105310009DF8100028709DF8110068709DF812002B
:10532000A8709DF81300E8709DF8140028719DF88E
:1053300015006871012011B0BDE8F0839DF81200DE
:105340009DF815309DF814209DF813108DE80F007E
:105350009DF811309DF81020B9A106A807F0C8FAF1
:10536000641CE4B2092C03D00C2C8CD10D248AE7E8
:105370000A2488E70020DEE7072C3ED0082C40D026
:105380000A2C42D00B2C50D00D2C5AD00E2C58D0B9
:105390009DF812009DF8131000EB800001EB400017
:1053A000C1B29DF810009DF8112000EB800002EBC7
:1053B000400003F0D3FB01469DF814009DF8152032
:1053C00000EB800002EB4000884203D98DF8148086
:1053D0008DF815609DF812009DF815309DF8142089
:1053E0009DF813108DE80F009DF811309DF81020E6
:1053F00093A106A807F07CFA45E79DF81000401C31
:1054000036E09DF81100401C3CE09DF8121036EA91
:1054100001008DF812003CD00128B9D19DF813008D
:105420000228B5D98DF81380B2E79DF81200012843
:105430009DF8130003D009282BD0401C3DE0401CF0
:1054400035E000220CE0072C0FD0082C17D00A2CD6
:10545000DBD00B2C20D00D2C01D00E2C98D10122AA
:10546000214604A8FFF7FDFD92E79DF810000930E2
:10547000B0FBF7F107FB11008DF8100088E79DF8ED
:1054800011000930B0FBF7F107FB11008DF8110096
:105490007EE78DF813607BE79DF8120001289DF8E8
:1054A000130003D0012807D8092006E0801CB0FBB8
:1054B000F9F209FB120000E0401E8DF8130067E7C7
:1054C0007FB5694602A803F0CDFB6846FFF7B1FE41
:1054D000012847D19DF800109DF801005E4C01EBBA
:1054E000810300EB4301A1719DF802109DF8032098
:1054F00001EB810102EB4101C9B261719DF8042009
:105500009DF8055002EB820205EB42024FF4FA656A
:10551000D2B205EB43032271184403F0E5FB401DB2
:105520000721B0FBF1F201FB1200401CE07002A861
:10553000FFF779FC012815D19DF808009DF80910A6
:1055400000EB800001EB4000A0709DF80A009DF880
:105550000B1000EB800001EB400060700020207019
:1055600004F0B0FE7FBD2DE9F04F344989B0182218
:10557000183902A807F04BFBDFF8E0A04FF0030852
:105580004FF0170B4FF00009AAF20E760120FDF73D
:1055900015F931790023B1FBF8F5CDE90033282363
:1055A00080220D210120FCF78BFE02A807F010FBE2
:1055B0000023CDE90033C0B2034602AA0E21032026
:1055C000FCF74EFF05EBC5010AEBC104204607F0CE
:1055D000FFFA0023CDE90033C0B20346224618216A
:1055E0000820FCF73DFF05EB4507781C06280ED286
:1055F00004F11805284607F0EBFA0023CDE9003343
:10560000C0B203462A4622210820FCF729FFBF1C0E
:10561000062F0DD23034204607F0DAFA0023CDE908
:105620000033C0B2034622462C210820FCF718FFA5
:105630003179B1FBF8F208FB121011E0C0E9000863
:1056400020202020203230256425642D2564256407
:105650002D25642564000000F00D00205E0C002064
:1056600000EB8001002300930BEB41010A23802211
:105670000120FCF76DFE0020FBF7B8FDFBF7ECFB0B
:105680000B2834D2DFE800F033252B36062E3336D4
:1056900033333600307950B101280BD002280CD0BA
:1056A00003280DD004280ED005280FD01FE0FFF7E7
:1056B00007FF1CE0FFF7F5FA19E0FFF797FA16E08D
:1056C000FEF795FD13E0FEF7EAFD10E0FFF770FA34
:1056D0000DE0307908B1401E08E0052006E0307981
:1056E000052802D386F8049001E0401C3071FCF7D5
:1056F0000AF84BE786F80590FBF7AEFB0446AFF6D9
:105700000820FDF70EF94A48FDF742F9AFF61820D8
:10571000FDF77FF946481030FDF7BCF9042C04D0A2
:10572000032CE9D109B0BDE8F08FFCF7F4FAF9E7F2
:1057300010B52020FBF79CFF0020FBF7B0FF3D4C8D
:1057400000203D49607101204861FBF784FD6079CC
:105750000728FCD2DFE800F004070D1013160A003A
:10576000FDF752FAF3E7FDF7B6FCF0E7FDF767FD4A
:10577000EDE7FEF776FCEAE7FFF758F9E7E7FFF712
:10578000F2FEE4E710BD10B519284FD2DFE800F0B3
:105790000D0F11131517191B1D1F21232527292B49
:1057A0002D2F31333537393B490024A03AE027A06B
:1057B00038E02AA036E02EA034E031A032E034A058
:1057C00030E037A02EE03AA02CE03DA02AE040A037
:1057D00028E043A026E046A024E049A022E04CA017
:1057E00020E04FA01EE054A01CE058A01AE05CA0EE
:1057F00018E05FA016E063A014E067A012E06BA0C1
:1058000010E06FA00EE073A0FDF703F97548006982
:10581000C00701D074A000E078A0BDE81040FDF7FB
:1058200039B97BA0BDE81040FDF7F3B810BD00000A
:105830001843000850050020682600204D4D2043E5
:105840004E204661696C7572650000004D4D205315
:10585000544F50204661696C757265004D4D205360
:1058600050454544204661696C7572650000000032
:105870004643204E4F204661696C757265000000FA
:105880004643204E43204661696C757265000000F6
:105890004243204E4F204661696C757265000000DE
:1058A0004243204E43204661696C757265000000DA
:1058B0004C494654204E4F204661696C7572650014
:1058C0004C494654204E43204661696C7572650010
:1058D0004F54204E4F204661696C75726500000080
:1058E0004F54204E43204661696C7572650000007C
:1058F000454D204E4F204661696C75726500000071
:10590000454D204E43204661696C7572650000006C
:1059100054494C54204661696C7572650000000062
:105920004D61696E2D454D2D53746F702046616930
:105930006C75726500000000436F2D454D2D53744A
:105940006F70204661696C75726500004D61696E0B
:105950002D4D6375204661696C757265000000000D
:10596000436F2D4D6375204661696C75726500004B
:105970004469726563746F72204661696C75726503
:1059800000000000506572696D65746572204661A3
:10599000696C7572650000004C57204355525245A2
:1059A0004E54204661696C75726500005257204361
:1059B000555252454E54204661696C75726500001F
:1059C0004D4D2043555252454E54204661696C75E9
:1059D000726500005354415445204661696C7572EC
:1059E00065000000140500204D4D2053544F5020F9
:1059F00053544154452045524F5252005354415440
:105A000045205452414E532045524F5252000000FF
:105A1000536F667457617265204572726F72000031
:105A2000FE49FF4AA0B1012811D19069C860D06930
:105A30004860106A0861906B4861506A8861906A9A
:105A4000C861D06A8860506C0860906C08627047CA
:105A5000C86890614868D0610869106248699063BD
:105A600088695062C86990628868D062086850642A
:105A7000086A9064704700B50020FFF7D1FFE8493D
:105A80000020C86101205DF804EBC9E704F0CCBC3C
:105A900000B50020FFF7C4FFE148C069C0B200BDF7
:105AA000DF490020CA68002A00DC0220896800293A
:105AB00000DC0320704770B5DA49C87C8A7C10444A
:105AC000D94A012802D00020D06049E0D0680A25D8
:105AD000401CD060B0FBF5F205FB1202D34C0B89E1
