:020000040800F2
:1000000060200020F5330008690D00086B0D000822
:100010006D0D00086F0D0008710D00080000000054
:10002000000000000000000000000000730D000848
:10003000750D000800000000770D0008790D00081C
:100040000F3400080F3400080F3400080F34000884
:100050000F3400080F3400080F3400080F34000874
:100060000F3400080F3400080F3400080F34000864
:100070000F3400080F3400080F3400080F34000854
:100080000F3400080F3400080F3400080F34000844
:100090000F3400080F3400080F3400080F34000834
:1000A0000F3400080F3400080F3400080F34000824
:1000B000310F00080F3400080F3400080F34000817
:1000C0000F3400080F3400080F3400080F34000804
:1000D0000F3400086B110008D51200083514000811
:1000E0000F3400080F3400080F340008000000002F
:1000F0000000000000000000000000000000000000
:1001000000000000000000000F3400080F34000859
:100110006F150008A31600080F3400080F340008FC
:100120000F3400080F3400080F3400080F340008A3
:100130000F3400080F3400080F3400080F34000893
:100140000F3400080F3400080F3400080F34000883
:1001500000F002F800F072F80AA090E8000C824467
:100160008344AAF10107DA4501D100F067F8AFF244
:10017000090EBAE80F0013F0010F18BFFB1A43F085
:10018000010318478C730000AC7300000A444FF061
:10019000000C10F8013B13F0070408BF10F8014BE6
:1001A0001D1108BF10F8015B641E05D010F8016B2B
:1001B000641E01F8016BF9D113F0080F1EBF10F88F
:1001C000014BAD1C0C1B09D16D1E58BF01F801CBB2
:1001D000FAD505E014F8016B01F8016B6D1EF9D535
:1001E0009142D6D37047000000230024002500264A
:1001F000103A28BF78C1FBD8520728BF30C148BF8A
:100200000B607047662906F04B87642903F0C481B0
:10021000002070471FB506F037FF9DE8030003F08C
:100220004DFB03F069FE04000020002105F08EFD67
:10023000E06003F013FB1FBD10B510BD03F089FF94
:100240001146FFF7E7FF00F009FC03F0A7FF03B436
:10025000FFF7F2FF03BC04F013F800004FF4E06076
:1002600002F04EB838B540F6C210ADF800000224D6
:100270008DF8024048258DF803506946214801F069
:1002800062FF4CF6D370ADF800008DF802408DF897
:10029000035069461C4801F056FF4FF46140ADF829
:1002A00000008DF802408DF803506946174801F0B0
:1002B0004AFF0121084601F087FE0121144801F0A0
:1002C000CDFF38BD10B501F027FA01F06CFB4FF4FB
:1002D000E06002F015F801F08BFB01F03FFC01F04B
:1002E00093FC01F0D6FC01F019FC01F0E5FB0121C3
:1002F000084601F069FEBDE810400121044801F004
:10030000ADBF000000080140000C0140001001409A
:100310000002300030B53221FF4B1980FF4C1946E6
:100320000025C9686289491C42B1022A0DD0032AFE
:1003300003D1016A99608068586030BDD9600A298C
:10034000FBDD02206081DD6030BD026A9A6080685A
:100350005860D9600A29F7DD0320DD60608130BD77
:10036000704770472DE9F05FEB4D6A68EC48ED4946
:10037000824201DD686003E06A688A4200D36960F6
:10038000AA68824201DDA86003E0A868884200D321
:10039000A960686806F044FDE34AE44B06F042F8C1
:1003A0000022E34B06F02CFA0022E24B06F028FA7A
:1003B00006F090F904B204F14B00962800D800240E
:1003C000A868DD49DFF874B3DFF87493DFF874A32D
:1003D000DD4FDE4E4FF00008884203DCA868DC49A0
:1003E000884257D3A968686806F046FD06F018FDF4
:1003F000C5E90601D5E906014A46D64B06F0FEFAE4
:1004000011D2D5E90601B9463A465746534606F099
:10041000BBF903D2CB49CC48C5E90601D5E906238F
:100420004846394615E0D5E906014A46CA4B06F06A
:10043000ABF92CD2D5E906013A46C84B06F0DEFAF4
:1004400003D2C648C049C5E90610D5E90623384697
:10045000514605F0E7FF05F065FA5A46C04B05F036
:10046000E1FF0A2206F050FE06F034F9308000B2B7
:10047000B0F5007F02DB40F2FF103080B6F90000DB
:1004800010F5007F08DC6FF4FF70308004E0B548A1
:100490000088EBE7A6F800809F48983001F0F0FA5A
:1004A000002827D0B04E6CB1C6F8A4816888401CE3
:1004B00000B26880962817DB96206880204601F0FD
:1004C00011FA11E0204601F00DFA9449488858B914
:1004D000B5F90200002802DD401E688004E001201A
:1004E000C6F8A40104204881BDE8F05F8A4898302E
:1004F00001F0C2BABDE8F09F874810B5A03001F006
:10050000BFFA002811D08448B0F90010002903DD9B
:100510000188491E018002E08049002048817E4810
:10052000BDE81040A03001F0A7BA10BD2DE9F04F92
:100530000021794895B088468946B03001F0A0FA8C
:1005400000287ED074488949883005F095FC884D94
:10055000714E2C683069844201D3201A02E0C043F6
:100560002044401C06F0FCF86C4A12880AB981F05D
:100570000041B2467F4A804B346105F053FF7F4A09
:100580007F4B05F04FFF044676480D46B0F900005A
:10059000811C042939D906F0CCF86FF0090206F065
:1005A000B3FD664A6E4B06F02BF905F051FB02468F
:1005B0000B466548634905F035FF06460F46204661
:1005C00025F000415E4A634B06F018FA1BD2304614
:1005D00027F000415C4A5B4B06F0D6F80AD2584A35
:1005E0005C4B3046394606F009FA574E01D2554F5A
:1005F00000E05A4F32463B462046294605F012FF9E
:100600008046894601E000242546DAE90C01564679
:1006100005F01EFB0022134606F0F2F807468A4654
:10062000D6E90C0105F0BEFA22462B4606F0E8F8A2
:100630003A46534606F00AFBDFF844B14F4A5B46A0
:1006400000E0C2E006F0DCF8CDE90001D6E90C01DB
:1006500005F0A8FA0022134606F0D2F807468A46AB
:10066000D6E90C0105F0F4FA22462B4606F0C8F84C
:1006700053463A4605F01CFE404A5B4606F0C0F879
:1006800007468A463D4A5B464046494606F0B8F86A
:10069000DDE9002383460291D6E9080105F008FE52
:1006A000C6E90801D6E90A013A46534605F000FEBC
:1006B000C6E90A01D6E90C015A46029B05F0F8FD8D
:1006C000C6E90C012046294605F0C0FD274F4946E2
:1006D000243FB8600020F860404605F0B7FD394679
:1006E000386201F5256004F06DFB0B4907F69C109C
:1006F000403104F067FB084907F51B60483104F0FE
:1007000061FB05488030D0E90212C0E9041220469E
:1007100025F000410A4A35E000000020C00B00200F
:1007200014AE473F14AE47BFF6285C8FC2F5E83FD2
:100730000000594000002C4017B7D1381F85EB51FD
:100740002D431CEBD24DF23FE7FBA9F1F600002050
:1007500017B7D1B8E2361A3FE2361ABFD24DF2BF10
:10076000B81E1940FC0000200080214280010020BA
:10077000F000002069900669900670409A99999956
:100780009999B93FFE4B06F039F91AD2D6E90C0116
:10079000CDE90601D6E90A01CDE90401D6E908014F
:1007A000CDE90201F748CDE90045F7A1026808A8A4
:1007B00002F0DEFEFF4908A8486007F6881004F042
:1007C00001FBFC48783001F057F915B0BDE8F08F17
:1007D00010B5F94C608910B1022805D006E000F090
:1007E0009BFF0020608001E001F01AF86089032877
:1007F00001D1FFF7B7FD6089042801D10320608192
:1008000010BD10B501F0F6F84FF40074A042E948AD
:1008100000F1880003D0BDE8104001F02DB901F0CF
:100820002FF9002801D0E548048010BD10B501F073
:10083000B4F998B3E248DF4A3832017B1171203AAB
:100840000169516008324169516008328169516023
:1008500002F10801006A48600831DA4804F0B2FA8F
:10086000D449D8481831503804F0ACFAD149D548A9
:1008700020313C3804F0A6FACE49D2482831283835
:1008800004F0A0FACB49CF483031143804F09AFA7A
:10089000C848BDE81040803001F0EEB8C548BDE85A
:1008A0001040803001F0ECB810B501F0C9F9E0B1AA
:1008B000C549CA78097962F3070061F30F2000B2D5
:1008C00005F037FFC14AC24B05F09AFF05F0BEFCA8
:1008D000B84940314860BB48143004F073FAB54859
:1008E000BDE81040903001F0C7B8B248BDE81040F4
:1008F000903001F0C5B808B501F0E9F9C8B1B548C4
:100900008088ADF8000000B205F013FFAF4AB04B8D
:1009100005F076FF05F09AFCA64948314860A948E1
:10092000283004F04FFAA348BDE80840983001F0A1
:10093000A3B8A048BDE80840983001F0A1B89D4890
:1009400010B50221603001F08DF89A480A21683014
:1009500001F088F897486421703001F083F89548D9
:100960006421783001F07EF892486421803001F0F3
:1009700079F89048C821883001F074F88D486421D6
:10098000903001F06FF88B486421BDE8104098303A
:1009900001F068B810B5904C4FF4E130606000F0A1
:1009A00027FB0020C4F8DC08C4F8E008C4F8E80815
:1009B000C4F8E40804F66411204605F033FC04F69C
:1009C0007811204605F02EFC04F68C11204605F027
:1009D00029FC04F51A61204605F024FC04F6B41144
:1009E000204605F01FFC04F6C811204605F01AFC4D
:1009F00004F6DC11204605F015FC7249204605F08E
:100A000011FC04F60421204605F00CFC04F6182124
:100A1000204605F007FC04F62C21204605F002FCD8
:100A2000002004EB8001D1F8781871B1401C19281E
:100A3000F7DB60486849503005F01EFA5D48BDE8B4
:100A400010406549583005F017BA5E4904EB800242
:100A5000C4396430C2F878184860EAE7FFF732FC1E
:100A6000C82000F094FAFFF76AFFFFF793FF5A4897
:100A700005F0AAFAFFF740FDFFF758FDFFF7A8FEC3
:100A8000FFF7BFFEFFF7D2FEFFF70EFFFFF733FFC2
:100A9000EDE770B50446514D2560002510466560B0
:100AA00019466A1EA56006F02FFB05460E4605F0A6
:100AB000CFF805F0CBFBE0602846314605F072F830
:100AC00005F0C4FB206170BD2DE9F05F394D44484D
:100AD00005F108082860434805F11009C8F800002E
:100AE00005F1180BC9F8000005F12001CBF8000052
:100AF0000860083105F138020860083102F1080A7F
:100B000008603949116002F11001CAF8000008605C
:100B10003148243803F0D8FF05F150000024046068
:100B2000446008303149046044602B48304A016019
:100B300040F6041180F8F0480A50214600EB81028B
:100B4000491CC2F814481929F8D3002100EB81028E
:100B5000491CC2F878481929F8D300214FF4806263
:100B60004318491C1C759142FAD300214318491CB3
:100B700083F814449142F9D300F60810047039E068
:100B8000E2361A3FF0000020636F756E7465723DA7
:100B900025642076783D252E3466206C783D252E00
:100BA0003466206C793D252E34662074683D252EF0
:100BB0003466000038000020C00B0020FC0000203C
:100BC0006C190020700B0020EF1900207B14AE4739
:100BD000E17A843F2401002080010020FC7300089A
:100BE000E874000800750008B8740008A4740008D0
:100BF00044740008846004734461294829A6AFF650
:100C0000EB072B4940F80C1B03F05EFF012140F875
:100C1000046CC0E90971224826A138300461C0E99A
:100C20000015143026A10461C0E90018143027A172
:100C30000461C0E90019143027A10461C0E9001B58
:100C400014302AA101602E490461416014302DA1A5
:100C500001602B4904610831416014302EA101600C
:100C60002749046110314160143031A101602449E9
:100C7000046118314160143032A10461C0E9001AE6
:100C8000143033A101601E490461283141601430E1
:100C900032A10160A0F52561046141602AE40000F1
:100CA000AC0A00202F636D645F76656C0000000065
:100CB0008C74000864656275675F64697300000086
:100CC0002F696E6672615F64697300002F736F6EC7
:100CD00061725F64697300002F6770735F706F7378
:100CE0006974696F6E5F655F646973002F67707305
:100CF0005F706F736974696F6E5F6E5F64697300B4
:100D0000580000202F6770735F706F736974696F8C
:100D10006E5F755F646973002F6770735F706F73C8
:100D20006974696F6E5F686561645F646973000010
:100D30002F6770735F72746B5F73746174655F6447
:100D4000697300002F616C663030315F6469730035
:100D50002F736D773130305F646973002F726F626B
:100D60006F745F76656C00007047FEE7FEE7FEE794
:100D7000FEE770477047704770B57A48408903288E
:100D800020D1794DB5F90000B0F5007F1AD0774C2D
:100D90007D2808DAB4F90010081A022803DD00F0F3
:100DA000EFFD00F0F5FDB5F9000010F17D0F09DD54
:100DB000B4F90010081A10F1020F03DA00F0E4FD94
:100DC00000F0E6FD6A48D0F8103100226949012B95
:100DD00009D0D0F8100100280CD1087802280FD0D3
:100DE00003280FD005E0087828B1012805D0022893
:100DF00000D00A7070BD012000E00220087070BDB4
:100E00000320FBE75C4803685B1C0360F1E710B557
:100E1000012001F030FB002804D0BDE81040012083
:100E200001F036BB10BD10B5022001F024FB0028F4
:100E300004D0BDE81040022001F02ABB10BD10B55F
:100E4000042001F018FB002804D0BDE81040042065
:100E500001F01EBB10BD10B5082001F00CFB0028EE
:100E600004D0BDE81040082001F012BB10BD10B541
:100E7000102001F000FB002804D0BDE81040102035
:100E800001F006BB10BD10B5202001F0F4FA10B13E
:100E9000202001F0FDFA402001F0EDFA10B14020D1
:100EA00001F0F6FA802001F0E6FA10B1802001F09E
:100EB000EFFA4FF48074204601F0DDFA10B12046BD
:100EC00001F0E6FA4FF40074204601F0D4FA00284D
:100ED00004D02046BDE8104001F0DABA10BD10B5CC
:100EE0004FF48064204601F0C6FA10B1204601F0AC
:100EF000CFFA4FF40064204601F0BDFA10B120464D
:100F000001F0C6FA4FF48054204601F0B4FA10B153
:100F1000204601F0BDFA4FF40054204601F0ABFA30
:100F2000002804D02046BDE8104001F0B1BA10BD41
:100F300010B501218C07204602F079F9012810D163
:100F40000121204602F07FF90C480168491C01602C
:100F50000B490888B0F57A7F01D2401C00E00020E0
:100F6000088010BDC00B0020FC000020F60000200F
:100F700000802142F4000020F00000200C0100203D
:100F80000801002000E0401E0028FCD170471CB57D
:100F90000146684600F066FD684600F071FD0028D5
:100FA000FAD01CBD08B5ADF800108DF802208DF800
:100FB0000330694601F0C7F808BD1CB50090002059
:100FC0008DF804008DF805108DF80620684601F0B4
:100FD000FAF91CBD08B58DF800008DF801108DF8E8
:100FE00002208DF80330684601F08FF908BD00003B
:100FF00030B5044685B0012144F2050000F0E4FF5D
:101000004FF40071ADF8101018218DF81310022064
:10101000FF4D8DF8120004A9284601F094F8291517
:10102000ADF8101048208DF8130004A9284601F0EF
:101030008AF80020ADF804000094ADF80600ADF881
:101040000800ADF80C000C20F24CADF80A0069461F
:10105000204601F059FA012240F22771204601F0A2
:10106000D5FA012240F22551204601F0CFFA402165
:10107000204601F07FFB01230F2200212520FFF7EE
:10108000A9FF0121204601F0B7FA05B030BDE24BBF
:10109000988840F2FF31401CB0FBF1F201FB1202D4
:1010A000D98801208A4200D1002070472DE9F047FD
:1010B0008246FFF7ECFF08B1012500E0002515B3DB
:1010C000D54EB488DFF84C8340F2255700223946CC
:1010D000404601F09BFA40F22779002249464046FB
:1010E00001F094FACD4901F804A0641CC4F309008E
:1010F000B08001223946404601F088FA0122494673
:10110000404601F083FA2846BDE8F087C2480288CD
:10111000418801208A4200D1002070472DE9F0412A
:10112000BC4E40F2255500222946304601F06EFAA9
:1011300040F2277700223946304601F067FAB64878
:10114000B74942888C5C4188491CC1F30901418040
:1011500001222946304601F059FA0122394630462B
:1011600001F054FA2046BDE8F0812DE9F041A94F85
:1011700040F225584146384601F0FFFAA64EA0B18C
:1011800030887588401CC0F30904384601F08EFA97
:10119000C0B2AC4205D100224146384601F036FAD1
:1011A00003E09F4932888854348040F227742146F6
:1011B000384601F0E2FA0028D5D0F088B1888142A3
:1011C00006D121463846BDE8F041002201F01EBAA2
:1011D0009248F188415C384601F064FAF088401C7E
:1011E000C0F30900F080BEE710B5012186B04804C5
:1011F00000F0F3FE0121052000F0E6FE0420ADF82A
:10120000100018208DF813000220814C8DF8120078
:1012100004A9204600F097FF0821ADF810104821DE
:101220008DF8131004A9204600F08DFF4FF4E13033
:1012300000900020ADF80400ADF80600ADF80800FD
:10124000ADF80C000C20774CADF80A00694620463A
:1012500001F05AF9002240F22771204601F0D6F938
:10126000012240F22551204601F0D0F940212046CC
:1012700001F080FA01230F2200212620FFF7AAFEA9
:101280000121204601F0B8F906B010BD624802897C
:10129000418901208A4200D10020704770B5614E1B
:1012A00040F2255500222946304601F0AFF95A494F
:1012B0005D484A89845C4A89521C6420B2FBF0F381
:1012C00000FB1320488101222946304601F09EF997
:1012D000204670BD2DE9F041524E40F2255841465E
:1012E000304601F04AFA002819D04B4D29896F8900
:1012F000491C6420B1FBF0F200FB1214304601F0EF
:10130000D5F9C0B2BC4206D141463046BDE8F041F5
:10131000002201F07BB944492A8988542C8122E7B4
:1013200010B5012186B0880400F057FE0121092084
:1013300000F04AFE4FF48060ADF8100018208DF8E0
:1013400013000220394C8DF8120004A9204600F049
:10135000FAFEE114ADF8101048218DF8131004A91D
:10136000204600F0F0FE4FF4E13000900020ADF890
:101370000400ADF80600ADF80800ADF80C000C2034
:101380002B4CADF80A006946204601F0BDF800225A
:1013900040F22771204601F039F9012240F225512F
:1013A000204601F033F94021204601F0E3F9012302
:1013B0000F2200212720FFF70DFE0121204601F01A
:1013C0001BF961E714488289C18901208A4200D152
:1013D0000020704770B5164E40F225550022294670
:1013E000304601F013F90C490F48CA896430845C17
:1013F000CA89521C6420B2FBF0F300FB1320C881A1
:1014000001222946304601F001F9204670BD000056
:101410000008014000380140D8000020CC0F002017
:10142000CC0B002000440040CC130020000C0140F5
:10143000004800402DE9F041AC4E40F225584146AD
:10144000304601F09AF9002819D0A94DA989EF89F1
:10145000491C6420B1FBF0F200FB1214304601F08D
:1014600025F9C0B2BC4206D141463046BDE8F04144
:10147000002201F0CBB89F49AA898854AC8172E65A
:1014800010B5012186B0C80400F0A7FD012111208C
:1014900000F09AFD4FF48060ADF8100018208DF830
:1014A00013000220944C8DF8120004A9204600F08D
:1014B0004AFEE114ADF8101048218DF8131004A96C
:1014C000204600F040FE4FF4165000900020ADF88A
:1014D0000400ADF80600ADF80800ADF80C000C20D3
:1014E000864CADF80A006946204601F00DF800224E
:1014F00040F22771204601F089F8012240F225517F
:10150000204601F083F84021204601F033F9012301
:101510000F2200213420FFF75DFD0121204601F05C
:101520006BF8B1E67248028A418A01208A4200D1F2
:101530000020704770B5714E40F2255500222946B3
:10154000304601F063F86A496A484A8A6430845C2C
:101550004A8A521C6420B2FBF0F300FB132048823D
:1015600001222946304601F051F820464EE72DE988
:10157000F041624E40F225584146304601F0FDF8F8
:1015800000281AD05A4D298A6F8A491C6420B1FB61
:10159000F0F200FB1214304601F088F8C0B2BC42F1
:1015A00006D141463046BDE8F041002201F02EB898
:1015B00050492A8A643188542C82D4E510B501211F
:1015C00086B0080500F009FD0121312000F0FCFC87
:1015D0004FF48050ADF8100018208DF81300022051
:1015E0008DF8120004A9444800F0ADFD0420ADF8C8
:1015F000100048208DF8130004A9414800F0A3FD15
:101600004FF4E13000900020ADF80400ADF8060082
:10161000ADF80800ADF80C000C203A4CADF80A000B
:101620006946204600F070FF002240F227712046F4
:1016300000F0ECFF012240F22551204600F0E6FFC9
:101640004021204601F096F801230F220021352089
:10165000FFF7C0FC0121204600F0CEFF14E624482D
:10166000828AC18A01208A4200D10020704770B569
:10167000244E40F2255500222946304600F0C6FF90
:101680001B4A1C48D18AC830445CD08A401CC0F335
:101690000900D08201222946304600F0B7FF2046DB
:1016A000B4E62DE9F041174F40F22558414638463F
:1016B00001F063F8002817D00D4EB08AF58A401C5F
:1016C000C0F30904384600F0F1FFC0B2AC4206D1C5
:1016D00041463846BDE8F041002200F097BF054979
:1016E000B28AC8318854B4823DE500000048004009
:1016F000D80000203014002000100140004C0040B1
:1017000000140140005000409049012008607047DB
:101710008E4900200860704770B50121082000F054
:1017200053FC8B4E0222102311023046FFF73AFC85
:10173000884C0120A06001464FF0080000F044FCF6
:101740001023022280213046FFF72CFC0025256063
:101750000121402000F038FC1023022201217E48A4
:10176000FFF720FC0121042000F02EFC10230222B0
:1017700040217A48FFF716FC7948C0F898510121BA
:10178000082000F021FC3046BDE8704048230222CA
:101790001021FFF707BC30B5012187B0084600F0E3
:1017A00013FC0121022000F018FC18230222402122
:1017B0006A48FFF7F7FB6B4D284601F00DF840F241
:1017C000DC50ADF814006848684900240068ADF8A2
:1017D0001640B0FBF1F1491EADF81010ADF8124003
:1017E00004A9284601F090F86020ADF8000001201F
:1017F000ADF80200ADF80640ADF80840694628464D
:1018000001F0BBF80821284601F0E8FB0121284639
:1018100001F0BCFB0121284601F00DFB07B030BDF3
:1018200030B587B00121082000F0CEFB0121084629
:1018300000F0CAFB0121042000F0CFFB1823022294
:1018400080214348FFF7AEFB494D284600F0C4FF16
:1018500040F2DC50ADF814004348464900240068CB
:10186000ADF81640B0FBF1F1491EADF81010ADF81F
:10187000124004A9284601F047F86020ADF80000A6
:101880000120ADF80200ADF80640ADF80840694609
:10189000284601F0A7F80821284601F0A5FB012100
:1018A000284601F073FB0121284601F0C4FAB5E790
:1018B000314A3249012800D000201080C1F880014F
:1018C000704710B5031E03DA404203B2002001E066
:1018D00002DD0120FFF7ECFFBDE8104099B224487B
:1018E00001F07FBC30B44FF4AF635C42984201DD3D
:1018F000184602E0A04200DA20461F4AB2F9021060
:10190000814209DA002905DA891C09B25180814235
:101910000ADC0DE0491C0AE00ADD002906DD891E0B
:1019200009B25180814203DA508001E0491E5180A2
:10193000B2F90210994201DD538002E0A14200DABF
:101940005480B2F9020030BCBBE7000080012342A2
:10195000000C01409C812142001801400008014018
:1019600000002142000400404801002000366E01C2
:1019700000080040009F2400C00B0020000023420C
:10198000174900200860704715490120086070471A
:1019900014481549028822B100220280C1F8B421FE
:1019A00070470122F9E770B50121402000F00CFBDF
:1019B0000E4E02221023D1023046FFF7F3FA084CF4
:1019C000002525604FF001014FF0400000F0FCFAC7
:1019D0000222102311033046FFF7E4FA656070BD60
:1019E000B0012342F800002000002342001801400B
:1019F000FFF746BD10B5FFF795FD4FF40074C8B171
:101A0000FFF798FD164B014658885A680328115471
:101A100002D2401C58800DE01078EE2802D1507898
:101A2000DD2809D00021501840785054491C89B253
:101A30000329F8D3204610BD9178032901D91C80D1
:101A400009E002294FEA0120D178084401D3A0F52A
:101A500080604042188000205880B3F9000010BD1B
:101A6000FC00002041603A49096801607047D0E9F4
:101A700000121144016070473549096801607047E0
:101A800033490268406809688A4201D8891A01E02E
:101A9000D2431144814201D3012070470020704796
:101AA0002B4A01681268914201D8511A01E0C943DA
:101AB00011444068401A70473EB50121084600F0C5
:101AC0008CFA4FF08044204600F086FE214842F216
:101AD00010710068B0FBF1F1ADF804100920ADF809
:101AE00000000021ADF80610ADF80210694620464E
:101AF00000F00AFF0121204601F048FA01221146B8
:101B0000204601F0ADF901230F2200211C20FFF730
:101B100061FA0121204601F08EF93EBD0D484FF4D7
:101B20007A610068B0FBF1F0B0F1807F0ED220F056
:101B30007F414FF0E020491E4161074AF0211170BA
:101B40004FF0000181614FF0070101617047000013
:101B50000C0100204801002023ED00E0FFF72EBD1E
:101B6000F0B590F87360002281F873600123047867
:101B7000732503E0C75C7C405B1C9BB2AB42F9DB86
:101B8000B44204D007E0835C8B54521C92B2AA4248
:101B9000F9DB0120F0BD0020F0BD10B5FFF75FFDBF
:101BA00058B3FFF764FD164C02462188606873291C
:101BB000425402D2491C21801FE00178472913D1E9
:101BC00041784E2910D1817853290DD1C1785329FC
:101BD0000AD10179742907D10A49FFF7C1FF18B169
:101BE00000202080012010BD616800200A18527872
:101BF0000A54401C80B27328F8D3002010BD0000A6
:101C0000100100206C190020FFF7EEBA70B500211A
:101C10000F24434D0B460222865C521C334492B281
:101C2000DBB20D2AF8D3827B9A4205D0002070BD2A
:101C3000425C6A54491C89B2A142F9D3012070BDAB
:101C400010B5FFF723FB10B3FFF728FB354C024616
:101C5000218860680E29425402D2491C218016E076
:101C60000178AA290AD1417841B9417B31B9FFF7FE
:101C7000CDFF18B100202080012010BD6168002038
:101C80000A1852780A54401C80B20E28F8D300205B
:101C900010BDFFF745BB70B50021224D08240C355F
:101CA0000A460B4630F81260521C334492B29BB283
:101CB000032AF7D3C2889A4205D0002070BD425C47
:101CC0006A54491C89B2A142F9D3012070BD10B5F4
:101CD000FFF778FB08B3FFF77DFB124C02466188E3
:101CE000A0680729425402D2491C618015E001789E
:101CF000FF2909D14178FF2906D1FFF7CCFF18B1A0
:101D000000206080012010BDA16800200A185278D0
:101D10000A54401C80B20728F8D3002010BD0000F0
:101D2000EF19002018010020CB48016841F00101A3
:101D300001604168C94A114041600168C84A1140C8
:101D40000160016821F480210160416821F4FE01F5
:101D50004160016821F0A05101604FF47F01816072
:101D60000021C1627047BC490A6822F480320A60CF
:101D70000A6822F480220A60B0F5803F07D0B0F5EF
:101D8000802F03D1086840F4A020086070470868DD
:101D900040F48030F9E7034600205909AE4A012992
:101DA0000AD002290AD0516A03F01F02012393408E
:101DB0000B4200D0012070471168F5E7116AF3E784
:101DC00030B500244FF4A0653120FFF7E4FF641C18
:101DD000AC4201D00028F7D03120FFF7DCFF00280B
:101DE00000D0012030BD9C4A116821F0F80141EA81
:101DF000C000106070479B4908607047964B5A6856
:101E0000084322F4741210435860704795490866DD
:101E10007047914B10B5DA6A934C08432240104347
:101E2000D86210BD8C4AD16A21F0F0010143D16221
:101E30007047894AD16A21F470610143D1627047C9
:101E4000884988667047844AD16A21F47041014309
:101E5000D16270478349086770477F4A516821F013
:101E600003010143516070477B48406800F00C005B
:101E70007047794A516821F0F00101435160704781
:101E8000754A516821F4E061014351607047724A1C
:101E9000516821F4605141EAC000506070476E4AB9
:101EA0000029517A01D0014300E08143517270470B
:101EB0006E4908607047684A516821F44041014307
:101EC000516070476A49086070476A490860704706
:101ED000694900220A7001F82029012802D004284B
:101EE00002D1052081F820007047644908607047DE
:101EF00059490A6A02430A6270476149086070479B
:101F000070B5554B59685F4A11F00C0104D05E4C16
:101F1000042903D0082903D0026029E0046027E0E7
:101F200059685A6801F47011890C02F480320D2945
:101F300001D0891C00E00621BAB1DA6A12F4803FB0
:101F4000DA6A02F00F0202F101020AD0DD6ADE6AEB
:101F5000C5F303156D1CB4FBF5F4C6F30326B61CDC
:101F60007443B4FBF2F24A43D6E7484A5143016056
:101F70005968474A01F0F0010909545C0168E140E1
:101F800041605C6804F4E064240A145D21FA04F4FE
:101F900084605C6804F46054E40A125DD140C1605E
:101FA0005A683B4B02F44042920B1B1F9A5CB1FBF8
:101FB000F2F1016170BD284A0029516901D0014345
:101FC00000E0814351617047234A0029916901D0A3
:101FD000014300E08143916170471F4A0029D169A4
:101FE00001D0014300E08143D16170471A4A0029C2
:101FF000916A01D0014300E0814391627047164A23
:102000000029D16801D0014300E08143D1607047CD
:10201000114A0029116901D0014300E08143116197
:1020200070471C49086070470E49C86470470A49E8
:10203000C87170470848416A41F080714162704739
:10204000054A0146002092680A4200D001207047EC
:102050000149887270470000001002400000FFF044
:10206000FFFFF6FE00004242F0FFFEFFD8004242B2
:10207000C4054242C8054242201002408004424248
:102080003C04424200127A0040787D0100093D0084
:1020900038010020400442428F4910B5884206D1E1
:1020A00001210420FFF7ABFF002104203BE08B4916
:1020B000884206D101210820FFF7A1FF0021082056
:1020C00031E08749884206D101211020FFF797FFB0
:1020D0000021102027E08349884206D101212020D9
:1020E000FFF78DFF002120201DE07F49884206D1A7
:1020F00001214020FFF783FF0021402013E07B49AE
:10210000884206D101218020FFF779FF002180203D
:1021100009E0774988420AD1841501212046FFF75A
:102120006EFF00212046BDE81040FFF768BF10BDDC
:1021300010B501210846FFF762FF0021BDE81040FD
:102140000120FFF75CBFF0B5CC78002204F00F034C
:10215000E40601D58C7823430C884FF00F0C14F063
:10216000FF0F4FF0010E1AD005680E880EFA02F428
:102170002640A6420FD196000CFA06F7BD4303FA9B
:1021800006F63543CE78282E02D0482E02D002E043
:10219000446100E00461521C082AE6D305600A8805
:1021A000FF2A1DD94568002202F108060EFA06F43E
:1021B0000E882640A6420FD196000CFA06F725EAB3
:1021C000070703FA06F5CE783D43282E00D1446177
:1021D000CE78482E00D10461521C082AE4D3456011
:1021E000F0BD4FF6FF710180022181700421C170A2
:1021F00070470246002092680A4200D001207047D2
:10220000806880B2704702460020D2680A4200D03F
:1022100001207047C06880B270470161704741611A
:1022200070470AB10161704741617047C1607047F2
:1022300041F4803282618161826181698069704785
:102240002C4B10B51A684FF68074224042EA0010F9
:102250000843186010BD2849C8617047F0B5254C87
:10226000002801DAE36900E06368420D120185B2DB
:10227000C0F301579540C0F30346032F05D0C202B7
:102280000AD50322B240934307E023F070626368EB
:1022900023F07063636002E0AB4343F0706201B10E
:1022A0002A43002801DAE261F0BD6260F0BD10B59A
:1022B0008A0721F003040F49120F21440F238C6871
:1022C00093409C438C608B68904003438B6010BDAF
:1022D0000A4908607047000000080140000C0140F6
:1022E000001001400014014000180140001C014092
:1022F000002001400000014000002042DC0020429C
:102300002849084328490860704770B50F24C278EF
:1023100001784FF0E0230126E2B1D3F80C2D1944E7
:1023200002F4E062C2F5E062120AC2F10405D44090
:102330004278AA408578254015432A0181F8002477
:10234000007800F01F018E40400903EB8000C0F8C8
:10235000006170BD01F01F008640480903EB80005A
:10236000C0F8806170BD114A1140014310480160FE
:1023700070474FF0E0220029D2F8101D01D0014330
:1023800000E08143C2F8101D70474FF0E02104289F
:10239000086903D020F004000861704740F0040091
:1023A000FAE700000000FA050CED00E080FFFF1FD7
:1023B00008ED00E038480021016041608160C160A3
:1023C00036494161704730B5334A8179036899B322
:1023D00011460C6824EA03040C604B68046823EA85
:1023E00004034B60047904EB02031C68056844EAAB
:1023F00005041C608B68046823EA04038B60CB68C7
:10240000046823EA0403CB604379A1F58061102BB3
:1024100005D099180A68006802430A6030BD01F5CA
:1024200081610A68036842EA03020A604A68006838
:1024300042EA00024A6030BDFFE7007910440168BB
:1024400099430160F7E70021016001710C2242719C
:102450008171704712490A6842EA00020A607047B7
:10246000104A0146002012680A4200D0012070473D
:102470000C4908607047084B014600201A685B69E8
:1024800002EA01020B4202D0002A00D0012070476C
:10249000044908607047000000040140FFFF0F007E
:1024A0001004014014040140C64910B588420AD105
:1024B00001218C032046FFF7A2FD2046BDE8104015
:1024C0000021FFF79CBDC049884202D101214C0484
:1024D00010E0BE49884202D101218C040AE0BC49C7
:1024E000884202D10121CC0404E0BA4988420AD1D1
:1024F00001210C052046FFF78BFD2046BDE810406A
:102500000021FFF785BD10BD30B50D46018A85B0AD
:1025100004464CF6FF700140E88808432082A089F9
:102520004EF6F3110840A9882A8911436A890243AB
:102530001143A181A18A4FF6FF400140A8890843B9
:10254000A0826846FFF7DCFC9E48844201D10398D4
:1025500000E00298A1890904002900EBC00101EB09
:102560000010296802DA4FEA410101E04FEA8101D7
:10257000B0FBF1F06422B0FBF2F14FEA01114FEA37
:1025800011136FF018056B4300EB8300A3891D0442
:102590004FF0320306D503EBC000B0FBF2F000F0C1
:1025A000070005E003EB0010B0FBF2F000F00F00B5
:1025B0000843208105B030BD4FF416510160002161
:1025C0008180C18001810C2242818181704710B5D8
:1025D000028A4FF2FF031A400B884C8823438C88F1
:1025E000C9880C4323431343038210BD002101809B
:1025F00041808180C18070470029818902D041F4E7
:10260000005101E021F400518181704710B5C1F300
:10261000421301F01F040121A140012B07D0022B1E
:1026200007D01430002A026805D00A4304E00C30B9
:10263000F8E71030F6E78A43026010BD002A828A6C
:1026400001D00A4300E08A4382827047028A22F066
:102650000F020282028A0A4302827047828922F4B0
:102660000062828182890A438281704700298189C0
:1026700002D041F0020101E021F0020181817047A6
:10268000028A22F020020282028A0A4302827047F2
:102690000029018A02D041F4804101E021F4804107
:1026A00001827047C1F30801818070478088C0F3C0
:1026B00008007047818941F0010181817047028BD8
:1026C000D2B20283028B42EA012101837047028B5E
:1026D00002F47F420283028B0A430283704700297F
:1026E000818A02D041F0200101E021F020018182A5
:1026F00070470029818A02D041F0100101E021F0E9
:102700001001818270470029818A02D041F00801BE
:1027100001E021F00801818270470029818902D0FF
:1027200041F4004101E0C1F30E01818170470029AD
:10273000818A02D041F4006101E021F400618182CC
:102740007047828A22F004028282828A0A4382824D
:1027500070470029818A02D041F0020101E021F096
:102760000201818270470246002012880A4200D08E
:1027700001207047C9430180704770B501F01F0602
:1027800001250024C1F3421305FA06F2012B0FD0F4
:10279000022B0FD0838A4FEA11210088134205FAD9
:1027A00001F500EA050001D000B10124204670BD0A
:1027B0008389F0E7038AEEE70A0A01219140C943C1
:1027C000018070470038014000440040004800404C
:1027D000004C004000500040FA4910B5884202D138
:1027E0000121C41486E0B0F1804F09D0F649884237
:1027F0000DD101210220FFF70BFC0021022064E033
:1028000001210846FFF704FC002101205DE0EF49AB
:10281000884206D101210420FFF7FAFB00210420A1
:1028200053E0EB49884206D101210820FFF7F0FB75
:102830000021082049E0E749884206D10121102003
:10284000FFF7E6FB002110203FE0E349884206D174
:1028500001212020FFF7DCFB0021202035E0DF49AB
:10286000884202D10121441444E0DD49884202D16A
:102870000121CC043EE0DB49884202D101210C0554
:1028800038E0D949884202D101214C0532E0D749CC
:10289000884206D101214020FFF7BAFB00214020E9
:1028A00013E0D349884206D101218020FFF7B0FB15
:1028B0000021802009E0CF4988420AD184150121F6
:1028C0002046FFF7A5FB00212046BDE81040FFF79A
:1028D0009FBBC949884202D101210C040AE0C749C3
:1028E000884202D101214C0404E0C54988420AD142
:1028F00001218C042046FFF782FB2046BDE81040F2
:102900000021FFF77CBB10BD30B50288AD4CB34D44
:10291000A0420DD0A8420BD0B0F1804F08D0AA4BF6
:10292000984205D0A94B984202D0A94B984203D1B6
:1029300022F070034A881A43A64B984206D0A64B51
:10294000984203D022F44073CA881A4302808A88CE
:1029500082850A880285A0420AD0A84208D0A64AE9
:10296000904205D0A54A904202D0A54A904201D19A
:10297000097A01860121818230BD30B5028C22F0B6
:1029800001020284028C8388048B22F0020224F06C
:1029900073050C882C430D8915434A882A43894DB9
:1029A000A8420BD08D4DA84208D0934DA84205D027
:1029B000924DA84202D0924DA8420DD122F00805B6
:1029C0004A8923F440732A4322F004058A882A4363
:1029D0008D891D43CB892B4383800483C9888186DD
:1029E000028430BD30B5028C22F010020284028CC9
:1029F0008388048B22F0200224F4E6450C88240608
:102A000045EA14440D892D0542EA15454A88120508
:102A100045EA12426B4DA84202D0704DA84215D132
:102A200022F080054A8923F44063120545EA1242E8
:102A300022F040058A88120545EA12428D89AD04CC
:102A400043EA1545CB899B0445EA134383800483FD
:102A5000C9880187028430BD30B5028C22F48072AF
:102A60000284028C8388848B22F4007224F0730524
:102A70000C882C430D892D0642EA15454A8812061A
:102A800045EA12424F4DA84202D0544DA84215D1FA
:102A900022F400654A8923F44053120645EA1242A3
:102AA00022F480658A88120645EA12428D892D0536
:102AB00043EA1545CB891B0545EA1343838084838C
:102AC000C9888187028430BD30B5028C22F48052DF
:102AD0000284048C8288838B23F4E6450B881B06D2
:102AE00045EA134324F400550C89240745EA1444AD
:102AF0004D882D0744EA1545324CA04202D0374C90
:102B0000A04205D122F480448A89920544EA124207
:102B100082808383C988A0F84010058430BD828BF1
:102B200022F440628283828B42EA012282837047D0
:102B3000828B22F00C028283828B0A43828370474D
:102B4000028B22F440620283028B42EA012202835A
:102B5000704770B5048C24F010040484068B048C38
:102B600026F473461B0746EA1343120643EA124251
:102B70000D05144B2D0C98420ED0184B98420BD0DB
:102B8000B0F1804F08D0104B984205D00F4B9842BF
:102B900002D00F4B984205D124F02001294341F087
:102BA000100104E024F0A0030B4343F01001028362
:102BB000018470BD028B22F00C020283028B0A4357
:102BC00002837047002C01400004004000080040D0
:102BD000000C004000100040001400400034014090
:102BE000004C0140005001400054014000180040DA
:102BF000001C004000200040004001400044014013
:102C00000048014030B5048C24F001040484058B95
:102C1000048C1B0542EA134325F0F305F94A2B43C4
:102C200090420ED0F84A90420BD0B0F1804F08D0BD
:102C3000F64A904205D0F64A904202D0F54A9042B8
:102C400002D124F0020201E024F00A020A4342F019
:102C500001010383018430BD2DE9F05F0D46044678
:102C60000888E84EE84FDFF8A483DFF8A49349888A
:102C7000AA882B894FF0804A28B104280BD0082855
:102C8000934610D03DE02046FFF7BCFFE988204680
:102C9000BDE8F05F8EE72046FFF75BFFE98820463E
:102CA000BDE8F05F4CE7208C20F480702084A28B7C
:102CB000208C1B0522F0F3024BEA13434FEA016C10
:102CC00013434FEA1C4EB4420AD0BC4208D05445CC
:102CD00006D0444504D04C4502D0CE4A944204D19B
:102CE00020F4007040EA0E0002E020F42060084367
:102CF00040F48070A3832084E9882046BDE8F05F1B
:102D000016E7208C20F480502084B4F81CC0208C5E
:102D10000A074FEA124E2CF4734C4FEA0B621B0762
:102D20004CEA124242EA1343B4420AD0BC4208D0F1
:102D3000544506D0444504D04C4502D0B54A94428F
:102D400004D120F4005040EA0E0002E020F40240DA
:102D5000084340F48050A3832084E9882046BDE8DE
:102D6000F05FDCE62DE9F0410C4600254988074676
:102D7000012601B90225A288012A00D10226208855
:102D800023890028384610D0FFF7E3FEE188384653
:102D9000FFF7D6FE2389324629463846FFF732FF31
:102DA000E1883846BDE8F04104E7FFF72BFFE188F2
:102DB0003846FFF7FFFE2389324629463846FFF79B
:102DC000C8FEE1883846BDE8F041B9E610B50A888A
:102DD0004B88CC881A438B8823431A430B891A43A8
:102DE0004B8989891A430A43A0F8442010BD4FF645
:102DF000FF71818000210180C18041800172E0E685
:102E00000021018041808180C180018141818181D7
:102E1000C181D6E600210180418001228280C180EB
:102E20000181CEE60021018041808180C180018145
:102E300041818181C5E60029018802D041F001016C
:102E400001E021F001010180BBE6002930F8441FB8
:102E500002D041F4004101E0C1F30E010180B0E66F
:102E6000002A828901D00A4300E08A438281A8E6D1
:102E70008182A6E61143A0F84810A2E6002A8289C2
:102E800001D00A4300E08A4382819AE6018921F059
:102E90000701018195E6028922F070020A4302814E
:102EA0008FE6028922F070020A430281018941F013
:102EB0000701018185E670B50D4611460446602D77
:102EC0004FF001020BD0FFF79DFE208920F070002B
:102ED00028432081208940F00700208170BDFFF742
:102EE00038FEF2E710B5048942EA0323E4B20B434B
:102EF0002343038110BD10B50446FFF7F3FF20897B
:102F000040F07700208110BD10B50446FFF7EAFFBE
:102F1000208940F48040208110BD0185828250E6E6
:102F2000028822F070020A4302804AE670B50589E1
:102F3000048B068C25F007050D434FF6FC410C4031
:102F400040F201110C4326F0220642EA03113143FC
:102F500005810483018470BD028B22F070020A4354
:102F600002832EE6028B22F4E04242EA0121018331
:102F700027E6828B22F070020A43828321E6828B4D
:102F800022F4E04242EA012181831AE60029018805
:102F900002D041F0800101E021F08001018010E6C3
:102FA0000029818802D041F0040101E021F00401F0
:102FB000818006E60029818802D041F0080101E005
:102FC00021F008018180FCE50029818802D041F0D0
:102FD000010101E021F001018180F2E5028B22F084
:102FE00008020A430283ECE5028B22F4006242EA03
:102FF00001210183E5E5828B22F008020A438283E6
:10300000DFE50000002C01400034014000040040D6
:1030100000080040000C0040828B22F4006242EA6B
:1030200001218183CDE5028B22F004020A43028351
:10303000C7E5028B22F4806242EA01210183C0E5E8
:10304000828B22F004020A438283BAE5828B22F447
:10305000806242EA01218183B3E5028B22F0800283
:103060000A430283ADE5028BC2F30E0242EA01215C
:103070000183A6E5828B22F080020A438283A0E5C9
:10308000828BC2F30E0242EA0121818399E5028C10
:1030900022F002020A43028493E5028C22F0080225
:1030A0000A4302848DE5028C22F0200242EA0111DB
:1030B000018486E5028C22F0800242EA011101843B
:1030C0007FE5028C22F4007242EA0121018478E556
:1030D000028C22F4006242EA0121018471E5028C33
:1030E00022F4005242EA013101846AE510B501235D
:1030F000048C8B409C430484038C8A4013430384D8
:1031000010BD10B50423048C8B409C430484038CB5
:103110008A401343038410BD30B50124058C00F1AF
:1031200018038C40A543058479B108290DD0091FE7
:1031300088B203EB5000016821F4E04101600168AE
:103140001206120C1143016030BD03EB51000168FF
:1031500021F0700101600168F4E70029018802D0C4
:1031600041F0020101E021F00201018029E500297E
:10317000018802D041F0040101E021F00401018046
:103180001FE50029818802D041F0800101E021F093
:103190008001818015E5028822F008020280028801
:1031A0000A4302800DE5828822F0700282808288C4
:1031B0000A43828005E5028922F007020281028922
:1031C0000A430281FDE4028922F080020281028921
:1031D0000A430281F5E48184F3E48185F1E4818688
:1031E000EFE40187EDE48187EBE4A0F84010E8E428
:1031F000028822F44072028002880A430280E0E4DE
:10320000808EDEE4008FDCE4808FDAE4B0F84000EA
:10321000D7E4808CD5E4008DD3E402460020128AE6
:103220000A4200D00120CCE4C9430182C9E402462D
:103230000020138A92890B4202EA010202D0002A7E
:1032400000D00120BDE4C9430182BAE45E490020F8
:103250000A6842F480320A604FF4A0630A6800F101
:10326000010012F4003F01D19842F7D108688003B1
:103270003FD55648026842F010020260026822F010
:1032800003020260026842F002020260486848607D
:1032900048684860486840F480604860C86A4C4AA2
:1032A0001040C862C86A4B4A1043C862086840F0C0
:1032B0008060086008680001FCD5486820F47C1034
:1032C0004860486840F4E8104860086840F0807042
:1032D000086008688001FCD5486820F00300486059
:1032E000486840F0020048604868C0F38100022846
:1032F000FAD17047344810B5016841F0010101600E
:103300004168354A114041600168344A114001600A
:10331000016821F480210160416821F4FE014160CF
:10332000016821F0A05101604FF47F01816000210C
:10333000C162FFF78BFF2A494FF00060086010BDA3
:1033400070B5214B5868274A274910F00C0004D06B
:10335000264C042803D0082803D00A6029E00C601A
:1033600027E058685A6800F47010800C02F480322C
:103370000D2801D0801C00E00620BAB1DA6A12F4F0
:10338000803FDA6A02F00F0202F101020AD0DD6A20
:10339000DE6AC5F303156D1CB4FBF5F4C6F3032612
:1033A000B61C7443B4FBF2F24243D6E7104A5043D2
:1033B000086058680C4AC0F30310121D105C0A68BC
:1033C000C2400A6070BD00000010024000200240B0
:1033D00000F0FEFF440601000000FFF0FFFFF6FED4
:1033E00008ED00E000127A004801002040787D01DD
:1033F00000093D000948804709480047FEE7FEE70D
:10340000FEE7FEE7FEE7FEE7FEE7FEE7FEE7FEE794
:1034100004480549054A064B70470000F53200088C
:1034200051010008601A002060200020601C00206C
:10343000601C002010B51D4B0C68B4FBF3F203FBBD
:1034400012430468224402600B6010BD10B5174A95
:10345000044691FBF2F0206002FB10106060211D19
:103460002046FFF7E7FF204610BD10B50446006870
:103470000A68104420606068496808446060211D43
:103480002046FFF7D7FF204610BD10B50446006860
:103490000A68801A206060684968401A6060211DCF
:1034A0002046FFF7C7FF204610BD000000CA9A3B28
:1034B00070B506460D46041F00F0E2F9D0F800C0D2
:1034C000DDB1FEB12A1D082A38BF0822D01D20F028
:1034D0000703AB423CBF002070BD2068834288BF19
:1034E000DCF8042013D8C11A08292FD3E01840F8BB
:1034F000041B236000F043FA28E0304600F03FFA56
:10350000002070BD2846BDE8704000F006BA002AD1
:1035100018BF944284BF94465268F8D8011991426A
:1035200016D111680844984212D3C11A08293CBF29
:103530002060506808D35168E01841602168126823
:103540001144C91A01602360CCF80400201D70BD2D
:10355000181F00F0E2F9050007D021680A1F211D9D
:1035600000F047F9201D00F00AFA284670BD00005F
:103570000FB41CB5074B06AA7B446946009005981A
:1035800000F095FC0020694600F0A4FC1CBC5DF82E
:1035900014FB0000590900002DE9F0418046002687
:1035A00010687529414615A512D0AFF30080002898
:1035B00003DAC0F1000012A508E0D8F800108A076D
:1035C00001D510A502E0490704D50FA5012601E0A9
:1035D000AFF30080002408F1240704E000F07FFC32
:1035E00030313955641C0028F8D133462A4621462B
:1035F0004046BDE8F04100F0F4B9000000000000D2
:103600002D0000002B000000200000002DE9F05FDD
:103610004FF0000B044689464FF0010AC0F820B075
:103620002046E168884798B3252806D0D4E90121CF
:103630009047206A401C2062F2E7E168204600269D
:103640008847C4F81CB005460027C4F818B02A2DD6
:103650000DD05246A5F130010A292ED2BAF1000F41
:103660002BD0924604EB8708C8F818101AE059F8D6
:10367000041B204604EB87029161E1688847012F13
:1036800005461CD1E069002824DA26F0200621E056
:1036900048E0D8F8180000EB800005EB4000303817
:1036A000C8F818002046E1688847A0F130010546B7
:1036B0000A2902D2BAF1000FEBD1012F0AD02E2D28
:1036C00008D12046E16888477F1C0546022F46F056
:1036D0002006BCDBA069002803DA404246F0010660
:1036E000A061F00701D026F01006DDB1A5F1410080
:1036F000192802D8203546F400664A462946204655
:1037000026604E46FCF77EFD50B1012805D0F61D1F
:1037100026F0070000F1080982E706F104097FE7B7
:10372000284683E7206ABDE8F09F10B5431C02E0FD
:1037300010F8011B71B18107FAD14FF0013202C8B4
:103740008C1A8C4314EAC211F9D0C01A0A0603D0AD
:10375000C01E10BDC01A10BD0A0401D0801E10BDCD
:103760000902FCD0401E10BD032A40F2308010F048
:10377000030C00F0158011F8013BBCF1020F62440C
:1037800098BF11F801CB00F8013B38BF11F8013B9D
:10379000A2F1040298BF00F801CB38BF00F8013B4A
:1037A00011F0030300F02580083AC0F0088051F8BA
:1037B000043B083A51F804CBA0E80810F5E7121DC5
:1037C0005CBF51F8043B40F8043BAFF30080D207E4
:1037D00024BF11F8013B11F801CB48BF11F8012BB0
:1037E00024BF00F8013B00F801CB48BF00F8012BD3
:1037F000704710B5203AC0F00B80B1E81850203A5D
:10380000A0E81850B1E81850A0E81850BFF4F5AF80
:103810005FEA027C24BFB1E81850A0E8185044BF0A
:1038200018C918C0BDE810405FEA827C24BF51F877
:10383000043B40F8043B08BF7047D20728BF31F86B
:10384000023B48BF11F8012B28BF20F8023B48BFBC
:1038500000F8012B704770477047704770B5064CF1
:103860007C44064D7D4403E0206820448047241DAD
:10387000AC42F9D170BD0000E83C0000E83C00001B
:1038800001487047704700BF081A00207047704712
:103890007047704738B504460A4600206946AFF3C2
:1038A0000080002808BF38BD02460099204600F07D
:1038B00036FB012038BD012000F044BCF8B5AFF361
:1038C0000080054600200C46102000BF0646284414
:1038D000A0420DD9324669460020AFF300800700B0
:1038E00008BF00F02FFC0098A04218BF0546C4197D
:1038F000FFF7C6FF05600746F01D20F007004619D8
:10390000284600F005FBB44208BFF8BDA21B3146B3
:103910003868BDE8F84000F002BB70B50646FFF716
:10392000AFFF0568301D082838BF0820C01D20F0F3
:103930000704B4429CBF002070BD2B466A68BAB130
:103940001068A04210D304F1080188423CBF5068BF
:10395000586007D35168101941601168091B016054
:1039600058601460101D70BD13465268002AE7D1DC
:1039700021462846FFF78EFF0028DED170BD70B5C6
:103980000446051FFFF77CFF0068002C14BF446845
:1039900070BD002C18BFA54284BF20466468F8D8CB
:1039A00001680A18AA4218BF456003D12A68054673
:1039B0001144016028684119A1421CBF6C6070BDB0
:1039C0006168696021680844286070BD10B500F026
:1039D00099FA006810BD10B5044600F093FA04602F
:1039E00010BD2DE9F0470D4604469246994600F178
:1039F00024080168880604D5E06921F010012160DF
:103A000000E001200027A84201DDA0EB0507A16925
:103A100007EB050202EB0300A1EB0000A0612068A8
:103A2000C00602D42046AFF30080002608E0D4E9A7
:103A300001211AF806009047206A401C761C20627B
:103A40004E45F4DB2068C0060AD52046AFF300805F
:103A500006E0D4E9012130209047206A401C206212
:103A6000381EA7F10107F4DC07E0D4E9012118F8BA
:103A700005009047206A401C2062281EA5F1010520
:103A8000F3DC2046AFF3008021680220090600D451
:103A90000120BDE8F08770472DE9FF4F0C461E4618
:103AA0004FF0FF3789B0D2E90001DDF85880069069
:103AB0008946C1F30A5505B93D46002108464FF035
:103AC0000000B9F1000F00F4400005DA00EB8000BF
:103AD0004FF4400101EA50004FEA905ABAF1010F49
:103AE00000DDBA46069850EA49002CD044F6105042
:103AF000A5F2FF354543CAF1000008902F14B8F134
:103B0000000F39D07542089A291E00DC524600DAAF
:103B1000694203A800F0A0FA0699484600F0DEFBCF
:103B20008DE80700A0F500501F3800900398002D85
:103B300025DD42F21F015246084403A9039068465E
:103B400000F03DFE24E0B8F1010F4FF0000001D17C
:103B5000F24307E0302101E02154401CB042FBDB7E
:103B600030460022002121540999C1F80880C1E99A
:103B700000200DB0BDE8F08FBD1B6D1CC3E7A0F5A4
:103B8000005052461F3803A90390684600F02BFEF0
:103B90008DE807000004000C03D04FF0FF3041080F
:103BA00000E01046B8F1000F03D000220092154645
:103BB0001FE0751E06D400F0CBF902F13002625509
:103BC0006D1EF8D5B3460122084302D000227F1CA7
:103BD00004E02078302801D100227F1E002A0797B8
:103BE0008DD01DE0112D07DA00F0B2F930326255A8
:103BF0006D1C50EA0102F5D108430FD10021681E67
:103C000005E0235C625C6354491C2254401E8142DF
:103C1000F7DBAB46A81B401E079001E0009848B1B7
:103C2000002004F80B000998079AC0F80880C0E942
:103C3000002B9EE711264FF0000860E72DE9F04FBA
:103C400088460446D21D22F0070191B0D1E9000157
:103C5000CDE90C0101F039FB02460D98C10F4FF080
:103C60002D0006D121682B208B0702D4202000EAEA
:103C7000C100032A834601D0072A05DB03464146DB
:103C8000204600F0ABF90AE12068800601D5E7691B
:103C900000E006271120B8F1650F06D0B8F1660FD5
:103CA00011D0B8F1670F67D128E00023112F0093DE
:103CB00000DA781C03460CAA01A909A8FFF7ECFE5C
:103CC00000267D1C3FE001234FF000490CAA01A90A
:103CD00009A800933B46FFF7DFFEDDE90A50002606
:103CE00020B9099907F1010001EB0005781B02D406
:103CF0007D1CC0F1FF36A5EB070A3DE0012F00DA7D
:103D000001270023112F009300DC384603460CAA3C
:103D100001A909A8FFF7C0FE20683D46002600075C
:103D20000BD40A98A84200DA054601A8012D04DD4B
:103D3000411911F8011C302909D00998B84202DA5A
:103D400010F1040F05DA4FF0010A099813E06D1E17
:103D5000ECE7002802DC2D1A064405E0401CA842CE
:103D600002DD099D05F101050998A0EB060000F1AF
:103D7000010A4FF0004081462068000703D4AA459D
:103D800001DB4FF0FF3A0020B9F1004F0DF13F0782
:103D90008DF83F0024D04FF002082B20B9F1000F1E
:103DA00000900BDA2D20C9F10009009006E048468A
:103DB00000F095F83031814607F8011DB8F1000197
:103DC000A8F10108F3DCB9F1000FF0D1009807F871
:103DD000010D21684520090500D4652007F8010D73
:103DE0000EA8A0EB070000F107085FEA0B0000D067
:103DF000012000EB050101EBEA7101EB0800A1696C
:103E0000A1EB0000A0F10100A0612068C00602D46F
:103E10002046AFF300805FEA0B0006D0D4E9012111
:103E20009047206A00F1010020622068C00621D579
:103E30002046AFF300801DE0002E05DB0A98B0425B
:103E400002DD01A8805D00E03020D4E90121904727
:103E5000206A761C401CBAF1010A20620AD100F0E7
:103E60004BF8C0680168405CD4E901219047206AA2
:103E7000401C2062281EA5F10105DDDC07E0D4E925
:103E8000012117F8010B9047206A401C2062B8F10D
:103E90000001A8F10108F2DC2046AFF30080022007
:103EA00011B067E601694A1C02610878704700B5E5
:103EB0008FB0CDE901310021059105497944CDE963
:103EC000031011466846FFF7A1FB0FB000BD0000CC
:103ED000E5FFFFFF0A6802F8010B0A6070474FF028
:103EE0000A01B0FBF1F202FB11011046704700001D
:103EF00000487047001A002001487047704700BF13
:103F0000201A002001487047704700BF001A0020A7
:103F100000210160C0E9011070471020704743681C
:103F20008C46002B18BF994284BF18465B68F8D8AE
:103F300003681844884207D00CF1030020F0070002
:103F4000001D411A521A0146081D0A60FFF717BDED
:103F500030B5B0F10A024FEA900E71F100034EEA5B
:103F6000817EB0EB0E0061EB91014FEA101E4EEA2C
:103F7000017E10EB0E0041EB11114FEA102E4EEABC
:103F8000016E10EB0E0041EB11214FEA104E4EEA8C
:103F9000014E10EB0E0041EB1141401841F10001C0
:103FA0004FEAD00040EA41704FEAD10110EB8005A2
:103FB0004FEA810444EA907444EB01046D1944EB28
:103FC0000404521BA3414FF0000348BF0A3200D53E
:103FD00030BD401C41F1000130BD00002DE9F04131
:103FE00004461F4603260168072A01F4006003DB2C
:103FF00015A520B915A502E015A500B915A521F054
:1040000010002060A069C01EA0610FB1401EA06119
:104010002046AFF300804FB1D4E9012138469047E4
:10402000206A401C2062C01C206206E0206AFAE779
:10403000D4E9012115F8010B9047761EF8D22046ED
:10404000AFF30080BDE8F0814E414E006E616E001E
:10405000494E4600696E66002DE9F04781461646D6
:104060008AB037487844D0E9002380680092CDE9CF
:104070000130334878440C38D0E9022300690392B8
:10408000CDE9043041F69B334FF0370001EB0302DA
:10409000194492FBF0F591FBF0F2A5F1800500FBCD
:1040A00012141B3C02D56442012000E00020DFF81E
:1040B00090A080460027FA44AAF1CE0A0DE0E0075E
:1040C00009D03246684607EB47010AEB810100F050
:1040D0008AFB8DE8070064107F1C002CEFD1184F7D
:1040E0007F44BC3F17E0E80713D007EB04100DF145
:1040F000180A90E80E00AAE80E00C068F04201D14C
:1041000098190890324606A903A800F06CFB03AB8F
:1041100007C36D10641C002DE5D132466946B8F125
:10412000000F03A802D000F04AFB01E000F05BFBA7
:10413000C9E90001C9F808200AB0BDE8F08700000D
:104140007433000010B500F035F8BDE8104000F001
:104150002BB87546FFF7CCFEAE46050069465346C0
:1041600020F00700854618B020B5FFF751F9BDE8EB
:1041700020404FF000064FF000074FF000084FF0CE
:10418000000B21F00701AC46ACE8C009ACE8C0095F
:10419000ACE8C009ACE8C0098D4670470446AFF3EF
:1041A00000802046FCF753F8002801D000F068B8E2
:1041B00070470000002110B5012800D102A108A01D
:1041C00000F065F8012010BD3A2048656170206D4F
:1041D000656D6F727920636F7272757074656400BB
:1041E00053494752544D454D3A204F7574206F66E0
:1041F0002068656170206D656D6F72790000000048
:104200004FF0013C50F8042B51F8043B9A4221D165
:10421000A2EB0C03934313EACC1317D150F8042BF1
:1042200051F8043B9A4215D1A2EB0C03934313EAD5
:10423000CC130BD150F8042B51F8043B9A4209D10E
:10424000A2EB0C03934313EACC13DBD04FF0000036
:10425000704700BFD01A01BAB1FA81F101F018011C
:1042600022FA01F0CB40C1F12001DBB2C0B2C01A8A
:104270002CFA01F3D11A914311EAC311E6D1704728
:1042800001491820ABBEFEE726000200704770B55A
:1042900005460C460A2000E06D1C00F011F835B10F
:1042A00028780028F8D102E0641C00F009F814B165
:1042B00020780028F8D1BDE870400A20AFF30080D4
:1042C00008B569468DF800000320ABBE08BD0000AC
:1042D00001487047704700BF041A00205FEA400C95
:1042E00008BF91F0000F4FEA8C234FEAC12243EA46
:1042F00051514FEA1C5018BF00F5F0404FEA300012
:1043000018BF41F000415FEA6C5C00F02980BCF10D
:10431000FF3F08BF40F080407047130C06BF1204F7
:104320004FF0100C4FF0000C130E04BF12020CF1F2
:10433000080C130F04BF12010CF1040C930F04BFFF
:1043400092000CF1020CD30F04BF52000CF1010CCF
:1043500011464FF00002A0F11F00A0EB0C007047C7
:1043600011F0004F08BF704731F000413FF4D5AF66
:104370000B0C06BF09044FF0100C4FF0000C0B0E95
:1043800004BF09020CF1080C0B0F04BF09010CF16A
:10439000040C8B0F04BF89000CF1020CCB0F04BF7F
:1043A00049000CF1010CCCF12003A0EB0C0022FA27
:1043B00003F302FA0CF241EA030100F10100704735
:1043C00020F07F4C80EA030023F07F47ACEB07032B
:1043D00003F57C5300F0004003F1FF032DE9804911
:1043E0004FEA154B09B44FEA144325EA0B4E24EA71
:1043F00003480FF2042606EB132749083E785FEACC
:10440000320203FB0667C7F5000707FB06F64FEA13
:1044100054374FEAD64606F1020607FB066CCCF18C
:10442000005C4FEA1C472CEA074C07FB06F40CFB28
:1044300006F504EB15464FEA961634BF00204FF000
:1044400000404FEAD13706FB07FC4FEA1C4C0CFB3F
:104450000BF7D21B03FB0CF761EB07010CFB0EF70C
:10446000B0EB074072EB17420CFB08F734BFA2EB2E
:104470000742B2EB074261EB17414FEA0C444FEAA7
:10448000910706FB07FC4FEA1C4C0CFB0BF7B0EB4B
:10449000C74072EB573203FB0CF734BFA2EBC742A5
:1044A000B2EBC74261EB57310CFB0EF7B0EBC70024
:1044B00072EB57720CFB08F734BFA2EBC702B2EBEA
:1044C000C70261EB5771039F4FEA816141EA921184
:1044D00004EBCC044FEAD1374FEA826206FB07FCBB
:1044E00042EA90124FEA80604FEA1C4C0CFB0BF73B
:1044F000D21B03FB0CF761EB07010CFB0EF7B0EBD3
:10450000074072EB17420CFB08F734BFA2EB0742DF
:10451000B2EB074261EB17414FEA8C554FEA910726
:1045200004EB9C2406FB07FC4FEA1C4C0CFB0BF72E
:10453000B0EBC74072EB573203FB0CF734BFA2EB72
:10454000C742B2EBC74261EB57310CFB0EF7B0EB41
:10455000C70072EB57720CFB08F734BFA2EBC7021F
:10456000B2EBC70261EB577115EB4C254FEA816145
:1045700041EA92114FEA82624FEAD13742EA901241
:1045800006FB07FC44F100044FEA80604FEA1C4C34
:104590000CFB0BF7D21B03FB0CF761EB07010CFBC9
:1045A0000EF7B0EB074072EB17420CFB08F734BF75
:1045B000A2EB0742B2EB074261EB174115EB1C156A
:1045C0004FEA813141EA92414FEA823242EA904217
:1045D0004FEA80304FEA0C7644F1000448EA034386
:1045E0004EEA0B484FF0000EB2EB080C71EB0307DC
:1045F00024BF624639464EEB0E0E4FF0000B0018FA
:10460000524149414BEB0B0BB2EB080C71EB03072A
:104610007BF1000B24BF624639464EEB0E0E4FF085
:10462000000B0018524149414BEB0B0BB2EB080C4D
:1046300071EB03077BF1000B24BF624639464EEB5A
:104640000E0E51EA020718BF46F0010616EB0E7671
:1046500055F1000254F1000103D5BDE88901BDE820
:104660000088BDE88901BDE80048B619524141EB18
:104670000101A3F10103704780807F7E7D7C7B7AFE
:104680007978777676757473727171706F6E6E6DFE
:104690006C6C6B6A6A6968686766666564646363A4
:1046A00062616160605F5F5E5E5D5D5C5C5B5B5A2A
:1046B0005A59595858575756565555555454535397
:1046C00052525251515050504F4F4F4E4E4D4D4DF2
:1046D0004C4C4C4B4B4B4A4A4A494949484848473D
:1046E000474747464646454545444444444343437B
:1046F0004342424242414141002B26D4770021D01F
:104700001CB54FEA370703B44FF010004FF010010B
:104710004FF000000FBCBDE810400BF1010BBBF1E6
:10472000010F08BF5FEA170722BF12F1010211F162
:1047300001014FF0004143F1000300F0004043EA63
:1047400000007047F9D35708DAE746EA064613F146
:10475000400F4FEA16461FDD13F1200FDFBF16434F
:104760000A46002120335B42C8D0C3F1200746EA45
:10477000064602FA07F74FEA164646EA0706C3F16D
:10478000200722FA03F201FA07F721FA03F14FF0AA
:10479000000342EA0702B1E746EA020646EA064695
:1047A0004FEA164646EA0106BCBF46EA0646360C04
:1047B0004FF000034FF000024FF000019EE72DE99B
:1047C000C048934630B491E8380007C831EA400C3D
:1047D00048BF34EA430C03D5FFF7F2FDFFF78CFF27
:1047E000F0BCBDE800882DE9C048934630B491E89C
:1047F000380007C810F0804F08BF13F0804F03D176
:1048000000F005F8FFF778FFF0BCBDE8008820F065
:104810007F4780EA030023F07F4C07EB0C03A3F5EE
:104820007C5300F00040A3F1FE0392F0000F00F073
:10483000B38095F0000F00F077802DE901494FEA31
:1048400011404FEA144621EA004800FB06FC24EA26
:10485000064708FB06F607FB08F800FB07F718EB0E
:1048600006484CEB164C4FEA124B18EB07484FEA40
:1048700015464CEB174022EA0B4E0BFB06FC25EAD3
:1048800006470EFB06F607FB0EFE0BFB07F71EEBBB
:10489000064E4CEB164C4FF000061EEB074E4CEB51
:1048A000174B18EB0B0840F1000018EB0E0B58EB00
:1048B000000840F100008F1A4FF000013CBFC943CF
:1048C000661B14BFB5EB040C00213CBFC943F61BAB
:1048D0004FEA17444EEA8E0E27EA04454FEA1C477A
:1048E00004FB07622CEA074C05FB07F70CFB05F6F7
:1048F00004FB0CFC16EB074642EB174216EB0C468A
:1049000042EB1C421BEB060658EB0202414146EA11
:104910009E0601D5BDE80189B619524141EB01015E
:10492000A3F10103BDE801894FEA14454FEA11479D
:1049300024EA054621EA074C05FB07F406FB07F7C6
:104940000CFB06F105FB0CFC11EB074144EB174493
:104950004FEA124711EB0C4144EB1C4422EA074C8E
:1049600005FB07F206FB07F70CFB06F605FB0CFC44
:1049700016EB074642EB174216EB0C4642EB1C4582
:104980006A1854F1000148BF7047B619524141EB13
:104990000101A3F10103704795F0000F37D04FEAF2
:1049A00011424FEA144721EA024624EA074C02FB6F
:1049B00007F106FB07F70CFB06F402FB0CFC14EBFB
:1049C000074441EB17414FEA154714EB0C4441EB08
:1049D0001C4125EA074C02FB07F506FB07F70CFB19
:1049E00006F602FB0CFC16EB074645EB174516EBEB
:1049F0000C4645EB1C42121951F1000148BF7047AB
:104A0000B619524141EB0101A3F1010370474FEA8E
:104A100014454FEA114724EA054621EA074C05FBF5
:104A200007F106FB07F70CFB06F24FF0000605FB4B
:104A30000CFC12EB074241EB174112EB0C4251EB1D
:104A40001C4148BF7047921841EB0101A3F10103DB
:104A50007047000000A07047613737393837396632
:104A60006164663031363037333466393036623817
:104A700063313963373030340000000000A07047E4
:104A800067656F6D657472795F6D7367732F5175AC
:104A9000617465726E696F6E0000000070B5064645
:104AA0000D46001D00F01AF80446291806F11400FE
:104AB00000F014F8204470BD00487047C871000829
:104AC00000487047B4710008024901600249416022
:104AD00041617047147400082C74000870B5CB78DD
:104AE000021D5B0943600C7943EAC40343604C79BF
:104AF00043EAC42343608C7904F00F0443EAC445BD
:104B000045608B79CC791B0904F07F0453EA0413C8
:104B10004FF0804403D004EBC3531D431560CA79A2
:104B200012F0800F03D0426882F000424260CB7ADC
:104B300000F108025B0983600D7B43EAC5038360D3
:104B40004D7B43EAC52383608D7B05F00F0543EA67
:104B5000C54585608B7BCE7B1B0906F07F0653EA3B
:104B6000061303D004EBC3531D431560CA7B12F038
:104B7000800F03D0826882F000428260CB7C00F11B
:104B80000C025B09C3600D7D43EAC503C3604D7D24
:104B900043EAC523C3608D7D05F00F0543EAC54593
:104BA000C5608B7DCE7D1B0906F07F0653EA061398
:104BB00003D004EBC3531D431560C97D11F0800F72
:104BC0004FF0180103D0C26882F00042C26008466C
:104BD00070BD000000A07047346138343262363551
:104BE0006634313330383464633262313066623473
:104BF00038346561376631370000000000A0704727
:104C000067656F6D657472795F6D7367732F566535
:104C100063746F72330000002DE9F04104460E7892
:104C200000790D46B04204D2B100E068FEF740FCC6
:104C3000E060042700202671804611E0E919EA5D52
:104C40004B783F1D42EA03228B78C97842EA03423F
:104C500042EA0161A160E26842F82010401CC0B243
:104C600021798142EAD8EE5D207C7F1CB04204D2DB
:104C7000B100A069FEF71CFCA061FF1C2674002097
:104C800011E0E919EA5D4B783F1D42EA03228B7877
:104C9000C97842EA034242EA01616161A26942F8CD
:104CA0002010401CC0B2217C8142EAD8EE5D207FFA
:104CB0007F1CB04204D2B100606AFEF7F9FB60626B
:104CC000F81C2677002118E02A18001D13680246F8
:104CD000C71804E02B5C2E18401C06F8013C8742E4
:104CE000F8D87B192A4403F8018C521E2262636AA9
:104CF000384643F82120491CC9B2227F8A42E3D8B2
:104D0000BDE8F08100A070473966306539386264CB
:104D10006136353938313938366464663533616621
:104D20006137613430653439000000000048704755
:104D30009871000800A070473131616264373331E7
:104D40006332353933333236316364363138336266
:104D500064313264363239350000000000A07047FB
:104D6000726F7373657269616C5F6D7367732F4CDB
:104D70006F67000000A070473061643531663838D5
:104D8000666334343839326638633130363834301B
:104D900037373634363030350000000000A0704719
:104DA000726F7373657269616C5F6D7367732F5493
:104DB0006F706963496E666F00000000002101603A
:104DC000416070470A46D0E9021003681B68184723
:104DD00000A07047323766666130633963346238E9
:104DE000666238343932323532626361643965352E
:104DF000633537620000000000A070477374645F81
:104E00006D7367732F496E74380000000A78426032
:104E10004B7842EA032242608B7842EA03424260C6
:104E2000CB7842EA036242600B790A1D83604979BC
:104E300043EA01218160937841EA03418160D2789D
:104E400041EA0261816008207047000000A07047BD
:104E50006364373136366337346335353263333123
:104E60003166626363326665356137626332383951
:104E70000000000000A070477374645F6D73677377
:104E80002F54696D6500000010B5034902C0FFF79B
:104E900095FF001F10BD0000D074000800A07047EF
:104EA0003939326365386131363837636563386361
:104EB0003862643838336563373363613431643161
:104EC0000000000000A070477374645F6D73677327
:104ED0002F537472696E670000A0704737336663A2
:104EE00062663436623439313931653637323930B9
:104EF00038653530383432613833643400000000AE
:104F000000A070477374645F6D7367732F466C6F96
:104F1000617433320000000070B54368C3F3C752B8
:104F20000AB102F5607200240C704C708C705D0147
:104F3000CD70C3F3C7050D71C3F3C7254D71C3F31E
:104F4000C34343EA02158D71C2F30612CA71334D91
:104F50004368AB4202D342F08002CA718368C3F354
:104F6000C7520AB102F560720C724C728C725E010B
:104F7000CE72C3F3C7060E73C3F3C7264E73C3F3D3
:104F8000C34343EA02168E73C2F30612CA738368E0
:104F9000AB4202D342F08002CA73C368C3F3C75264
:104FA0000AB102F560720C744C748C745E01CE749C
:104FB000C3F3C7060E75C3F3C7264E75C3F3C343C9
:104FC00043EA02168E75C2F30612CA75C368AB4275
:104FD00002D342F08002CA750369C3F3C7520AB113
:104FE00002F560720C764C768C765C01CC76C3F35D
:104FF000C7040C77C3F3C7244C77C3F3C34343EA16
:1050000002148C77C2F30612CA7700692023A842E3
:1050100002D342F08000C877184670BD000080803F
:1050200070B506460D46001D00F008F80446291824
:1050300006F1140000F002F8204470BD70B543681A
:10504000C3F3C7520AB102F5607200240C704C70B1
:105050008C705D01CD70C3F3C7050D71C3F3C72517
:105060004D71C3F3C34343EA02158D71C2F30612B7
:10507000CA71244D4368AB4202D342F08002CA7128
:105080008368C3F3C7520AB102F560720C724C72A6
:105090008C725E01CE72C3F3C7060E73C3F3C726CC
:1050A0004E73C3F3C34343EA02168E73C2F3061270
:1050B000CA738368AB4202D342F08002CA73C368EA
:1050C000C3F3C7520AB102F560720C744C748C744D
:1050D0005C01CC74C3F3C7040C75C3F3C7244C75CF
:1050E000C3F3C34343EA02148C75C2F30612CA75B4
:1050F000C0681823A84202D342F08000C875184641
:1051000070BD0000000080802DE9F0410546007967
:10511000002708704F708F700C46CF7004263846F9
:105120000DE0E968A21951F82010A1550B0A53703F
:105130000B0C090E361D9370401CD170C0B229793A
:105140008142EED8287CA055761CA755761CA75521
:10515000761CA755761C00200DE0A969A21951F80C
:105160002010A1550B0A53700B0C090E361D9370BD
:10517000401CD170C0B2297C8142EED8287FA05556
:10518000761CA755761CA755761CA755761C0027BC
:1051900012E0686A50F82700FEF7C7FAA1198046A6
:1051A0000860686A361D424650F82710A019FEF7BD
:1051B000DBFA7F1C4644FFB2287FB842E9D830466C
:1051C000BDE8F08170B50546007908700C46A86806
:1051D000FEF7ABFA0646C4F80100601D3246A96826
:1051E000FEF7C2FA701D70BD2DE9F04105468088BA
:1051F0000870A8880C46000A4870A868FEF795FA5F
:105200000646C4F80200A01D3246A968FEF7ACFAB3
:10521000B61DE868FEF789FA0746A019361D076033
:10522000A0193A46E968FEF79FFA3E442869FEF75E
:105230007CFA0746A019361D0760A0193A4629696D
:10524000FEF792FAF0196969221821540B0A53707B
:105250000B0C090E9370D170001DBDE8F081007930
:1052600008700120704742680A704268120A4A704A
:105270004268120C8A704268120ECA7082680A7103
:105280008268130A0A1D4B718168090C917080684D
:10529000000ED0700820704770B506460C46406876
:1052A000FEF743FA05462060201D2A467168FEF786
:1052B0005BFA281D70BD40680870020A4A70020C33
:1052C0008A70000EC87004207047490050EAC1205F
:1052D00018BF04204A0D18BF40F0010040F2FF72D1
:1052E000B2EB515F08BF40F00200012808BF052063
:1052F000704700002DE9F74F1446002196B0C4E92D
:1053000002110A4617990A9121F00045C9498D42B8
:1053100006DC1799C4E9000119B00020BDE8F08F40
:10532000C549C64EA9423DDD0A99C54F0029DFF89F
:105330001483C54A1799334619DD01F087FCB5423D
:1053400006D0C24AC24B01F081FCC4E900010AE068
:105350004FF0D352BE4B01F079FC3A46434601F080
:1053600075FCC4E9000119B00120BDE8F08F00F020
:105370009FFFB54206D0B54AB54B00F099FFC4E98E
:1053800000010AE04FF0D352B14B00F091FF3A46D2
:10539000434600F08DFFC4E9000119B04FF0FF3023
:1053A000BDE8F08FAB498D4217997BDC21F00041BD
:1053B00083468A46A84AA94B01F022FA0022A84B4C
:1053C00000F076FF01F086F90B9001F0B2F980460B
:1053D0000F469D4A334601F013FA5A46534601F0F0
:1053E00043FB82460E46994A994B4046394601F0A6
:1053F00007FA2A0D4FF0010B09925246334601F08D
:1054000033FBBBF1030FC4E900013AD00A46099807
:105410000BEB4B11C2F30A521139801A884230DD6E
:1054200090480596784400EB0B100C90D0E90023CF
:1054300055464046394601F0E3F902460B460191D4
:1054400008902846059901F001FC82460E46024666
:105450000B462846059901F0F9FB019B089A01F0DB
:10546000F5FB05460C9801913946D0E902234046E8
:1054700001F0C6F92A46019B01F0E8FB0BF1010B94
:10548000BBE70A980028A2BF0B9819B0BDE8F08FBF
:10549000616881F0004161600B9819B04042BDE83D
:1054A000F08FFFE786461798C1F31301C0F30A5047
:1054B00041F48011A0F2F5300991411100F01F086C
:1054C000C8F1200013900020109011906648784495
:1054D00000EB810000F1140211A80627D2E90013A5
:1054E000139DDDF824C0EB4001FA08F11943A1FB3C
:1054F0000C3CA1FB0E6105680B443544B54234BF3A
:105500000126002650F804AC03EB060B8B420AEB95
:105510000B0134BF4FF0010A4FF0000AD44416B11A
:10552000994202D903E0994201D2012300E000230D
:105530000560634440F8041C40F8083C121F001F3B
:105540007F1ECBD10C980F9F00F10050800F099067
:105550000C98DDE90D56800001F0EBF883462846F3
:10556000079101F0FDF86FF01D0201F0CDFD1290E2
:105570000691304601F0F4F86FF03D0201F0C4FDF1
:1055800004908A46384601F0EBF86FF05D0201F0B6
:10559000BBFD0746884602460B465146049800F07C
:1055A00087FE069B129A00F083FE5A46079B00F086
:1055B0007FFE00250E465A462846079B01F046FB13
:1055C000069B129A01F042FB5346049A01F03EFBFF
:1055D0003A46434601F048FADFF894A0234A53467E
:1055E00001F00EF980460F46224A234B31462846E9
:1055F00001F006F942463B4600F05AFE074688464F
:105600004FF0A84253463146284601F0F9F83A4691
:10561000434600F04DFE179A12F0004F04D0099A4D
:1056200081F0004152420992C4E90001099819B081
:10563000BDE8F08FFB21E93F7CD90240FB21F93F17
:105640007370032E8A19A33B000040543163621A21
:1056500061B4D03DFB21394183C8C96D305FE43F5F
:105660000000E03F481E0000CE1D0000182D4454ED
:10567000FB21F93D3326A611460B113C2DE9FF4DC8
:1056800021F0004807460C46B8F1795F08DA01F0CE
:1056900021F8002801BF0020324904B0BDE8F08D98
:1056A0003A4623463846214601F0AAF80546024606
:1056B0002D480E460B460621784400F05DF82A4638
:1056C000334601F09DF8DDE9022382468B463846D9
:1056D000214601F095F804460F4652465B4628469F
:1056E000314601F08DF822463B4601F0AFFA0746FD
:1056F0008A464FF0FF322846314601F005FD1B4A2D
:1057000090450ADA3A46534601F0A0FA04B0002266
:10571000BDE8F04D134B01F0A7B9154A4245A8BFAB
:10572000A8F500154FF00004B8BF124D22462B46D5
:1057300001F08CFA0646884622462B46002009498D
:1057400001F084FA04460D463A4653463046414637
:1057500001F07CFA04B022462B46BDE8F04D01F082
:1057600083B900000000F03F841B00003333D33FB7
:105770000000E93F0000D23F2DE9F0414F1E00EB51
:10578000C7010446D1E9000115461E4637F006025E
:105790000DD02A46334601F033F87F1E04EBC703D1
:1057A000D3E9002300F084FD37F00602F1D1022F87
:1057B00025D0042F13D0062F18BFBDE8F0812A464C
:1057C000334601F01DF8D4E90A2300F071FD2A46A2
:1057D000334601F015F8D4E9082300F069FD2A46A4
:1057E000334601F00DF8D4E9062300F061FD2A46A6
:1057F000334601F005F8D4E9042300F059FD2A46A8
:10580000334600F0FDFFD4E9022300F051FD2A46A3
:10581000334600F0F5FFD4E90023BDE8F04100F085
:1058200047BD00002DE9FF4D054621F0004084B042
:105830000C46B0F1795F0BDA2846FFF746FD0428E5
:1058400008BF00F067F8284608B02146BDE8F08D93
:105850000B462A462846214600F0D2FF06460F4650
:105860002A46234600F0CCFF804627488A46324627
:105870003B4605217844FFF77FFF8346109802914D
:1058800060B3224A224B4046514600F0B9FFCDE9B1
:1058900000015A4640465146029B00F0B1FF824645
:1058A0008846DDE906014FF0FF3201F02DFC52463B
:1058B000434601F0CBF932463B4600F0A1FFDDE95B
:1058C000062301F0C3F9DDE9002301F0BFF908B0B8
:1058D0002A462346BDE8F04D01F0C6B80B465A46AD
:1058E0003046394600F08CFF084A094B00F0E0FCD6
:1058F0004246534600F084FF08B02A462346BDE8DE
:10590000F04D00F0D5BC0000C01A000049555555B7
:105910005555C5BF024A0020110701F0F5BB000034
:1059200001FDFFFF2DE9F04D914F21F0004A86B0B7
:1059300005460C46BA452FDBAAEB070028430BD0DF
:105940008C48824501DC1BD1D5B106B02846BDE8A4
:10595000F04D012201F0D8BB874A884B284600F061
:105960004FFF07460E46864A864B2846214600F0E2
:1059700047FF06B03A463346BDE8F04D00F098BC0C
:105980000120FEF728F806B00022BDE8F04D1346CE
:105990001046114600F046BD7B48824543DABAF115
:1059A000795F0BDA2846FFF790FC042808BFFFF761
:1059B000B1FF284606B02146BDE8F08D0B462A46C9
:1059C0002846214600F01CFF834602466F480E46DB
:1059D0000B4606217844FFF7CFFE5A46334600F0C7
:1059E0000FFF80466A488A465A4633460421784467
:1059F000FFF7C2FE5A46334600F002FF00223B4644
:105A000000F056FC02460B464046514600F00AFDA7
:105A10002A46234600F0F4FE06B02A462346BDE897
:105A2000F04D00F045BC284624F0004100223D46E0
:105A30003B4601F019F84FF0FF3201F065FB0646D6
:105A4000024654480F460B4606217844FFF794FE61
:105A500032463B4600F0D4FECDE900014E483246C6
:105A60003B4604217844FFF787FE32463B4600F070
:105A7000C7FE00222B4600F01BFC834602913046F5
:105A8000394600F03DF9804644480D46504517DC44
:105A9000DDE900015A46029B00F0C4FC42462B4659
:105AA00000F0AEFE42462B4600F002FC012201F05F
:105AB0002BFB314A314B01F0C9F8314A314B4DE0F3
:105AC0004FF0000A0B4652464046294600F0F0FBD4
:105AD000CDE9031052462B465046294600F090FE71
