:020000040800F2
:10000000B807002051020008E5060008DD060008D8
:10001000E10600080F0300080713000800000000B5
:100020000000000000000000000000000D0A0008B1
:100030004903000800000000F9070008110B000840
:100040006B0200086B0200086B0200086B020008DC
:100050006B0200086B0200086B0200086B020008CC
:100060006B0200084D0300084F0300086B020008F4
:100070006B0200086B0200086B0200086B020008AC
:100080006B0200086B0200086B0200086B0200089C
:100090006B0200086B0200086B02000851030008A5
:1000A0006B0200086B0200086B0200086B0200087C
:1000B0006B0200086B0200086B0200086B0200086C
:1000C0006B0200086B0200086B0200086B0200085C
:1000D0006B020008211000086B0200086B02000888
:1000E0004B0300086B0200086B02000800000000D0
:1000F0000000000000000000000000000000000000
:1001000000000000000000006B0200086B02000805
:100110006B0200086B020008810B0008290C000824
:100120006B0200086B0200086B0200086B020008FB
:100130006B0200086B0200086B0200086B020008EB
:100140006B0200086B0200086B0200086B020008DB
:1001500000F002F800F05CF80AA090E8000C82447D
:100160008344AAF10107DA4501D100F051F8AFF25A
:10017000090EBAE80F0013F0010F18BFFB1A43F085
:1001800001031847A0180000C01800000A444FF0EF
:10019000000C10F8013B13F0070408BF10F8014BE6
:1001A0001D1108BF10F8015B641E05D010F8016B2B
:1001B000641E01F8016BF9D113F0080F1EBF10F88F
:1001C000014BAD1C0C1B09D16D1E58BF01F801CBB2
:1001D000FAD505E014F8016B01F8016B6D1EF9D535
:1001E0009142D6D37047000000230024002500264A
:1001F000103A28BF78C1FBD8520728BF30C148BF8A
:100200000B6070471FB501F085FB1FBD10B510BD19
:1002100000F041F81146FFF7F5FF01F0BFF800F0DC
:100220005FF803B4FFF7F2FF03BC00F069F80000C9
:10023000EFF30980704780F309887047EFF3088077
:10024000704780F30888704740BA7047C0BA70475B
:100250000948804709480047FEE7FEE7FEE7FEE75A
:10026000FEE7FEE7FEE7FEE7FEE7FEE70448054996
:10027000054A064B70470000150B000851010008A5
:10028000B8010020B8070020B8030020B803002000
:10029000704770477047754600F028F8AE46050075
:1002A0006946534620F00700854618B020B5FFF791
:1002B000DDFFBDE820404FF000064FF000074FF093
:1002C00000084FF0000B21F00701AC46ACE8C00974
:1002D000ACE8C009ACE8C009ACE8C0098D4670477D
:1002E0000446AFF300802046FFF79BFF00487047AD
:1002F0005801002001487047704700BF5C01002092
:1003000001491820ABBEFEE726000200704700BF7F
:10031000FEE7000010B50121084600F08FFA012128
:10032000014800F03DF910BD0004300010B504464E
:100330004021044800F01CFF2146024800F0DFFF86
:1003400010BD00000038014070477047704770478B
:100350007047000030B5044604254FF4302000F00B
:1003600083F80546042D17D10C48006940F00200BF
:100370000A49086108464461006940F0400008618C
:100380004FF4302000F070F805460448006941F64B
:10039000FD71084001490861284630BD0020024037
:1003A00004200C49C96801F00101012901D1012093
:1003B0000EE00849C96811F0040F01D0022007E0DF
:1003C0000449C96811F0100F01D0032000E0042097
:1003D00070470000002002400348006940F08000A0
:1003E000014908617047000000200240F0B5044652
:1003F0000D4604260027F00200F036F80646042ECB
:1004000022D11248006940F001001049086125809E
:10041000F00200F029F80646042E0ED1A71C280C85
:100420003880F00200F020F806460848006941F6DE
:10043000FE7108400549086106E00448006941F67C
:10044000FE710840014908613046F0BD00200240BD
:1004500002480349486003484860704723016745E4
:1004600000200240AB89EFCD00B502460423FFF720
:1004700097FF034603E0FFF793FF0346521E012B4D
:1004800001D1002AF7D102B90523184600BD2DE994
:10049000F04102460025002600200023002400270A
:1004A00091F803C00CF00F0591F803C01CF0100F79
:1004B00003D091F802C04CEA0505B1F800C01CF069
:1004C000FF0F31D0146800202BE04FF0010C0CFA24
:1004D00000F3B1F800C00CEA03069E4220D183006D
:1004E0004FF00F0C0CFA03F7BC4305FA03FC4CEA7F
:1004F000040491F803C0BCF1280F06D14FF0010CA1
:100500000CFA00FCC2F814C00AE091F803C0BCF178
:10051000480F05D14FF0010C0CFA00FCC2F810C0D6
:10052000401C0828D1D31460B1F800C0BCF1FF0F03
:1005300034DD546800202EE000F1080C4FF0010873
:1005400008FA0CF3B1F800C00CEA03069E4221D170
:1005500083004FF00F0C0CFA03F7BC4305FA03FCC1
:100560004CEA040491F803C0BCF1280F05D100F156
:10057000080C08FA0CF8C2F8148091F803C0BCF11A
:10058000480F07D100F1080C4FF0010808FA0CF8E9
:10059000C2F81080401C0828CED35460BDE8F0811A
:1005A000F0B50A46002300240021002500F0004693
:1005B000B6F1004F02D11D4EF16901E01B4E71688A
:1005C000C0F3034583B200F44016B6F5401F08D1CE
:1005D00021F07061154E766826F07066134F7E60CC
:1005E00012E000F48016B6F5801F06D1032606FA45
:1005F00005F4A14341F0706106E0460D360103FAAF
:1006000006F6B14341F0706122B1460D360103FA9E
:1006100006F6314300F00046B6F1004F02D1034E1A
:10062000F16101E0014E7160F0BD00000000014089
:100630000246002093680B4201D0012000E0002018
:100640007047000008B501215C2000F0F7F8042095
:10065000ADF8000003208DF8020048208DF803005B
:1006600069460248FFF713FF08BD0000001801406B
:1006700008B501213C2000F0E1F84FF48070ADF89E
:10068000000003208DF8020010208DF80300694659
:100690000E48FFF7FCFE4FF480700D4908604FF4E0
:1006A0008040ADF800004FF003008DF802004FF0DD
:1006B00010008DF8030069460648FFF7E8FE4FF486
:1006C00080400549C1F8100C08BD0000001401402D
:1006D00010140140000C01400000014000BFFEE783
:1006E00000BFFEE7704708B54FF4C06000F07AF82D
:1006F00025208DF8000001208DF8010000208DF8E4
:10070000020001208DF80300684600F029F8372028
:100710008DF8000001208DF801008DF802008DF8A1
:100720000300684600F01CF836208DF80000012018
:100730008DF801008DF802008DF80300684600F086
:100740000FF81B208DF8000001208DF801008DF8B6
:1007500002008DF80300684600F002F808BD0000B2
:1007600070B5002100230F22C4784CB31A4C2468C2
:1007700004F4E064C4F5E0644FEA1421C1F1040319
:1007800022FA01F2447804FA03F1847804EA0204BC
:1007900044EA01014FEA0111104C0678A155047892
:1007A00004F01F054FF0010404FA05F405784FEA40
:1007B00065154FF0E02606EB8505C5F8004109E018
:1007C000047804F01F050124AC40054D067876112D
:1007D00045F8264070BD00000CED00E000E400E0AC
:1007E00080E100E002490143024A116070470000C5
:1007F0000000FA050CED00E07047704729B1064A89
:10080000D2690243044BDA6104E0034AD2698243AD
:10081000014BDA61704700000010024029B1064A1E
:1008200012690243044B1A6104E0034A12698243CD
:10083000014B1A61704700000010024029B1064ABE
:1008400092690243044B9A6104E0034A926982432D
:10085000014B9A61704700000010024029B1064A1E
:10086000D2680243044BDA6004E0034AD268824350
:10087000014BDA6070470000001002402DE9F041A2
:1008800000210022002500230026002400278C469A
:10089000DFF86081D8F8048008F00C0121B1042948
:1008A00007D0082959D109E0DFF84C81C0F8008051
:1008B00058E0DFF84881C0F8008053E0DFF8348169
:1008C000D8F8048008F47012DFF82881D8F8048082
:1008D00008F48035920C0D2A01D0921C00E006220B
:1008E00035B9DFF81C8102FB08F8C0F8008033E05E
:1008F000DFF80081D8F82C8008F48036DFF8F48027
:10090000D8F82C8008F00F0808F1010446B9DFF888
:10091000EC80B8FBF4F808FB02F8C0F800801BE09C
:10092000DFF8D080D8F82C80C8F3031808F101074D
:10093000DFF8C080D8F82C80C8F3032808F1020C37
:10094000DFF8B880B8FBF7F808FB0CF8B8FBF4F850
:1009500008FB02F8C0F8008004E0DFF89C80C0F8D3
:10096000008000BF00BFDFF88C80D8F8048008F05A
:10097000F0010909DFF88C8018F80130D0F8008008
:1009800028FA03F8C0F80480DFF86880D8F80480FB
:1009900008F4E061090ADFF86C8018F80130D0F83B
:1009A000048028FA03F8C0F80880DFF84880D8F8F7
:1009B000048008F46051C90ADFF8488018F8013053
:1009C000D0F8048028FA03F8C0F80C80DFF82480FF
:1009D000D8F8048008F44041890BDFF82C8018F81F
:1009E0000130D0F80C80B8FBF3F8C0F81080BDE8F7
:1009F000F08100000010024000127A0040787D0172
:100A000000093D004401002054010020704710B54A
:100A100000F002F810BD000000210020384A1268E2
:100A200042F48032364B1A6000BF354A126802F435
:100A30000030491C10B9B1F5A06FF6D1304A1268E8
:100A400012F4003F01D0012000E00020012856D11F
:100A50002C4A126842F010022A4B1A601A46126899
:100A600022F003021A601A4612681A60244A526879
:100A7000234B5A601A4652685A601A4652685A60A6
:100A80001A46526822F47C125A601A46526842F49E
:100A900088125A601A46D26A1B4B1A40184BDA6207
:100AA0001A46D26A194B1A43154BDA621A46126873
:100AB00042F080621A6000BF114A126812F0006FA3
:100AC000FAD00F4A126842F080720D4B1A6000BFD4
:100AD0000B4A126812F0007FFAD0094A526822F0DD
:100AE0000302074B5A601A46526842F002025A60EB
:100AF00000BF034A526802F00C02082AF9D170477D
:100B0000001002400020024000F0FEFF49060100F4
:100B10007047000010B51648006840F00100144905
:100B20000860084640681349084011494860084673
:100B30000068114908400E4908600846006820F422
:100B4000802008600846406820F4FE00486008469F
:100B5000006820F0A05008604FF47F0088600020FB
:100B6000C862FFF754FF4FF000600449086010BDF1
:100B7000001002400000FFF0FFFFF6FE08ED00E06D
:100B800010B50121224800F079F901283BD1214814
:100B9000007800F0C00080280FD11E48007800F0D7
:100BA0003F001C4908700846007840F0C0000870FB
:100BB0000021174800F061F825E017480078012867
:100BC00016D11648007816490978884210DA154976
:100BD000124A1278885CFFF7A9FB40F6B8310C483E
:100BE00000F069F90D480078401C0C4908700AE0D3
:100BF0000020094908700A49087008490870002156
:100C0000034800F03AF80121014800F033F810BD24
:100C1000001000401A0100201B01002022010020CA
:100C20001C010020040000200948008810F0010F7A
:100C300005D008480088401C00B2064908800448D6
:100C4000008820F001000449A1F81004704700005A
:100C500010140040200100200010004021B1028843
:100C600042F08002028004E002884FF67F731A404F
:100C700002807047CA430282704721B1028842F065
:100C80000102028004E002884FF6FE731A400280DF
:100C90007047000010B504466848844208D101211D
:100CA000C014FFF7DBFD0021E014FFF7D7FDC4E01F
:100CB000B4F1804F08D101210846FFF7AFFD0021B4
:100CC0000120FFF7ABFDB8E05D48844208D1012167
:100CD0000220FFF7A3FD00210220FFF79FFDACE0FB
:100CE0005848844208D101210420FFF797FD0021D4
:100CF0000420FFF793FDA0E05348844208D101216E
:100D00000820FFF78BFD00210820FFF787FD94E006
:100D10004E48844208D101211020FFF77FFD0021B9
:100D20001020FFF77BFD88E04948844208D101216B
:100D30002020FFF773FD00212020FFF76FFD7CE0EE
:100D40004448844208D101214014FFF787FD002167
:100D50006014FFF783FD70E03F48844209D1012110
:100D6000C804FFF77BFD00214FF40020FFF776FD5C
:100D700063E03A48844209D101210805FFF76EFD7E
:100D800000214FF48010FFF769FD56E0344884429B
:100D900009D101214805FFF761FD00214FF4001042
:100DA000FFF75CFD49E02F48844208D10121402033
:100DB000FFF734FD00214020FFF730FD3DE02A48D9
:100DC000844208D101218020FFF728FD00218020E6
:100DD000FFF724FD31E02548844208D10121801528
:100DE000FFF71CFD0021A015FFF718FD25E02048A6
:100DF000844209D101210804FFF730FD00214FF49E
:100E00008030FFF72BFD18E01A48844209D10121F8
:100E10004804FFF723FD00214FF40030FFF71EFDCB
:100E20000BE01548844208D101218804FFF716FD24
:100E300000214FF48020FFF711FD10BD002C014070
:100E40000004004000080040000C0040001000407A
:100E50000014004000340140004C014000500140AB
:100E60000054014000180040001C004000200040D9
:100E700000400140004401400048014030B50246B6
:100E8000002000230024158A05EA0103958905EA5C
:100E9000010413B10CB1012000E0002030BD10B5F9
:100EA0001AB183890B43838104E08389CC43A4B2C4
:100EB0002340838110BD8185704781847047000085
:100EC000002202881D4B98420ED01D4B98420BD039
:100ED000B0F1804F08D01B4B984205D01A4B984276
:100EE00002D01A4B984204D14FF68F731A404B88A8
:100EF0001A43174B984207D0164B984204D04FF62E
:100F0000FF431A40CB881A4302808B8883850B8865
:100F100003850A4B98420BD0094B984208D00E4BE0
:100F2000984205D00D4B984202D00D4B984201D10A
:100F30000B7A03860123838270470000002C014056
:100F4000003401400004004000080040000C004054
:100F500000100040001400400040014000440140E7
:100F6000004801400EB501211020FFF747FC17484B
:100F7000FFF790FE41F27070ADF804000B20ADF861
:100F800000000020ADF80600ADF8020069460F48E9
:100F9000FFF796FF01210D48FFF760FE0122114681
:100FA0000A48FFF77CFF01210848FFF763FE012193
:100FB0000648FFF782FF41F270710448FFF77BFF9C
:100FC00001210248FFF759FE0EBD0000001000404D
:100FD0000EB501212020FFF711FC1048FFF75AFE43
:100FE00044F62060ADF804000B20ADF800000020AE
:100FF000ADF80600ADF8020069460848FFF760FF4B
:1010000001210648FFF72AFE012211460348FFF797
:1010100046FF01210148FFF730FE0EBD00140040DD
:1010200010B52021274800F0C7F8E8B3264800781B
:1010300010F0C00F05D02448007800F0C0008028D0
:101040002AD12148007800F03F001F490870084667
:10105000007840F0800008701C4890F8FF00FF28DE
:101060000FDA184800F046F9184991F8FF10174AAE
:101070005054104690F8FF00401C114681F8FF00C4
:101080000AE01148007800F0F0000F4908700846A7
:10109000007840F00100087041F664110C48FFF739
:1010A0000AFF00210A4800E00AE0FFF706FF0121DD
:1010B0000748FFF7E2FD40F22551024800F061F8D1
:1010C00010BD0000003801401A0100201800002067
:1010D0000010004000B585B0012144F20400FFF784
:1010E000ADFB4FF40070ADF8100018208DF8130020
:1010F00003208DF8120004A91B48FFF7C8F94FF42C
:101100008060ADF8100004208DF8130004A9164883
:10111000FFF7BDF94FF4E13000900020ADF8040076
:10112000ADF80600ADF80800ADF80C000C20ADF8E5
:101130000A0069460D4800F071F8002240F227715C
:101140000A4800F046F8012240F22551074800F015
:1011500040F84021054800F00BF80121034800F059
:101160001FF805B000BD0000000801400038014034
:1011700001F40072B2F5007F00D100BFCA430280C3
:10118000704710B500220023A1F510646A3C00D11D
:1011900000BF0A1201249440A3B2DC43048010BDB6
:1011A00021B1828942F40052828104E082894DF6A5
:1011B000FF731A408281704702460020B1F5007F1C
:1011C00000D100BF13880B4201D0012000E00020B5
:1011D0007047F0B503460024002600250020A1F545
:1011E00010676A3F00D100BF1846C1F3421401F0F6
:1011F0001F06012707FA06F5012C01D10C3004E087
:10120000022C01D1103000E014301AB107682F43CE
:10121000076002E00768AF430760F0BD2DE9F047C3
:1012200086B005460E460024A24600BFA146002710
:10123000B08900B100BF2F462C8A4CF6FF700440E5
:10124000F08804432C82AC894EF6F3100440B08839
:1012500031890843718908430443AC81AC8A4FF655
:10126000FF400440B0890443AC8201A8FFF706FBAD
:101270001F48874202D1DDF810A001E0DDF80CA084
:10128000A88910F4004F08D00AEBCA0000EB0A103E
:1012900031684900B0FBF1F807E00AEBCA0000EB47
:1012A0000A1031688900B0FBF1F86420B8FBF0F057
:1012B00004012009642101FB1089A88910F4004F62
:1012C00008D0322000EBC900B0FBF1F000F00700BD
:1012D000044308E0322000EB09106421B0FBF1F078
:1012E00000F00F0004432C8106B0BDE8F087000039
:1012F0000038014001468888C0F308007047C1F3F8
:1013000008028280704700BFFEE7000010B5024669
:10131000002006E013784340034CE05C521C4B1E57
:10132000D9B20029F6DC10BD221900084FF0E021E7
:10133000096921F004014FF0E0221161C21700EBAE
:101340005272D210044B1A70194609784FF47A720F
:101350005143024A11807047000000200200002023
:1013600001460D4A12884A434FF0E0235A61002299
:101370009A6101221A6100BF4FF0E022106910F05B
:10138000010F02D010F4803FF6D000224FF0E0238E
:101390001A619A61704700000200002000240025B5
:1013A0004820FFF7C3FFFEF7B5FFFFF793FEFFF7F7
:1013B0004FF816480478164890F8E157FFF70CF8F4
:1013C000204665F31F2013490880FFF73BF90A20E8
:1013D000FFF7C6FF04211048FFF72AF910B900F003
:1013E00023F810E0FFF709FA0C4840680C49086040
:1013F000084600680B49086008490868FEF721FFA5
:1014000008480068804700BFFEE70000E0F7FF1FC4
:1014100000F0FF1F1E0100200018014000300008EE
:10142000400100203C01002008B5002600251421C1
:10143000684600F067FAFFF71BF9FFF74BFEFFF76E
:1014400052F9FFF7C5FDFFF78DFDBB480088FF2867
:1014500002DD4FF4006501E04FF48065B648008876
:10146000801E684300F10060B4490860B2480088FB
:10147000C01F684300F10060B1490860AE480088B1
:10148000C01F684300F10060AE49086053E1684640
:1014900000F008FA48B1AC48006880F00800AB4999
:1014A000C1F80C08684600F027FAA948007800F057
:1014B000C000C02875D1A648007810F00F0F0ED0DC
:1014C000A348007800F00F00A24948700220A2490A
:1014D00008700120A149087000F0CEF911E1A04880
:1014E00090F8FF0002286FDD9D480078A5286CD198
:1014F0009B4890F8FF00401EC1B29948FFF706FFD5
:10150000974991F8FF10491E954A515C88427ED157
:1015100010464078AB287BD006DCA12809D0A22851
:1015200040D0A72875D18EE0AC281CD0AD2870D152
:101530004CE08B4991F8FF10C91EC8B2012100F0A0
:1015400019F9A0208349487002218248FFF7DEFE86
:101550008049887003208049087001207F49087005
:1015600000F08AF9A7E07E4991F8FF10C91EC8B2C1
:10157000012100F0FFF8C02076494870022175482B
:10158000FFF7C4FE73498870032073490870012077
:101590007249087000F070F93220FFF7E1FE012671
:1015A00089E0B4E0A0206B49487002216948FFF748
:1015B000ADFE6849887003206749087001206749BB
:1015C000087000F059F976E09BE087E0D02061498F
:1015D000487002215F48FFF799FE5E49887003203A
:1015E0005D49087001205D49087000F045F932201E
:1015F000FFF7B6FE5B4840685B4908600846006834
:101600005A49086057490868FEF71BFE02E053E09C
:1016100004E03EE05548006880474CE0514854499A
:101620000860B0204B49487002214A48FFF76EFE1F
:1016300048498870032048490870012047490870CC
:1016400000F01AF937E0FEF703FF49480068FEF79B
:1016500081FE002407E03B49096801EBC420FEF746
:1016600079FE601CC4B2052CF5DBFEF7B5FEA020A8
:101670003849487002213748FFF748FE35498870DD
:1016800003203549087001203449087000F0F4F84F
:1016900011E003202F49487002212E48FFF736FE43
:1016A0002C49887003202C49087001202B490870B0
:1016B00000F0E2F800BF24E0022026494870022131
:1016C0002448FFF723FE234988700320224908702D
:1016D00001202249087000F0CFF812E0A5201D4932
:1016E00008700320487002211A48FFF70FFE1949BD
:1016F000887003201849087001201849087000F00C
:10170000BBF8002012490870154981F8FF00012E2E
:1017100011D1A0200F49487002210E48FFF7F6FDB5
:101720000C49887003200C49087001200B4908708F
:1017300000F0A2F80026AAE61E01002028010020E1
:1017400030010020240100200C080140000001406D
:101750001A010020040000201C0100201B010020B1
:101760001800002000300008400100203C0100204B
:101770002C0100202DE9F04105460E4600270024EB
:10178000A046FEF765FE012E37D1022432E035482F
:10179000015D0246601C105C41EA0021A01C105C47
:1017A00041EA0041E01C105C41EA006739462E48DE
:1017B0000068FEF71BFE042818D12B480068001DA6
:1017C0002A49096888420ED827480068001D264922
:1017D0000860084600684005400D09D108460068C9
:1017E000FEF7B8FD04E04FF0050801E04FF00408F3
:1017F000201DC4B2AC42CADB2FE0022E2DD1022440
:1018000029E01848015D0246601C105C41EA002195
:10181000A01C105C41EA0041E01C105C41EA00673A
:10182000394613480068FEF7E1FD04280FD110483F
:101830000068001D0F490968884205D80C480068F7
:10184000001D0B49086004E04FF0050801E04FF06F
:101850000408201DC4B2AC42D3DBFEF7BDFD4046F8
:10186000BDE8F081180000202C010020300100208C
:10187000240100202801002010B500210848FFF7AE
:101880001CFB40F6B8310648FFF715FB0121044860
:10189000FFF7F0F901210248FFF7EFF910BD000052
:1018A000001000400146B1F90000124AB2F90020D0
:1018B00090420DDCB1F900000E4AB2F90020101A76
:1018C000B1F90220904201DB012070470020FCE7C3
:1018D000B1F900004FF6FF72101A064AB2F9002063
:1018E0001044B1F90220904201DB0120EDE7002015
:1018F000EBE700002001002001884288114409B272
:10190000018070474180024AB2F90020028070478E
:101910002001002010B5FEF7EDFC4FF00001016042
:1019200010BD005EBCE2613FDD83C29C7E20A3FD52
:101930001F419DC3217FFCA2401E5F01E3BD3E60AD
:1019400082DC237D9FC1421CFEA0E1BF5D0380DEDF
:101950003C62BEE0025CDF81633D7C22C09E1D4391
:10196000A1FF4618FAA427799BC584DA3866E5BB3F
:101970005907DB856739BAE406581947A5FB78266D
:10198000C49A653BD987045AB8E6A7F91B45C6989F
:101990007A24F8A6441A99C7257B3A6486D85B0551
:1019A000E7B98CD2306EEDB3510F4E10F2AC2F71FF
:1019B00093CD114FADF3702ECC92D38D6F31B2EC2D
:1019C0000E50AFF1134DCE90722C6D33D18F0C525F
:1019D000B0EE326C8ED0530DEFB1F0AE4C1291CF11
:1019E0002D73CA947628ABF517490856B4EA6937BF
:1019F000D58B5709EBB536688AD495CB2977F4AAED
:101A00004816E9B7550B88D6346A2B7597C94A141E
:101A1000F6A8742AC896154BA9F7B6E80A54D789D0
:101A20006B350000441A0008000000205801000037
:101A30008C0100086C1A00085801002060060000A4
:101A4000E8010008410213A50008FF010203040594
:101A50000607F11230BA0808B12D01020304040090
:0C1A60000900060708090204060800003F
:04000005080001519D
:00000001FF
